:020000040800F2
:1000000000500020894B00081D4B00081F4B0008C2
:10001000214B0008234B0008254B0008000000007E
:10002000000000000000000000000000274B000856
:10003000294B0008000000002B4B00082D4B000846
:10004000D14B0008D14B0008D14B0008D14B000820
:10005000D14B0008D14B0008D14B0008D14B000810
:10006000D14B0008D14B0008D14B0008D14B000800
:10007000D14B0008D14B0008D14B0008D14B0008F0
:10008000D14B0008D14B0008D14B0008D14B0008E0
:10009000D14B0008D14B0008D14B0008D14B0008D0
:1000A000D14B0008D14B0008D14B0008D14B0008C0
:1000B00091420008D14B0008D14B0008D14B0008F9
:1000C000D14B0008D14B0008D14B0008D14B0008A0
:1000D000D14B0008314B0008D14B0008D14B000830
:1000E000D14B0008D14B0008D14B000800000000A4
:1000F0000000000000000000000000000000000000
:0C01000000000000000000005FF808F1A3
:1001100010B5054C237833B9044B13B10448AFF341
:1001200000800123237010BDC009002000000000E2
:10013000D894000808B5034B1BB103490348AFF33B
:10014000008008BD00000000C4090020D894000809
:10015000034613F8012B002AFBD1181A0138704707
:1001600081F0004102E000BF83F0004330B54FEA68
:1001700041044FEA430594EA050F08BF90EA020FD5
:100180001FBF54EA000C55EA020C7FEA645C7FEA68
:10019000655C00F0E2804FEA5454D4EB5555B8BF8B
:1001A0006D420CDD2C4480EA020281EA030382EAFC
:1001B000000083EA010180EA020281EA0303362D8E
:1001C00088BF30BD11F0004F4FEA01314FF4801C61
:1001D0004CEA113102D0404261EB410113F0004F73
:1001E0004FEA03334CEA133302D0524263EB43032A
:1001F00094EA050F00F0A780A4F10104D5F1200EC8
:100200000DDB02FA0EFC22FA05F2801841F1000122
:1002100003FA0EF2801843FA05F359410EE0A5F1F6
:1002200020050EF1200E012A03FA0EFC28BF4CF027
:10023000020C43FA05F3C01851EBE37101F00045DD
:1002400007D54FF0000EDCF1000C7EEB00006EEBEA
:100250000101B1F5801F1BD3B1F5001F0CD3490874
:100260005FEA30004FEA3C0C04F101044FEA4452CB
:1002700012F5800F80F09A80BCF1004F08BF5FEA52
:10028000500C50F1000041EB045141EA050130BD32
:100290005FEA4C0C404141EB010111F4801FA4F1D5
:1002A0000104E9D191F0000F04BF01460020B1FA2A
:1002B00081F308BF2033A3F10B03B3F120020CDA62
:1002C0000C3208DD02F1140CC2F10C0201FA0CF040
:1002D00021FA02F10CE002F11402D8BFC2F1200CA5
:1002E00001FA02F120FA0CFCDCBF41EA0C0190405B
:1002F000E41AA2BF01EB0451294330BD6FEA0404A4
:100300001F3C1CDA0C340EDC04F11404C4F120028E
:1003100020FA04F001FA02F340EA030021FA04F3A0
:1003200045EA030130BDC4F10C04C4F1200220FAF7
:1003300002F001FA04F340EA0300294630BD21FA35
:1003400004F0294630BD94F0000F83F4801306BFFB
:1003500081F480110134013D4EE77FEA645C18BFEF
:100360007FEA655C29D094EA050F08BF90EA020F86
:1003700005D054EA000C04BF1946104630BD91EA7E
:10038000030F1EBF0021002030BD5FEA545C05D181
:100390004000494128BF41F0004130BD14F58004C0
:1003A0003CBF01F5801130BD01F0004545F0FE4134
:1003B00041F470014FF0000030BD7FEA645C1ABF69
:1003C000194610467FEA655C1CBF0B46024650EAA0
:1003D000013406BF52EA033591EA030F41F40021CC
:1003E00030BD00BF90F0000F04BF0021704730B552
:1003F0004FF4806404F132044FF000054FF0000127
:1004000050E700BF90F0000F04BF0021704730B5E7
:100410004FF4806404F1320410F0004548BF4042BC
:100420004FF000013EE700BF42004FEAE2014FEA11
:1004300031014FEA02701FBF12F07F4393F07F4FEC
:1004400081F06051704732F07F4208BF704793F0EF
:100450007F4F04BF41F40021704730B54FF4607402
:1004600001F0004521F000411CE700BF50EA010205
:1004700008BF704730B54FF000050AE050EA0102AE
:1004800008BF704730B511F0004502D5404261EB1E
:1004900041014FF4806404F132045FEA915C3FF45F
:1004A000D8AE4FF003025FEADC0C18BF03325FEAFC
:1004B000DC0C18BF033202EBDC02C2F1200300FAAD
:1004C00003FC20FA02F001FA03FE40EA0E0021FAD2
:1004D00002F11444BDE600BF70B54FF0FF0C4CF4C0
:1004E000E06C1CEA11541DBF1CEA135594EA0C0F72
:1004F00095EA0C0F00F0DEF82C4481EA030621EAAD
:100500004C5123EA4C5350EA013518BF52EA0335E7
:1005100041F4801143F4801338D0A0FB02CE4FF099
:100520000005E1FB02E506F00042E0FB03E54FF0C9
:100530000006E1FB03569CF0000F18BF4EF0010EC1
:10054000A4F1FF04B6F5007F64F5407404D25FEABD
:100550004E0E6D4146EB060642EAC62141EA555170
:100560004FEAC52040EA5E504FEACE2EB4F1FD0CB2
:1005700088BFBCF5E06F1ED8BEF1004F08BF5FEA30
:10058000500E50F1000041EB045170BD06F00046E2
:1005900046EA010140EA020081EA0301B4EB5C048F
:1005A000C2BFD4EB0C0541EA045170BD41F4801187
:1005B0004FF0000E013C00F3AB8014F1360FDEBFAC
:1005C000002001F0004170BDC4F10004203C35DA88
:1005D0000C341BDC04F11404C4F1200500FA05F30B
:1005E00020FA04F001FA05F240EA020001F00042AC
:1005F00021F0004110EBD37021FA04F642EB060122
:100600005EEA430E08BF20EAD37070BDC4F10C044B
:10061000C4F1200500FA04F320FA05F001FA04F20F
:1006200040EA020001F0004110EBD37041F10001FB
:100630005EEA430E08BF20EAD37070BDC4F1200506
:1006400000FA05F24EEA020E20FA04F301FA05F26E
:1006500043EA020321FA04F001F0004121FA04F216
:1006600020EA020000EBD3705EEA430E08BF20EAE6
:10067000D37070BD94F0000F0FD101F00046400020
:1006800041EB010111F4801F08BF013CF7D041EAA2
:10069000060195F0000F18BF704703F000465200A6
:1006A00043EB030313F4801F08BF013DF7D043EA77
:1006B0000603704794EA0C0F0CEA135518BF95EA2D
:1006C0000C0F0CD050EA410618BF52EA4306D1D1B4
:1006D00081EA030101F000414FF0000070BD50EAD3
:1006E000410606BF1046194652EA430619D094EA5D
:1006F0000C0F02D150EA013613D195EA0C0F05D147
:1007000052EA03361CBF104619460AD181EA03019A
:1007100001F0004141F0FE4141F470014FF0000052
:1007200070BD41F0FE4141F4780170BD70B54FF0ED
:10073000FF0C4CF4E06C1CEA11541DBF1CEA13556D
:1007400094EA0C0F95EA0C0F00F0A7F8A4EB05044F
:1007500081EA030E52EA03354FEA013100F0888046
:100760004FEA03334FF0805545EA131343EA12630F
:100770004FEA022245EA111545EA10654FEA0026C4
:100780000EF000419D4208BF964244F1FD0404F57D
:10079000407402D25B084FEA3202B61A65EB0305D9
:1007A0005B084FEA32024FF480104FF4002CB6EB96
:1007B000020E75EB030E22BFB61A754640EA0C0016
:1007C0005B084FEA3202B6EB020E75EB030E22BF56
:1007D000B61A754640EA5C005B084FEA3202B6EB97
:1007E000020E75EB030E22BFB61A754640EA9C0056
:1007F0005B084FEA3202B6EB020E75EB030E22BF26
:10080000B61A754640EADC0055EA060E18D04FEAE3
:10081000051545EA16754FEA06164FEAC30343EA83
:1008200052734FEAC2025FEA1C1CC0D111F4801F50
:100830000BD141EA00014FF000004FF0004CB6E749
:1008400011F4801F04BF01430020B4F1FD0C88BFE8
:10085000BCF5E06F3FF6AFAEB5EB030C04BFB6EBF3
:10086000020C5FEA500C50F1000041EB045170BDE6
:100870000EF0004E4EEA113114EB5C04C2BFD4EB13
:100880000C0541EA045170BD41F480114FF0000E97
:10089000013C90E645EA060E8DE60CEA135594EA13
:1008A0000C0F08BF95EA0C0F3FF43BAF94EA0C0F16
:1008B0000AD150EA01347FF434AF95EA0C0F7FF48B
:1008C00025AF104619462CE795EA0C0F06D152EADF
:1008D00003353FF4FDAE1046194622E750EA4106C3
:1008E00018BF52EA43067FF4C5AE50EA41047FF4D4
:1008F0000DAF52EA43057FF4EBAE12E74FF0FF3C39
:1009000006E000BF4FF0010C02E000BF4FF0010C09
:100910004DF804CD4FEA410C7FEA6C5C4FEA430C82
:1009200018BF7FEA6C5C1BD001B050EA410C0CBFD1
:1009300052EA430C91EA030F02BF90EA020F002033
:10094000704710F1000F91EA030F58BF994208BF9A
:1009500090422CBFD8176FEAE37040F00100704757
:100960004FEA410C7FEA6C5C02D150EA013C07D1AE
:100970004FEA430C7FEA6C5CD6D152EA033CD3D0F9
:100980005DF8040B704700BF8446104662468C46F3
:100990001946634600E000BF01B5FFF7B7FF002826
:1009A00048BF10F1000F01BD4DF808EDFFF7F4FF4F
:1009B0000CBF012000205DF808FB00BF4DF808EDDA
:1009C000FFF7EAFF34BF012000205DF808FB00BFFD
:1009D0004DF808EDFFF7E0FF94BF012000205DF81F
:1009E00008FB00BF4DF808EDFFF7CEFF94BF0120D4
:1009F00000205DF808FB00BF4DF808EDFFF7C4FFCD
:100A000034BF012000205DF808FB00BF4FEA410C15
:100A10007FEA6C5C02D150EA013C0AD14FEA430CF8
:100A20007FEA6C5C02D152EA033C02D14FF0000035
:100A300070474FF0010070474FEA410212F5001273
:100A400015D211D56FF47873B3EB625212D94FEA15
:100A5000C12343F0004343EA505311F0004F23FAFF
:100A600002F018BF404270474FF00000704750EA54
:100A7000013005D111F0004008BF6FF00040704711
:100A80004FF00000704700BF4FEA4102B2F1E0436F
:100A900024BFB3F5001CDCF1FE5C0DD901F0004C65
:100AA0004FEAC0024CEA5070B2F1004F40EB8300B5
:100AB00008BF20F00100704711F0804F21D113F1E1
:100AC0003872BCBF01F00040704741F480114FEA1A
:100AD0005252C2F11802C2F1200C10FA0CF320FAA3
:100AE00002F018BF40F001004FEAC1234FEAD323C0
:100AF00003FA0CFC40EA0C0023FA02F34FEA43032A
:100B0000CCE77FEA625307D150EA01331EBF4FF0B2
:100B1000FE4040F44000704701F0004040F0FE40CD
:100B200040F40000704700BF80F0004002E000BFCA
:100B300081F0004142001FBF5FEA410392EA030FC8
:100B40007FEA226C7FEA236C6AD04FEA1262D2EB12
:100B50001363C1BFD218414048404140B8BF5B4217
:100B6000192B88BF704710F0004F40F4000020F0B0
:100B70007F4018BF404211F0004F41F4000121F0C6
:100B80007F4118BF494292EA030F3FD0A2F1010210
:100B900041FA03FC10EB0C00C3F1200301FA03F14E
:100BA00000F0004302D5494260EB4000B0F5000F71
:100BB00013D3B0F1807F06D340084FEA310102F130
:100BC0000102FE2A51D2B1F1004F40EBC25008BFE2
:100BD00020F0010040EA03007047490040EB0000AC
:100BE00010F4000FA2F10102EDD1B0FA80FCACF1DB
:100BF000080CB2EB0C0200FA0CF0AABF00EBC250DA
:100C000052421843BCBFD0401843704792F0000FC7
:100C100081F4000106BF80F400000132013BB5E71A
:100C20004FEA41037FEA226C18BF7FEA236C21D090
:100C300092EA030F04D092F0000F08BF08467047F5
:100C400090EA010F1CBF0020704712F07F4F04D1C3
:100C5000400028BF40F00040704712F100723CBFD6
:100C600000F50000704700F0004343F0FE4040F400
:100C7000000070477FEA226216BF08467FEA2363BE
:100C80000146420206BF5FEA412390EA010F40F4A9
:100C9000800070474FF0000304E000BF10F00043F5
:100CA00048BF40425FEA000C08BF704743F09643DC
:100CB00001464FF000001CE050EA010208BF7047F7
:100CC0004FF000030AE000BF50EA010208BF70477E
:100CD00011F0004302D5404261EB41015FEA010C93
:100CE00002BF84460146002043F0B64308BFA3F18B
:100CF0008053A3F50003BCFA8CF2083AA3EBC2536D
:100D000010DB01FA02FC634400FA02FCC2F120028B
:100D1000BCF1004F20FA02F243EB020008BF20F0C2
:100D20000100704702F1200201FA02FCC2F1200228
:100D300050EA4C0021FA02F243EB020008BF20EA1D
:100D4000DC7070474FF0FF0C1CEAD0521EBF1CEA4B
:100D5000D15392EA0C0F93EA0C0F6FD01A4480EA39
:100D6000010C400218BF5FEA41211ED04FF0006322
:100D700043EA501043EA5111A0FB01310CF000404E
:100D8000B1F5000F3EBF490041EAD3715B0040EA74
:100D9000010062F17F02FD2A1DD8B3F1004F40EB44
:100DA000C25008BF20F00100704790F0000F0CF017
:100DB000004C08BF49024CEA502040EA51207F3ADB
:100DC000C2BFD2F1FF0340EAC250704740F40000B6
:100DD0004FF00003013A5DDC12F1190FDCBF00F0A7
:100DE00000407047C2F10002410021FA02F1C2F155
:100DF000200200FA02FC5FEA310040F1000053EAF1
:100E00004C0308BF20EADC70704792F0000F00F03E
:100E1000004C02BF400010F4000F013AF9D040EA44
:100E20000C0093F0000F01F0004C02BF490011F4D8
:100E3000000F013BF9D041EA0C018FE70CEAD153D6
:100E400092EA0C0F18BF93EA0C0F0AD030F0004C56
:100E500018BF31F0004CD8D180EA010000F000400A
:100E6000704790F0000F17BF90F0004F084691F0C8
:100E7000000F91F0004F14D092EA0C0F01D1420202
:100E80000FD193EA0C0F03D14B0218BF084608D1CB
:100E900080EA010000F0004040F0FE4040F4000015
:100EA000704740F0FE4040F4400070474FF0FF0CA8
:100EB0001CEAD0521EBF1CEAD15392EA0C0F93EAEF
:100EC0000C0F69D0A2EB030280EA010C49024FEA41
:100ED000402037D04FF0805343EA111143EA1013FA
:100EE0000CF000408B4238BF5B0042F17D024FF4B2
:100EF000000C8B4224BF5B1A40EA0C00B3EB510F8D
:100F000024BFA3EB510340EA5C00B3EB910F24BF75
:100F1000A3EB910340EA9C00B3EBD10F24BFA3EBFA
:100F2000D10340EADC001B0118BF5FEA1C1CE0D1C2
:100F3000FD2A3FF650AF8B4240EBC25008BF20F075
:100F4000010070470CF0004C4CEA50207F32C2BFC9
:100F5000D2F1FF0340EAC250704740F400004FF066
:100F60000003013A37E792F0000F00F0004C02BF97
:100F7000400010F4000F013AF9D040EA0C0093F061
:100F8000000F01F0004C02BF490011F4000F013BBB
:100F9000F9D041EA0C0195E70CEAD15392EA0C0F23
:100FA00008D142027FF47DAF93EA0C0F7FF470AF5B
:100FB000084676E793EA0C0F04D14B023FF44CAF9E
:100FC00008466EE730F0004C18BF31F0004CCAD133
:100FD00030F000427FF45CAF31F000437FF43CAF6F
:100FE0005FE700BF4FF0FF3C06E000BF4FF0010C91
:100FF00002E000BF4FF0010C4DF804CD4FEA400273
:101000004FEA41037FEA226C18BF7FEA236C11D0BC
:1010100001B052EA530C18BF90EA010F58BFB2EB6F
:10102000030088BFC81738BF6FEAE17018BF40F0EF
:10103000010070477FEA226C02D15FEA402C05D1A3
:101040007FEA236CE4D15FEA412CE1D05DF8040B28
:10105000704700BF844608466146FFE70FB5FFF7BB
:10106000C9FF002848BF10F1000F0FBD4DF808ED73
:10107000FFF7F4FF0CBF012000205DF808FB00BF64
:101080004DF808EDFFF7EAFF34BF012000205DF8BE
:1010900008FB00BF4DF808EDFFF7E0FF94BF01200B
:1010A00000205DF808FB00BF4DF808EDFFF7D2FF08
:1010B00094BF012000205DF808FB00BF4DF808ED4B
:1010C000FFF7C8FF34BF012000205DF808FB00BF18
:1010D0004FEA40024FEA41037FEA226C02D15FEA05
:1010E000402C08D17FEA236C02D15FEA412C02D167
:1010F0004FF0000070474FF0010070474FEA400288
:10110000B2F1FE4F0FD34FF09E03B3EB12620DD935
:101110004FEA002343F0004310F0004F23FA02F09F
:1011200018BF404270474FF00000704712F1610F46
:1011300001D1420205D110F0004008BF6FF000401D
:1011400070474FF00000704753B94AB9002908BFF3
:1011500000281CBF4FF0FF314FF0FF3000F074B992
:10116000ADF1080C6DE904CE00F006F8DDF804E0FE
:10117000DDE9022304B070472DE9F0478C460446B0
:10118000089E002B4BD18A42154667D9B2FA82F2EB
:101190004AB1C2F1200701FA02F320FA07F795409D
:1011A00047EA030C94404FEA154EBCFBFEF71FFACA
:1011B00085F80EFB17C307FB08F9210C41EA03432E
:1011C000994509D9EB1807F1FF3180F01C81994549
:1011D00040F21981023F2B44A3EB0903B3FBFEF05D
:1011E0000EFB103300FB08F1A4B244EA0344A14211
:1011F00009D92C1900F1FF3380F00781A14240F298
:10120000048102382C4440EA07400027641A1EB1CA
:101210000023D440C6E900433946BDE8F0878B423D
:1012200009D9002E00F0EC800027C6E900013846FD
:101230003946BDE8F087B3FA83F7002F48D18B42D7
:1012400002D3824200F2FB80841A61EB0303012087
:101250009C46002EE0D0C6E9004CDDE702B9FFDE77
:10126000B2FA82F2002A40F08F800127491B4FEA30
:1012700015481FFA85F9B1FBF8FE08FB1E1109FBA2
:101280000EF04FEA144C4CEA0143984207D9EB1890
:101290000EF1FF3102D2984200F2CD808E461B1A29
:1012A000B3FBF8F008FB103309FB00F9A4B244EAE1
:1012B0000344A14507D92C1900F1FF3302D2A145FF
:1012C00000F2B6801846A4EB090440EA0E409EE7FF
:1012D000C7F12005BB4022FA05FC4CEA030C21FAB9
:1012E00005F44FEA1C4EB4FBFEF91FFA8CF80EFB16
:1012F000194420FA05F3B94009FB08FA19430B0C0D
:1013000043EA0444A24502FA07F200FA07F30BD9B4
:101310001CEB040409F1FF3080F08880A24540F204
:101320008580A9F102096444A4EB0A04B4FBFEF031
:101330000EFB104400FB08FA89B241EA0444A245BE
:1013400008D91CEB040400F1FF316BD2A24569D926
:101350000238644440EA0940A0FB0289A4EB0A0475
:101360004C454146CE4654D351D0002E69D05A1A2E
:1013700064EB0E0404FA05F522FA07F3FC401D4362
:10138000C6E90054002747E79540C2F1200321FA3F
:1013900003F04FEA1548B0FBF8F71FFA85F908FB90
:1013A000170024FA03F3914007FB09FC0B43190CC7
:1013B00041EA00418C4504FA02F407D9691807F1A3
:1013C000FF3031D28C452FD9023F2944A1EB0C01CB
:1013D000B1FBF8F008FB101C00FB09FE99B241EAD2
:1013E0000C418E4507D9691800F1FF3318D28E459C
:1013F00016D902382944A1EB0E0140EA07473AE723
:101400003746304608E70F46E6E61846FBE6434512
:10141000ABD2B8EB020169EB0C0201389646A4E7A7
:101420001846E8E7084695E70746CFE781467BE799
:1014300002382C4447E7AEF1020E2B442FE7384622
:1014400007E73746E8E600BF704700BF38B50E4BE8
:10145000054618784FF47A73B3FBF0F30B4A106823
:10146000B0FBF3F000F00EFA044658B90F2D09D87E
:10147000024629464FF0FF3000F0C4F92046044BE5
:101480001D6038BD0120FCE700000020080000209E
:1014900004000020074A08B51368032043F0100336
:1014A000136000F09DF90020FFF7D0FF03F0DCF996
:1014B000002008BD00200240034A044B11681B783D
:1014C0000B441360704700BF680C00200000002030
:1014D000014B1868704700BF680C002038B50446FF
:1014E000FFF7F6FF0546631C1EBF044B1B78E4188C
:1014F000FFF7EEFF401BA042FAD338BD00000020EA
:1015000038B5044600286ED090F820300BB903F0AF
:10151000CDF92268136823F002031360FFF7D8FFA8
:10152000054623685A68910751D41A6842F00102AF
:101530001A60FFF7CDFF054623685A68D20754D5D5
:10154000227E0020012A1A680CBF42F0800222F09D
:1015500080021A60627E012A1A680CBF42F04002C3
:1015600022F040021A60A27E012A1A680CBF42F0E3
:10157000200222F020021A60E27E012A1A680CBFC3
:1015800022F0100242F010021A60227F012A1A682B
:101590000CBF42F0080222F008021A60627F012AA2
:1015A0001A680CBF42F0040222F004021A60D4E967
:1015B00002210A4321690A4361690A4361680139CA
:1015C0000A43DA610123606284F8203038BDFFF7F6
:1015D0007FFF401B0A28A4D9636A43F40033636287
:1015E000052384F820300120F0E7FFF771FF401B4E
:1015F0000A28A1D9F0E790F8203070B5013B012B03
:101600005FD801240368D3F8002242F00102C3F836
:1016100000224A69D3F81C5202F01F0004FA00F0BD
:10162000C4432540C3F81C52CD6985BBD3F80C5286
:10163000CE682540C3F80C528D8803EBC20245EA00
:101640000645C2F840528E680D8845EA0645C2F844
:1016500044528A696ABBD3F804222240C3F80422A8
:101660000A6952BBD3F814222240C3F814220A6A32
:10167000012A02BFD3F81C221043C3F81C02002029
:10168000D3F8002222F00102C3F8002270BD012D20
:10169000DFD1D3F80C520E680543C3F80C528D8885
:1016A00003EBC20245EA0645C2F840528E688D89B6
:1016B000CBE7D3F804220243D0E7D3F81422024345
:1016C000D3E7436A43F4802343620120DEE738B561
:1016D00090F820300446012B1FD10223026880F8C5
:1016E0002030136823F001031360FFF7F1FE054675
:1016F0002368586810F0010001D1606238BDFFF71F
:10170000E7FE401B0A28F3D9636A43F4003363629F
:10171000052384F820300120F0E7436A43F40023D6
:101720004362F8E7F0B590F820500668013D012DBE
:10173000B46840D814F0E05F39D0C4F30164032CDE
:101740004FF0010505D1436A43F4000343620120D1
:1017500027E0A5401D60D1E9020704F1180308BB8A
:10176000086847EA40501B01F0500869240133190A
:10177000C3F884010020097D3444012902BFD3F855
:10178000841141F48071C3F884115168C4F88C113C
:101790001268C4F88821D3F8802142F00102C3F80E
:1017A0008021F0BD4D68384340EAC500DBE7436A5D
:1017B00043F40013CAE7436A43F48023C6E790F872
:1017C0002030013B012B05D80268002053691943E2
:1017D00051617047436A43F480234362012070479C
:1017E000074A0002D36800F4E06023F4E0631B04BE
:1017F0001B0C43F0BF6343F400330343D3607047D3
:1018000000ED00E0174B70B5DC684FF0FF36C4F315
:101810000224C4F10705042D04F1040328BF0425A4
:10182000062B98BF002406FA05F388BF033C21EA83
:101830000303A34006FA04F422EA0404002843EA5E
:101840000403A8BF00F160404FEA0313B8BF064A83
:10185000DBB2B5BF00F00F0000F56140135480F813
:10186000003370BD00ED00E014ED00E001234209FB
:1018700000F01F0003FA00F0014B43F8220070470C
:1018800000E100E00138B0F1807F0AD2F021064B80
:10189000064A586082F823100020072298601A60D8
:1018A00070470120704700BF10E000E000ED00E04D
:1018B00090F8213010B5022B03D00423836301205C
:1018C00010BD03681A6822F00E021A601A6822F02E
:1018D00001021A60184A93421FD0143293421ED05C
:1018E000143293421DD0143293421DD014329342CD
:1018F0001DD0143293420CBF4FF480134FF080730D
:101900000E4A00245360012380F82130436B80F895
:1019100020407BB198472046D2E70123F0E710230F
:10192000EEE74FF48073EBE74FF48053E8E74FF4B2
:101930008033E5E71846C3E7080002400000024094
:101940002DE9F74F00221646654BDFF8A4C1DFF8FA
:10195000A4E14FF001080C6808FA06F808EA04044C
:10196000A0457ED14D68122D00F0AE8000F2878038
:10197000022D00F0A6807BD8002D00F08D80012D77
:1019800000F09D804FF00F09FF2C93BF824606F1B7
:101990008045083DD0F800B092BFB500D0F804B043
:1019A000AD0009FA05F82BEA080802FA05F588BF28
:1019B00000F1040A48EA0505CAF80050D1F804A06D
:1019C0001AF0805F4DD0474F26F00308BD6908F13B
:1019D000804845F00105BD61BD6908F5803805F016
:1019E0000105019506F0030B019D4FEA8B0BD8F81A
:1019F000085009FA0BF925EA09093B4DA84268D0BD
:101A000005F58065A84266D005F58065A84264D0DA
:101A100005F58065A8420CBF0325042505FA0BF5E2
:101A200045EA0905C8F808501D681AF4803F14BF3C
:101A30002543A5431D605D681AF4003F14BF25438C
:101A4000A5435D609D681AF4801F14BF2543A5431C
:101A50009D60DD681AF4001F14BF2C4325EA0404BE
:101A6000DC600136102E7FF474AF03B0BDE8F08F58
:101A7000032D22D0112D85D1CA68043282E71B4F75
:101A8000BD4209D012D8DFF870904D4504D009F559
:101A900080394D457FF476AF8A68C2B1012A0CBF08
:101AA000C0F81080C0F8148008226BE76545F3D0B9
:101AB0007545F1D0DFF84490EBE7002262E7CA6891
:101AC00060E7CA6808325DE7CA680C325AE7042248
:101AD00058E70025A2E70125A0E702259EE700BF01
:101AE00000040140001002400008014000002110E5
:101AF0000000311000003210000011100000221010
:101B00000AB1016170470904FBE7000003682DE991
:101B1000F341DB07054610D42B689F075ED42B6882
:101B2000190700F195802B685A0700F1BF80EA6918
:101B3000002A40F02D81002014E0904C636803F0EF
:101B40000C03042B07D0636803F00C03082B0CD1A3
:101B50006368DE0309D523689C03DDD56B68002B21
:101B6000DAD1012002B0BDE8F0816B68B3F5803FA7
:101B700010D1236843F480332360FFF7A9FC0646A5
:101B800023689803C8D4FFF7A3FC801B6428F7D907
:101B90000320E7E79BB9236823F48033236023689D
:101BA00023F480232360FFF793FC06462368990300
:101BB000B2D5FFF78DFC801B6428F7D9E8E7B3F5B1
:101BC000A02F236803D143F480232360D1E723F4BB
:101BD00080332360236823F48023CDE7674C636858
:101BE00013F00C0F07D0636803F00C03082B10D11F
:101BF0006368DA030DD423689B0702D52B69012B98
:101C0000AFD123686A6923F0F80343EAC203236073
:101C100085E72A695A4B6AB101221A60FFF758FC1E
:101C2000064623689F07ECD4FFF752FC801B02286E
:101C3000F7D9ADE71A60FFF74BFC06462368980713
:101C40007FF56DAFFFF744FC801B0228F6D99FE7B4
:101C5000AA694A4C4B4BDAB101221A60FFF738FCF3
:101C60000646636A9B070DD54FF4FA52464B1B6834
:101C7000B3FBF2F3019300BF019B5A1E0192002BAC
:101C8000F9D150E7FFF724FC801B0228E9D97FE750
:101C90001A60FFF71DFC0646636A9F077FF543AF96
:101CA000FFF716FC801B0228F6D971E7334CE36975
:101CB000D80024D40127E36943F08053E361E3694A
:101CC00003F080530093009B304E3368D90518D53C
:101CD000EB68012B26D1236A43F001032362FFF74F
:101CE000F7FB41F288368046236A9B073FD5002FD9
:101CF0003FF41DAFE36923F08053E36117E700274A
:101D0000E2E7336843F480733360FFF7E1FB80461A
:101D10003368DA05DCD4FFF7DBFBA0EB08006428AE
:101D2000F6D935E7ABB9236A41F2883823F00103CD
:101D30002362236A23F004032362FFF7C9FB0646EC
:101D4000236A9807D3D5FFF7C3FB801B4045F7D91B
:101D50001EE7052B236A03D143F004032362BAE78D
:101D600023F001032362236A23F00403B6E7FFF79D
:101D7000AFFBA0EB0800B042B6D909E70010024063
:101D800000004242800442420800002000700040EF
:101D9000224C636803F00C03082B3FF4E2AE0023EF
:101DA0001F4E022A33602BD1FFF792FB07462368B0
:101DB00099011FD42B6AB3F5803F05D16268A968E9
:101DC00022F400320A436260696A62680B4322F4BB
:101DD00074121343636001233360FFF779FB0546F8
:101DE00023689A013FF5A7AEFFF772FB401B02285C
:101DF000F6D9CDE6FFF76CFBC01B0228D7D9C7E6A2
:101E0000FFF766FB054623689B017FF594AEFFF75D
:101E10005FFB401B0228F6D9BAE600BF0010024063
:101E20006000424230B5184B87B002AC03F1100598
:101E3000224618685968083303C2AB421446F7D1EA
:101E400040F201231149ADF804304B6803F00C0255
:101E5000082A17D1C3F3834206A80244DB0312F811
:101E6000102C0CD54B680A48C3F34043504306AAD4
:101E7000134413F8143CB0FBF3F007B030BD054831
:101E80005043FAE70248F8E7F094000800100240D7
:101E900000127A0000093D00534A2DE9F041136811
:101EA000054603F007038B420E4628D329688C07AA
:101EB00032D4CA0745D44C4A136803F00703B3422F
:101EC0007FD82A68494C12F0040F40F08580130730
:101ED00006D563682A6923F4605343EAC20363604A
:101EE000FFF7A0FF6368424AC3F30313D35CD840F3
:101EF000404B18600020FFF7A9FA00200AE01368A1
:101F000023F007030B431360136803F007038B42AE
:101F1000CCD00120BDE8F081344B11F0040F1EBF7E
:101F20005A6842F4E0625A60080742BF5A6842F4B5
:101F300060525A605A68A86822F0F00202435A6060
:101F4000B7E76A68294C012A23681BD113F4003FC4
:101F5000DFD0636841F2883823F0030313436360E2
:101F6000FFF7B6FA6B680746012B13D1636803F0DD
:101F70000C03042B9FD0FFF7ABFAC01B4045F5D9EB
:101F80000320C7E7022A02D113F0007FE0E713F035
:101F9000020FDDE7022B0FD1636803F00C03082B5F
:101FA00089D0FFF795FAC01B4045F5D9E8E7FFF760
:101FB0008FFAC01B4045E3D8636813F00C0FF6D1CD
:101FC00079E7136823F0070333431360136803F0C2
:101FD0000703B3429DD174E76368E96823F4E063C3
:101FE0000B43636073E700BF002002400010024013
:101FF0002095000808000020044B054A5B68C3F3E5
:102000000223D35C034A1068D84070470010024096
:102010003095000808000020044B054A5B68C3F3B4
:10202000C223D35C034A1068D840704700100240B6
:10203000309500080800002010B50446002834D070
:102040000023836290F851300BB902F073FC022335
:10205000216884F851300B68A26923F040030B60BB
:10206000D4E901300343E068034320690343606916
:102070000343E0690343206A0343A06A034302F475
:10208000007003430B60120C636A02F004021A43EF
:10209000E36A4A600B61CB69002023F40063CB61E3
:1020A0000123606584F8513010BD0120FCE703680E
:1020B0000020DA6842F00102DA601A6842F0010298
:1020C0001A607047036889B1042907D01A6A22F0A0
:1020D00001021A621A6A42F001021A621A6A22F0B6
:1020E00010021A621A6A42F0100206E01A6A22F01E
:1020F00001021A621A6A42F001021A621A6800208A
:1021000042F001021A60704790F83C3070B5012B24
:102110004FF002031CD0012280F83D30036880F8A4
:102120003C209A6822F47F4222F077029A600A6883
:10213000402A79D019D8102A00F093800AD8002AB2
:1021400000F08980012380F83D30002380F83C3086
:10215000184670BD202A00F08A80302AF2D19A6891
:1021600022F0700242F0370236E0702A36D01BD8D7
:10217000502A42D0602AE5D11C6A4D6824F0100430
:10218000CE681C6299691A6A21F4704122F0A0029B
:1021900042EA051241EA063199611A629A6822F010
:1021A000700242F0670217E0B2F5805F11D0B2F51D
:1021B000005FC7D1D1E901529C68C9682A4324F461
:1021C0007F4442EA012222439A609A6842F48042A4
:1021D00002E09A6822F007029A60B3E79C68D1E9AE
:1021E0000152C9682A4324F47F4442EA012222436F
:1021F0009A609A6842F07702EEE74C68CE68196AF6
:102200001D6A21F00A0125F001051D629A6921432A
:1022100022F0F00242EA06129A6119629A6822F0EC
:10222000700242F05702D7E74C68CE68196A1D6AFF
:1022300021F00A0125F001051D629A69214322F06F
:10224000F00242EA06129A6119629A6822F070025C
:1022500042F04702C0E79A6822F0700242F007029B
:10226000BAE79A6822F0700242F01702B4E79A685F
:1022700022F0700242F02702AEE700001A4A03681B
:1022800090420AD0B0F1804F07D0A2F5943290422C
:1022900003D002F58062904215D14A6823F07003A2
:1022A0001343114A90420AD0B0F1804F07D0A2F5F3
:1022B0009432904203D002F58062904203D1CA6802
:1022C00023F4407313434A6923F0800313430360EC
:1022D0008B68C3620B688362034B984204BF0B692F
:1022E0000363012343617047002C014010B504468D
:1022F000A0B190F83D3003F0FF021BB980F83C20FC
:1023000002F0B0FB0223206884F83D30211DFFF766
:10231000B5FF0123002084F83D3010BD0120FCE70B
:10232000F8B50C460546002841D090F83D3003F042
:10233000FF021BB980F83C2002F038FB294602233B
:1023400051F8040B85F83D30836823F00703836060
:10235000FFF794FF2868236886688269A1681E4396
:10236000A36922F4407222F0030241EA03231343DB
:1023700023F47C422369E1691B0143EA0123E168FC
:10238000076A0B43216A22F0FC0243EA013313433C
:10239000616927F0AA026768866047EA01178361CE
:1023A000174301230762002085F83D30F8BD012066
:1023B000FCE790F83C3010B5012B4FF0020318D029
:1023C00080F83D3003680C685A68496822F0700252
:1023D0005A605A6822435A609A6822F080029A60D2
:1023E0009A680A439A60012380F83D30002380F800
:1023F0003C30184610BD0368DA6822F49072DA6047
:102400005A6922F001025A61202380F83A3070475D
:102410002DE9F84380460368C1681A69192422F43B
:1024200040520A431A6182680069D9680243D8F8A9
:10243000140021F4B05121F00C0102430A43DA6088
:102440005A69D8F8181022F440720A435A613E4A79
:10245000934247D1FFF7E0FD04FB00F3D8F8046096
:102460006427B600B3FBF6F3B3FBF7F31E01FFF7E7
:10247000D3FD6043D8F804309B00B0FBF3F5FFF7C1
:10248000CBFD6043D8F804309B00B0FBF3F3B3FB03
:10249000F7F307FB13531B013233B3FBF7F303F0DE
:1024A000F005FFF7B9FD6043D8F804209200B0FBB7
:1024B000F2F9FFF7B1FD6043D8F80430D8F80020F6
:1024C0009B00B0FBF3F3B3FBF7F307FB13931B0184
:1024D0003233B3FBF7F303F00F032B433344936022
:1024E000BDE8F883FFF788FD04FB00F3D8F804602B
:1024F0006427B600B3FBF6F3B3FBF7F31E01FFF757
:102500007BFD6043D8F804309B00B0FBF3F5FFF788
:1025100073FD6043D8F804309B00B0FBF3F3B3FBCA
:10252000F7F307FB13531B013233B3FBF7F303F04D
:10253000F005FFF761FD6043D8F804209200B0FB7E
:10254000F2F9FFF759FDB6E700380140F8B5044647
:102550000E4617461D4621680B6836EA030301D173
:10256000002014E06B1CF7D095B923680320DA68CB
:1025700022F4D072DA605A6922F001025A612023F3
:1025800084F8393084F83A30002384F83830F8BDC4
:10259000FEF79EFFC01B8542DDD2E6E710B504467C
:1025A00040B390F8393003F0FF021BB980F83820AF
:1025B00002F070FA2423226884F83930D368204668
:1025C00023F40053D360FFF723FF236800201A6928
:1025D00022F490421A615A6922F02A025A61DA689A
:1025E00042F40052DA602023E06384F8393084F842
:1025F0003A3010BD0120FCE72DE9F0411F4690F86C
:1026000039300446202B0D4690464CD1002948D045
:10261000002A46D090F83830012B44D0012380F8AE
:1026200038300023C363212380F83930FEF750FF90
:102630000646A4F82480A4F82680E38C9BB263B9F4
:102640003B46324640212046FFF780FFA0B92023B9
:1026500084F8380084F839300FE0E38C3246013BCF
:102660009BB2E384A3688021B3F5805F20463B469C
:102670000ED1FFF76BFF10B10320BDE8F0812B886E
:102680002268C3F308035360236943B90235D4E7D2
:10269000FFF75CFF0028EFD123682A785A600135E4
:1026A000CBE70120E9E70220E7E77047704790F8A1
:1026B0003A3010B5222B33D181680469B1F5805FBF
:1026C000836A026823D15268ECB9C2F3080223F886
:1026D000022B8362C48D013CA4B2C4858CB903680B
:1026E000DA6822F02002DA60DA6822F48072DA60B6
:1026F0005A6922F001025A61202380F83A30FFF72C
:10270000D5FF00200DE0D2B223F8012BE1E7591CE0
:10271000526881620CB91A70DCE702F07F02FAE7B6
:10272000022010BD70470000036870B51A680446A7
:102730001607D9685D6907D1960658D58D0656D516
:10274000BDE87040FFF7B3BF15F0010502D111F4E9
:10275000907F4CD0D30705D5CE0542BFE36B43F045
:102760000103E363500704D51DB1E36B43F002039B
:10277000E363930704D51DB1E36B43F00403E36304
:10278000160704D51DB1E36B43F00803E363E36B65
:1027900043B3950604D5880602D52046FFF787FF88
:1027A000236820465D69E26B110702D415F04005ED
:1027B00019D0FFF720FE23685A6952060FD55A69CF
:1027C000606B22F040025A6148B1264B4363FFF729
:1027D0006FF838B1606BBDE87040436B1847204616
:1027E000FFF7A0FF70BDFFF79DFFE563FAE7160650
:1027F00028D50D0626D594F83920212AF2D1A168D2
:10280000226AB1F5805F18D11188C1F308015960BF
:10281000216981B902322262E28C013A92B2E284E9
:10282000002ADFD1DA6822F08002DA60DA6842F04A
:102830004002DA60D6E70132EDE7511C21621278DE
:102840005A60E9E75006CDD54A06CBD5DA6820466E
:1028500022F04002DA60202384F83930FFF725FFA8
:10286000C0E700BF6928000808B50023406AC38597
:10287000C384FFF757FF08BD80B485B000AFF86090
:10288000B9607A603B60FB68BA681A60FB687A6876
:102890005A60FB683A689A60FB684FF00002DA60A1
:1028A000FB6818461437BD4680BC704780B483B0BF
:1028B00000AF78600B46FB707B681B689B6803F079
:1028C0000203002B0CBF01230023DBB2002B00D03E
:1028D000F2E77B681B68FA78DA607B681B689B68A4
:1028E00003F00103002B0CBF01230023DBB2002BFC
:1028F00000D0F2E77B681B68DB68DBB218460C3758
:10290000BD4680BC704780B483B000AF78607B6800
:102910009A687B685B6812041A6100BF0C37BD4679
:1029200080BC704780B483B000AF78607B685B6820
:102930007A6892681A6100BF0C37BD4680BC704748
:1029400080B584B000AF78600B46FB701346BB7057
:102950000023FB737868FFF7D6FFFB781946786889
:10296000FFF7A4FFBB7819467868FFF79FFF03467F
:10297000FB737868FFF7D6FFFB7BDBB21846103796
:10298000BD4680BD80B584B000AF78600B46FB705B
:1029900013463B800023FB817868FFF7B4FFFB7888
:1029A00019467868FFF782FF3B881B0A9BB2DBB2AF
:1029B00019467868FFF77AFF03469BB21B029BB269
:1029C000FB813B88DBB219467868FFF76FFF03464F
:1029D0009AB2FB899BB213439BB2FB817868FFF7E5
:1029E000A1FFFB899BB218461037BD4680BD000091
:1029F00080B483B000AF78607B68104A1A607B684F
:102A00004FF07E525A607B684FF000029A607B68FC
:102A10004FF00002DA607B684FF000021A617B68B9
:102A20004FF06C525A617B68002283F824207B6847
:102A300018460C37BD4680BC704700BFCDCCCC3D9E
:102A400090B59BB000AFF860B9607A603B606749B1
:102A5000B868FEF777F90346BB6064497868FEF70B
:102A600071F903467B6061493868FEF76BF90346EC
:102A70003B60FB689B6883F00043B9681846FEF72B
:102A800061F903461C46FB68DB6879681846FEF767
:102A900059F9034619462046FEF74AF803461C46F4
:102AA000FB681B6939681846FEF74CF9034619465E
:102AB0002046FEF73DF803464FF07C511846FEF7DE
:102AC00041F903467B66FB685B68B9681846FEF708
:102AD00039F903461C46FB68DB6839681846FEF77F
:102AE00031F9034619462046FEF724F803461C46F2
:102AF000FB681B6979681846FEF724F903461946F6
:102B00002046FEF715F803464FF07C511846FEF7B5
:102B100019F903463B66FB685B6879681846FEF75F
:102B200011F903461C46FB689B6839681846FEF796
:102B300009F9034619462046FDF7FAFF03461C46ED
:102B4000FB681B69B9681846FEF7FCF8034619468E
:102B50002046FDF7EFFF03464FF07C511846FEF785
:102B6000F1F80346FB65FB685B6839681846FEF7B9
:102B7000E9F803461C46FB689B6879681846FEF72F
:102B8000E1F8034619462046FDF7D4FF03461C46EC
:102B9000FB68DB68B9681846FEF7D4F803461946A7
:102BA0002046FDF7C5FF03464FF07C511846FEF75F
:102BB000C9F80346BB654FF00001B86FFEF756FA3F
:102BC0000346002B14D04FF00001F86FFEF74EFAC9
:102BD0000346002B0CD04FF00001D7F88000FEF721
:102BE00045FA0346002B40F0318201E039FA8E3C71
:102BF000B96FB86FFEF7A6F803461C46F96FF86F79
:102C0000FEF7A0F8034619462046FDF793FF03465A
:102C10001C46D7F88010D7F88000FEF793F80346DB
:102C200019462046FDF786FF0346184600F0BCFA19
:102C30007865796DB86FFEF785F80346BB67796DE7
:102C4000F86FFEF77FF80346FB67796DD7F88000D1
:102C5000FEF778F80346C7F88030FB685B681946D2
:102C60001846FDF767FF03463B65FB689B681946FE
:102C70001846FDF75FFF0346FB64FB68DB681946F7
:102C80001846FDF757FF0346BB64FB681B691946EE
:102C90001846FDF74FFF03467B64FB685B684FF007
:102CA00081411846FEF74EF803463B64FB689B687B
:102CB0004FF081411846FEF745F80346FB63FB6879
:102CC000DB684FF081411846FEF73CF80346BB63D2
:102CD000FB689B684FF082411846FEF733F80346C5
:102CE0007B63FB68DB684FF082411846FEF72AF8E9
:102CF00003463B63FB685A68FB685B6819461046ED
:102D0000FEF720F80346FB62FB689A68FB689B6845
:102D100019461046FEF716F80346BB62FB68DA68F0
:102D2000FB68DB6819461046FEF70CF803467B6229
:102D3000FB681A69FB681B6919461046FEF702F822
:102D400003463B62796A386CFDF7FCFF03461C467C
:102D5000B96FB86CFDF7F6FF034619462046FDF73C
:102D6000E9FE03461C46B96A386CFDF7EBFF0346E3
:102D700019462046FDF7DEFE03461C46F96FF86C47
:102D8000FDF7E0FF034619462046FDF7D1FE034656
:102D9000FB61396AF86BFDF7D5FF03461C46B96F36
:102DA000786CFDF7CFFF034619462046FDF7C0FEBD
:102DB00003461C464FF08141F86AFDF7C3FF034606
:102DC0001A46FB689B6819461046FDF7BBFF034691
:102DD00019462046FDF7AEFE03461C46F96F386DD6
:102DE000FDF7B0FF034619462046FDF7A1FE034656
:102DF000F96B1846FDF79CFE03461C46B96A786BD2
:102E0000FDF7A0FF034619462046FDF793FE034653
:102E10001C46796A786BFDF795FF034619462046F4
:102E2000FDF788FE03461C46D7F88010F86BFDF7C7
:102E300089FF034619462046FDF77CFE0346BB6129
:102E40004FF08141F86AFDF77DFF03461A46FB68A3
:102E5000DB6819461046FDF775FF03461C46B96F3F
:102E6000386DFDF76FFF034619462046FDF762FEF9
:102E700003461C46396AB86BFDF764FF03461946E2
:102E80002046FDF757FE03461C46F96F786CFDF7A8
:102E900059FF034619462046FDF74AFE0346B96B23
:102EA0001846FDF745FE03461C46B96A386BFDF728
:102EB00049FF034619462046FDF73CFE03461C46E3
:102EC000796A386BFDF73EFF034619462046FDF749
:102ED00031FE03461C46D7F88010B86BFDF732FF71
:102EE000034619462046FDF725FE03467B614FF059
:102EF0008141B86AFDF726FF03461A46FB681B6945
:102F000019461046FDF71EFF03461C46B96FF86CC4
:102F1000FDF718FF034619462046FDF709FE034654
:102F20001C464FF08141786AFDF70CFF03461A46B4
:102F3000FB681B6919461046FDF704FF0346194656
:102F40002046FDF7F7FD03461C46F96FB86CFDF708
:102F5000F9FE034619462046FDF7EAFD03463B61AC
:102F6000F969F869FDF7EEFE03461C46B969B869D0
:102F7000FDF7E8FE034619462046FDF7DBFD034654
:102F80001C4679697869FDF7DDFE0346194620463F
:102F9000FDF7D0FD03461C4639693869FDF7D2FEBE
:102FA000034619462046FDF7C5FD0346184600F0C6
:102FB000FBF87865796DF869FDF7C4FE0346FB619F
:102FC000796DB869FDF7BEFE0346BB61796D78691E
:102FD000FDF7B8FE03467B61796D3869FDF7B2FEF7
:102FE00003463B61FB681B68F9691846FDF7AAFEBA
:102FF00003461946786EFDF79BFD03467B66FB682A
:103000001B68B9691846FDF79DFE03461946386EE0
:10301000FDF78EFD03463B66FB681B687969184621
:10302000FDF790FE03461946F86DFDF781FD034656
:10303000FB65FB681B6839691846FDF783FE03468C
:103040001946B86DFDF774FD0346BB65FB685C6807
:10305000FB685B69796E1846FDF774FE03461946F6
:103060002046FDF767FD03461A46FB685A60FB6879
:103070009C68FB685B69396E1846FDF763FE034682
:1030800019462046FDF756FD03461A46FB689A602E
:10309000FB68DC68FB685B69F96D1846FDF752FE5A
:1030A000034619462046FDF745FD03461A46FB68D0
:1030B000DA60FB681C69FB685B69B96D1846FDF74F
:1030C00041FE034619462046FDF734FD03461A46E5
:1030D000FB681A61FB685A68FB685B681946104612
:1030E000FDF730FE03461C46FB689A68FB689B6848
:1030F00019461046FDF726FE034619462046FDF701
:1031000019FD03461C46FB68DA68FB68DB68194654
:103110001046FDF717FE034619462046FDF70AFD47
:1031200003461C46FB681A69FB681B691946104672
:10313000FDF708FE034619462046FDF7FBFC034653
:10314000184600F031F87865FB685B68796D1846C1
:10315000FDF7F8FD03461A46FB685A60FB689B685A
:10316000796D1846FDF7EEFD03461A46FB689A6036
:10317000FB68DB68796D1846FDF7E4FD03461A46E7
:10318000FB68DA60FB681B69796D1846FDF7DAFDAC
:1031900003461A46FB681A61FB68002283F8242064
:1031A00000BF6C37BD4690BD80B586B000AF78607B
:1031B0004FF07C517868FDF7C5FD03467B617B6865
:1031C0003B6107F110031B68FB60FB685A10214B41
:1031D0009B1AFB6007F10C031B683B613B69796933
:1031E0001846FDF7AFFD03461A463B6919461046DF
:1031F000FDF7A8FD034619464FF07F50FDF798FCF8
:1032000003461A463B6919461046FDF79BFD0346E7
:103210003B613B6979691846FDF794FD03461A4600
:103220003B6919461046FDF78DFD034619464FF0E0
:103230007F50FDF77DFC03461A463B691946104650
:10324000FDF780FD03463B613B6918461837BD46D4
:1032500080BD00BFDF59375FB0B582B000AF786086
:103260007B685A687B689B6819461046FDF76AFDC3
:1032700003461C467B68DA687B681B691946104662
:10328000FDF760FD034619462046FDF753FC034653
:103290001C467B689A687B689B6819461046FDF758
:1032A00051FD034619464FF07C50FDF741FC0346A3
:1032B0001D467B68DA687B68DB6819461046FDF7B7
:1032C00041FD034619462846FDF732FC03461946E0
:1032D000204601F053FD02467B689A617B689A683C
:1032E0007B681B6919461046FDF72CFD03461C46FA
:1032F0007B685A687B68DB6819461046FDF722FD3B
:10330000034619462046FDF713FC03464FF04041A3
:103310001846FDF717FD0346184601F0E1FC02468A
:103320007B68DA617B689A687B68DB6819461046BF
:10333000FDF708FD03461C467B685A687B681B69DD
:1033400019461046FDF7FEFC034619462046FDF7D8
:10335000F1FB03461C467B68DA687B68DB6819462C
:103360001046FDF7EFFC034619464FF07C50FDF781
:10337000DFFB03461D467B681A697B681B6919469B
:103380001046FDF7DFFC034619462846FDF7D0FB43
:1033900003461946204601F0F1FC02467B681A629A
:1033A0007B68012283F8242000BF0837BD46B0BDEA
:1033B00080B582B000AF7860396039684FF07E50D8
:1033C000FDF774FD03461A467B685A6100BF083753
:1033D000BD4680BD80B582B000AF78607B6893F851
:1033E0002430002B02D17868FFF736FF7B681B6A18
:1033F00018460837BD4680BD90B583B000AF7860F1
:103400007B680022DA607B684FF000021A607B68FC
:103410004FF000025A607B684FF000029A60102063
:1034200001F0D9FB03461C464FF48053054A064978
:103430002046FFF721FA7B68DC607B6818460C3772
:10344000BD4690BD000C01400038004090B59BB0D7
:1034500000AFF860B9607A6007F1440300221A6097
:103460005A609A60DA601A615A6107F12C030022EF
:103470001A605A609A60DA601A615A6100237B66AA
:103480007B6EFF2B00F3EE8007F1140300221A601D
:103490005A609A60DA601A615A61FB68DB68002240
:1034A000C3211846FFF76EFA03461BB21846FDF714
:1034B000F5FB0346B3491846FDF744FC0346B24901
:1034C0001846FDF7F3FC03467B61FB68DB680022CE
:1034D000C5211846FFF756FA03461BB21846FDF7FA
:1034E000DDFB0346A7491846FDF72CFC0346A64919
:1034F0001846FDF7DBFC0346BB61FB68DB68002276
:10350000C7211846FFF73EFA03461BB21846FDF7DF
:10351000C5FB03469B491846FDF714FC03469A4930
:103520001846FDF7C3FC0346FB61FB68DB6800221D
:10353000BB211846FFF726FA03461BB21846FDF7D3
:10354000ADFB03468F491846FDF7FCFB03464FF0E1
:103550008A411846FDF7AAFC03463B62FB68DB681C
:103560000022BD211846FFF70DFA03461BB218468C
:10357000FDF794FB034683491846FDF7E3FB03463A
:103580004FF08A411846FDF791FC03467B62FB68C9
:10359000DB680022BF211846FFF7F4F903461BB28F
:1035A0001846FDF77BFB034676491846FDF7CAFB34
:1035B00003464FF08A411846FDF778FC0346BB628C
:1035C00000233B663B6E052B45DC3B6E9B0007F101
:1035D0006802134453F8242C3B6E9B0007F16801EA
:1035E0000B4453F8543C19461046FDF7A3FA034622
:1035F0001A463B6E9B0007F168010B4443F8242CEC
:103600003B6E9B0007F16802134453F83C4C3B6E41
:103610009B0007F16802134453F8542C3B6E9B0047
:1036200007F168010B4453F8543C19461046FDF766
:1036300089FB034619462046FDF77CFA03461A46E5
:103640003B6E9B0007F168010B4443F83C2C3B6E3A
:1036500001333B66B6E70420FDF740FF7B6E013384
:103660007B660DE70023FB65FB6D052B00F3858072
:10367000FB6D9B0007F16802134453F8243C4FF0A4
:1036800087411846FDF712FC03461A46FB6D9B0066
:1036900007F168010B4443F8242CFB6D9B0007F1F4
:1036A0006802134453F83C4CFB6D9B0007F1680221
:1036B000134453F8243C4FF087411846FDF742FB72
:1036C00003461A46FB6D9B0007F168010B4453F853
:1036D000243C19461046FDF735FB034619462046A3
:1036E000FDF726FA03461A46FB6D9B0007F16801B9
:1036F0000B4443F83C2CFB6D9B0007F1680213441C
:1037000053F83C3C21491846FDF7D0FB03461A46C6
:10371000FB6D9B0007F168010B4443F83C2CFB6DEB
:103720009B0007F16802134453F83C3C184601F033
:1037300027FB0246FB6D9B0007F168010B4443F831
:103740003C2CFB6D9B00BA681A44FB6D9B0007F193
:1037500068010B4453F8243C1360FB6D9B007A68AE
:103760001A44FB6D9B0007F168010B4453F83C3C85
:103770001360FB6D0133FB6576E700BF6C37BD4618
:1037800090BD00BF00007A443333034200007F4302
:10379000B0B590B000AF78607B68DB680022F5219F
:1037A0001846FFF7CDF8034687F83B3097F83B30D3
:1037B000712B07D07B68DB681021184601F009FAED
:1037C0000023ABE07B68DB6803226B211846FFF720
:1037D000B7F87B68DB6803221A211846FFF7B0F8B8
:1037E0007B68DB68002219211846FFF7A9F87B687F
:1037F000DB6810221B211846FFF7A2F87B68DB6804
:1038000018221C211846FFF79BF86420FDF766FE7E
:1038100007F1200300221A605A609A60DA601A6188
:103820005A61404B07F108041D460FCD0FC495E8BF
:10383000030084E803000023FB63FB6B092B6CDCB3
:1038400007F1080207F1200319467868FFF7FEFD2B
:10385000BB6835491846FDF713FC0346002B58D0CA
:10386000FB6831491846FDF70BFC0346002B50D08E
:103870003B692D491846FDF703FC0346002B48D051
:103880007B6929491846FDF7FBFB0346002B40D016
:10389000BB6925491846FDF7F3FB0346002B38D0DA
:1038A000FB6921491846FDF7EBFB0346002B30D09E
:1038B0003B6A1846FDF722FC02467B681A617B6A68
:1038C0001846FDF71BFC02467B685A61BB6A184626
:1038D000FDF714FC02467B689A61FB6A1846FDF707
:1038E0000DFC02467B68DA613B6B1846FDF706FC6F
:1038F00002467B681A627B6B1846FDF7FFFB0246A7
:103900007B685A624FF088410848FFF751FD012358
:1039100004E0FB6B0133FB638FE70023184640375D
:10392000BD46B0BD0095000800002F44DC09002012
:1039300090B587B000AF78603B4B5B6A1BB27B8170
:10394000394B00225A62394B5B6A9BB25B429BB295
:103950001BB23B81354B00225A627B689B687B61BE
:10396000786901F053F93861786901F083F9F860FA
:103970007B891BB21846FDF791F903463969184651
:10398000FDF7E0F903461C463B891BB21846FDF7DC
:1039900085F90346F9681846FDF7D4F90346194638
:1039A0002046FDF7C5F8034621491846FDF7CAF938
:1039B00003461A467B681B6819461046FDF7BAF89D
:1039C00003461A467B681A607B891BB21846FDF7CE
:1039D00065F90346F9681846FDF7B4F903461C4635
:1039E0003B891BB21846FDF759F903463969184659
:1039F000FDF7A8F9034619462046FDF79BF8034654
:103A00000B491846FDF79EF903461A467B685B682A
:103A100019461046FDF78EF803461A467B685A6031
:103A200000BF1C37BD4690BD0004004000080040A8
:103A30007E2ED1392DE9F04391B004AF78607B68D8
:103A4000DB680022C3211846FEF79CFF03461BB229
:103A50001A464FF47A7303FB02F31846FDF71EF97A
:103A60000346A9491846FDF721FA03464FF07C5159
:103A70001846FDF75FF803461846FDF73FFB03467F
:103A80007B617B68DB680022C5211846FEF77AFF60
:103A900003461BB21A464FF47A7303FB02F318462F
:103AA000FDF7FCF8034698491846FDF7FFF9034671
:103AB0004FF07C511846FDF73DF803461846FDF7D8
:103AC0001DFB0346BB617B68DB680022C7211846EB
:103AD000FEF758FF03461BB21A464FF47A7303FBF6
:103AE00002F31846FDF7DAF8034687491846FDF752
:103AF000DDF903464FF07C511846FDF71BF80346ED
:103B00001846FDF7FBFA0346FB617B68DB68002281
:103B1000BB211846FEF736FF03461BB2002B01DA25
:103B200003F2FF73DB121BB21846FDF7B7F803462A
:103B30004FF07C511846FCF7FDFF03461846FDF791
:103B4000DDFA03463B627B68DB680022BD21184634
:103B5000FEF718FF03461BB2002B01DA03F2FF73D6
:103B6000DB121BB21846FDF799F803464FF07C5163
:103B70001846FCF7DFFF03461846FDF7BFFA034679
:103B80007B627B68DB680022BF211846FEF7FAFEE5
:103B900003461BB2002B01DA03F2FF73DB121BB2E8
:103BA0001846FDF77BF803464FF07C511846FCF7AA
:103BB000C1FF03461846FDF7A1FA0346BB62002386
:103BC000FB62FB6A022B77DCFB6A9B0007F1300289
:103BD000134453F81C2C7B68F96A043153F82130E4
:103BE000D11A7B68FA6A0A3243F822107B68FA6AB3
:103BF0000A3253F8223013F1FA0F06DB7B68FA6AB7
:103C00000A3253F82230FA2B16DD7B68FA6A0A3240
:103C100053F822301846FDF741F803463B49184651
:103C2000FDF744F903461A46FB6A9B0007F1300191
:103C30000B4443F8282C3BE0FB6A9B0007F1300261
:103C400013444FF0000243F8282C7B68FA6A0432D0
:103C500053F822301846FDF721F803462C49184640
:103C6000FDF770F803461C46FB6A9B0007F1300223
:103C7000134453F81C3C1846FDF710F80346254939
:103C80001846FDF75FF8034619462046FCF752FF39
:103C900003464FF07C511846FCF74CFF034618468C
:103CA000FDF72CFA01467B68FA6A043243F82210C9
:103CB000FB6A0133FB6284E7BC68FD683E693B6ACE
:103CC0001846FCF7EBFF80467B6A1846FCF7E6FFD8
:103CD0008146BB6A1846FCF7E1FF03460293CDF824
:103CE0000490CDF8008033462A4621460A48FEF764
:103CF000A7FE0948FFF76EFB02467B689A6000BF8B
:103D00003437BD46BDE8F0833333034200007A44C4
:103D1000A4707D3F0AD7233CDC09002080B582B027
:103D200000AF78607868FFF733FD03461846083720
:103D3000BD4680BD80B582B000AF78607868FFF77F
:103D4000F7FD7868FFF776FE00BF0837BD4680BDF7
:103D500080B485B000AFF860B9607A603B60FB6802
:103D60001A68BB681A60FB685A687B681A60FB684F
:103D70009A683B681A6000BF1437BD4680BC704724
:103D800080B582B000AF786039607B68012B07D1C5
:103D90003B684FF6FF72934202D10348FEF728FEBC
:103DA00000BF0837BD4680BDDC09002080B500AFEC
:103DB0004FF6FF710120FFF7E3FF80BD80B400AF35
:103DC000064B30221A60064B064A1A60064B002248
:103DD0001A7000BFBD4680BC704700BF2C0A00208F
:103DE000940B002000640040300A002080B582B0AF
:103DF00000AF786039607B685B019BB2244A136036
:103E0000234B1A687B681B0E1344214A1360204B16
:103E10005A687B68DB0023F47F5323F03F0313448D
:103E20001B4A53603B685B019BB2194A9360184B75
:103E30009A683B681B0E1344154A9360144BDA686A
:103E40003B68DB0023F47F5323F03F031344104A05
:103E5000D3600F4B00229A610D4B0122DA610C4BAB
:103E600000225A610A4B00221A61094B00225A6251
:103E7000074B01221A62074B1B78012B03D104491F
:103E80000548FDF7B8FB00BF0837BD4680BD00BF41
:103E9000040A0020300A0020940B002080B500AFF7
:103EA000284B1B78002B48D1274B1B68274A5360AF
:103EB000264B00229A60254B0022DA60234B4FF4F8
:103EC00060221A61214B4FF480125A611F4B00226D
:103ED0001A761E4B01225A761C4B00229A761B4BF7
:103EE0000122DA76194B00221A77184B00225A77F2
:103EF0001648FDF705FB134B01221A700021002024
:103F0000FFF774FF1148FDF7E2FB0346002B14BFD7
:103F100001230023DBB2002B01D000F04FFC022173
:103F20000A48FDF74CFC0346002B14BF0123002375
:103F3000DBB2002B01D000F041FC054B02221A61DC
:103F400000BF80BD300A00202C0A0020940B002006
:103F5000000C014080B483B000AF0346FB71244BDA
:103F60001B78012B3ED0FB79082B3CD801A252F8DC
:103F700023F000BF993F0008A33F0008AB3F0008B3
:103F8000B33F0008BB3F0008C33F0008CB3F000819
:103F9000D33F0008DB3F0008164B4FF4E1721A6074
:103FA00021E0144BE1221A601DE0124B5A221A60E4
:103FB00019E0104B2D221A6015E00E4B24221A60D6
:103FC00011E00C4B12221A600DE00A4B04221A6019
:103FD00009E0084B03221A6005E0064B02221A6032
:103FE00000BF00E000BF0C37BD4680BC704700BF7B
:103FF000300A00202C0A002080B584B000AF786021
:10400000396007F108033A6879680648FDF78AFBCA
:104010000346FB6000F008F8FB6818461037BD4601
:1040200080BD00BF940B002010B5094C23686BB90C
:10403000FDF74EFA074B1B68C01A0A2806D94FF441
:104040000052054B1A61FDF743FA206010BD00BF16
:10405000380A0020340A00200010014010B50A4C34
:1040600023687BB1FDF734FA2368C01A0A2809D9FE
:104070004FF00052054B1A6100232360FDF728FA28
:10408000034B186010BD00BF380A0020001001402B
:10409000340A002080B483B000AF03463960FB715E
:1040A00097F90730002B0CDA3B68DAB20D4997F923
:1040B000073003F00F03043B1201D2B20B441A760F
:1040C0000BE03B68DBB2084A97F9071008461B0172
:1040D000D9B213180A4683F8002300BF0C37BD4637
:1040E00080BC704700ED00E000E100E090B587B0D3
:1040F00000AFFDF7CFF900F0F3FA00F067FA00F037
:1041000007FA00F0A7F900F069F900F0BBFAFFF731
:1041100055FE01214FF0FF30FFF7BCFF00F00EF914
:104120004A4B1B68494A43F0400313604848FDF777
:10413000BEFF18214748FDF7C5FF18214648FDF787
:10414000C1FF0820FFF706FF444B1B681846FFF726
:10415000E5FD0346FB74FB7C83F00103DBB2002B1F
:104160000ED06420FDF7BAF93D4B4FF000721A6192
:104170006420FDF7B3F93A4B4FF400721A61F0E78F
:10418000FFF78CFE1C20FDF771FB00F0A3F8002365
:104190007B61FDF79DF902467B69D31A042B8CBF26
:1041A00001230023DBB2002BF3D02C4B18682D4BDE
:1041B0002D4A2E49FFF7CCFD2C4B1B6819462C4885
:1041C00000F002FB284B1B6819462A4800F0FCFA55
:1041D000244B1B681946284800F0F6FA2449274862
:1041E000FFF70AFF00BF00BF00BF00BF00BF00BF56
:1041F00000BF00BF00BF00BF1E492148FFF7FCFE03
:1042000000BF00BF00BF00BF00BF00BF00BF00BFB6
:1042100000BF00BF18491B48FFF7EEFE114B1B689B
:104220001846FCF701F903460C46381D1A4623468A
:10423000154902F08DF9391D4FF47A730C22134899
:10424000FEF7DAF9FDF744F97861A2E7003800409B
:10425000940A0020D40A0020140B0020040C002033
:10426000000C0140280C0020240C0020200C002011
:10427000080C0020100C0020180C0020BC0B0020A3
:10428000D40B0020EC0B002018950008540B0020E4
:1042900080B500AF4FF080431B6903F00103002B92
:1042A00014BF01230023DBB2002B0CD0084B1B688A
:1042B0001846FFF73FFD4FF080431B694FF08042E7
:1042C00023F001031361FFF7C9FE00BF80BD00BFEB
:1042D000040C002080B400AF154B0022DA60144BB0
:1042E00000229A60124B40F205221A60104B042201
:1042F0001A61104B0022DA600E4B00229A600D4BBF
:1043000040F206221A600B4B04221A610A4B00226B
:10431000DA60094B00229A60074B40F207221A60CC
:10432000054B04221A6100BFBD4680BC704700BF28
:10433000BC0B0020D40B0020EC0B002080B590B00B
:1043400000AF07F1180328220021184602F096F862
:104350003B1D00221A605A609A60DA601A610123DC
:10436000BB614FF48033FB6100233B620123BB62DE
:1043700002237B634FF48033BB634FF4E013FB6392
:1043800007F118031846FDF7C1FB0346002B14BFC5
:1043900001230023DBB2002B01D000F00FFA0F2322
:1043A0007B600223BB600023FB604FF480633B61B2
:1043B00000237B613B1D02211846FDF76DFD03467E
:1043C000002B14BF01230023DBB2002B01D000F02F
:1043D000F5F900BF4037BD4680BD000080B500AF95
:1043E0001A4B1B4A1A60194B4FF482725A60174BD2
:1043F00000229A60154B0022DA60144B00221A61E9
:10440000124B00225A61114B4FF400729A610F4B0C
:104410002822DA610D4B00221A620C4B00225A62EC
:104420000A4B00229A62094B0722DA620748FDF71D
:1044300003FE0346002B14BF01230023DBB2002B35
:1044400001D000F0BBF900BF80BD00BF3C0A0020D6
:104450000038004080B58CB000AF07F10C03242277
:104460000021184602F00AF83B1D00221A605A602B
:10447000254B264A1A60244B00225A60224B002208
:104480009A60214B4FF6FF72DA601F4B00221A61CF
:104490001D4B00229A610323FB6000233B61012333
:1044A0007B610023BB610023FB6100233B6201238E
:1044B0007B620023BB620023FB6207F10C031946F9
:1044C0001148FDF72DFF0346002B14BF01230023E5
:1044D000DBB2002B01D000F071F900237B600023D8
:1044E000BB603B1D19460848FDF763FF0346002BE0
:1044F00014BF01230023DBB2002B01D000F05EF9D2
:1045000000BF3037BD4680BD140B002000080040BE
:1045100080B58CB000AF07F10C03242200211846AF
:1045200001F0ACFF3B1D00221A605A60254B264A61
:104530001A60244B00225A60224B00229A60214BC1
:104540004FF6FF72DA601F4B00221A611D4B0022EA
:104550009A610323FB6000233B6101237B610023FD
:10456000BB610023FB6100233B6201237B620023CC
:10457000BB620023FB6207F10C0319461148FDF7EB
:10458000CFFE0346002B14BF01230023DBB2002B18
:1045900001D000F013F900237B600023BB603B1DBA
:1045A00019460848FDF705FF0346002B14BF0123F9
:1045B0000023DBB2002B01D000F000F900BF303740
:1045C000BD4680BDD40A00200004004080B586B0FE
:1045D00000AF07F1080300221A605A609A60DA609F
:1045E0003B4600221A605A60254B4FF080421A6009
:1045F000234B08225A60224B00229A60204B43F63C
:104600000852DA601E4B4FF400721A611C4B0022F4
:104610009A611B48FDF76AFE0346002B14BF012375
:104620000023DBB2002B01D000F0C8F84FF4805318
:10463000BB6007F1080319461148FDF765FD034605
:10464000002B14BF01230023DBB2002B01D000F0AC
:10465000B5F800233B6000237B603B4619460848C1
:10466000FDF7A7FE0346002B14BF01230023DBB296
:10467000002B01D000F0A2F800BF1837BD4680BD66
:10468000940A002080B500AF134B144A1A60124BF5
:104690004FF4E1325A60104B00229A600E4B002218
:1046A000DA600D4B00221A610B4B0C225A610A4B47
:1046B00000229A61084B0022DA610748FDF76EFF7D
:1046C0000346002B14BF01230023DBB2002B01D0D3
:1046D00000F074F800BF80BD540B0020003801408A
:1046E00080B588B000AF07F1100300221A605A604D
:1046F0009A60DA602E4B9B692D4A43F01003936158
:104700002B4B9B6903F01003FB60FB68284B9B69F4
:10471000274A43F020039361254B9B6903F0200354
:10472000BB60BB68224B9B69214A43F00403936141
:104730001F4B9B6903F004037B607B681C4B9B69E8
:104740001B4A43F008039361194B9B6903F008036C
:104750003B603B6800224FF400511648FDF7D0F94A
:10476000002241F207611448FDF7CAF94FF40053E3
:104770003B6101237B610023BB610223FB6107F1E5
:10478000100319460B48FDF7DBF841F207633B6164
:1047900001237B610023BB610223FB6107F110034E
:1047A00019460548FDF7CCF800BF2037BD4680BD4F
:1047B0000010024000100140000C014080B400AF26
:1047C00000BFBD4680BC704790B486B000AF786033
:1047D00039603B68BB6004237B617B69002B17DD7C
:1047E0007B69013B7B61D7E90234D9B27A687B6986
:1047F00013440A461A70D7E902124FF000034FF033
:1048000000040B0A43EA0263140AC7E90234E4E72E
:1048100000BF1837BD4690BC7047000090B583B00C
:1048200000AF786039607B68012B0ED13B684FF692
:10483000FF72934209D1402000F0CDF903461C4697
:104840002046FEF7D9FD034B1C6000BF0C37BD4668
:1048500090BD00BF040C002080B500AF4FF6FF7183
:104860000120FFF7DBFF80BD0E4B82B09A6942F05A
:1048700001029A619A6902F001020092009ADA69D3
:1048800042F08052DA61DB69074A03F080530193FA
:10489000019B536823F0E06343F00073536002B060
:1048A000704700BF001002400000014010B50446F0
:1048B00086B01022002102A801F0E0FD22681A4B08
:1048C0009A422ED103F5D633DA6902A942F000727A
:1048D000DA61DA69154802F000720092009A9A696A
:1048E00042F004029A619B6903F004030193019B67
:1048F0004FF480730293FDF723F84FF40072022304
:10490000CDE90223032302A908480593FDF718F80F
:10491000074A536823F4C04343F0E06343F4804301
:10492000536006B010BD00BF00640040000C0140A1
:104930000000014010B5044686B01022002102A8F4
:1049400001F09CFD2268174B9A4228D103F5EC3305
:10495000DA6902A942F48042DA61DA69124802F4A3
:1049600080420092009A9A6942F008029A619B691B
:104970004FF4204203F008030193019B0223CDE989
:10498000022303230593FCF7DBFF4FF48041002350
:104990000548CDE9021302A90493FCF7D1FF06B044
:1049A00010BD00BF00380040000C0140102210B5BF
:1049B000044688B00DEB0200002101F05FFD236882
:1049C000234A934225D1234B04A9DA69224842F0B5
:1049D0000202DA61DA6902F002020092009A9A6930
:1049E00042F008029A619B6903F008030193019B5E
:1049F0003023049301230693FCF7A2FF174A536860
:104A000023F4406343F0E06343F40063536008B071
:104A100010BD134A9342FAD10E4B04A9DA690E482D
:104A200042F00402DA61DA6902F004020292029AA8
:104A30009A6942F008029A619B6903F008030393A4
:104A4000039BC023049301230693FCF779FFDEE761
:104A50000004004000100240000C01400000014032
:104A600000080040036882B0B3F1804F10D103F515
:104A70000433DA691C2042F00102DA610022114697
:104A8000DB6903F001030193019B02B0FCF7BABE9E
:104A900002B0704710B5044686B01022002102A86B
:104AA00001F0ECFC22681B4B9A4231D103F55843CC
:104AB0009A6902A942F480429A619A69164802F4FE
:104AC00080420092009A9A69002442F004029A619E
:104AD0009B694FF4007203F004030193019B0223CE
:104AE000CDE9022303230593FCF72AFF4FF48063EB
:104AF000CDE90234012302A907480493FCF720FF03
:104B0000252022462146FCF77DFE2520FCF7AEFE3F
:104B100006B010BD00380140000801407047FEE7B4
:104B2000FEE7FEE7FEE7704770477047FCF7C4BC3E
:104B30000148FDF7F9BD00BF540B00200F4B1A6868
:104B400042F001021A6059680D4A0A405A601A6818
:104B500022F0847222F480321A601A6822F48022D1
:104B60001A605A6822F4FE025A604FF41F029A60DB
:104B70004FF00062034B9A60704700BF0010024084
:104B80000000FFF800ED00E0002103E00B4B5B5854
:104B9000435004310A480B4B42189A42F6D30A4A52
:104BA00002E0002342F8043B084B9A42F9D3FFF796
:104BB000C5FF01F0F9F9FFF799FA7047BC9B0008AF
:104BC00000000020C0090020C00900207C0C00204B
:104BD000FEE700F019B810B5002814BF0446012400
:104BE000204601F005FA30B900F006F808B901F0E6
:104BF000CDF98047F4E710BD024B1868BFF35B8F17
:104C0000704700BF2C0C002001F0FAB907B5184A14
:104C100020F000439342014603DC002100F078FCC1
:104C200004E0B3F1FF4F04DBFBF782FF03B05DF854
:104C300004FB694600F0C0FA00F00302012A05D027
:104C4000022A0AD072B901990098E7E70199009801
:104C500000F07CFF00F10040E8E70199009800F0C7
:104C600057FCF7E701220199009800F06FFFDDE79C
:104C7000D80F493F07B5194A20F000439342014637
:104C800004DC0022002100F061FF04E0B3F1FF4FDB
:104C900004DBFBF74DFF03B05DF804FB694600F051
:104CA0008BFA00F00300012806D0022809D080B951
:104CB000012201990098E6E70199009800F028FC8C
:104CC000E9E701220199009800F040FF00F100405F
:104CD000E1E70199009800F01BFCF7E7D80F493F86
:104CE000F0B58BB0044600F095F8214E054696F9D4
:104CF0000030013338D021462046FCF7E9F9074659
:104D0000002831D1204601F0ABF84FF07E51FCF77E
:104D1000D5F948B301230093164B20460193089719
:104D2000FBF782FBCDE90401CDE90201124800F056
:104D300085FF96F90030CDE90601022B04D101F080
:104D40002DF92123036004E0684600F075FF002878
:104D5000F5D0089B1BB101F021F9089B0360DDE948
:104D60000601FBF791FE054628460BB0F0BD00BFDB
:104D70000C000020389500089D9A000800F08CB9BE
:104D8000F0B58BB0044600F06FFB204B064693F95C
:104D900000506B1C2AD021462046FCF799F90746A3
:104DA00020BB00212046FCF76BF9F8B101230093EA
:104DB000174B204601930897FBF736FB0022CDE9FD
:104DC0000401CDE9020100239DB9CDE9062368461F
:104DD00000F032FFA8B1089B1BB101F0DFF8089B7F
:104DE0000360DDE90601FBF74FFE064630460BB0D7
:104DF000F0BD10461946FBF799FC022DCDE90601DE
:104E0000E5D101F0CBF821230360E4E70C0000209A
:104E10003E9500082DE9F04720F00045B5F17E5F92
:104E2000044607460CD18C49FBF78CFF8B4905469D
:104E30002046FBF787FF01462846FBF77BFE06E08E
:104E400009DD0146FBF774FE0146FCF72FF8044626
:104E50002046BDE8F087B5F17C5F0BDAB5F1485F1D
:104E600073DA7F49FBF766FE4FF07E51FCF726F9B7
:104E70000028EDD1204600F0F3FF01464FF07E50B0
:104E8000FBF756FE4FF07C51FBF75CFF044675497B
:104E9000FBF758FF7449FBF74DFE2146FBF752FF25
:104EA0007249FBF745FE2146FBF74CFF7049FBF7C3
:104EB00041FE2146FBF746FF6E49FBF739FE2146CE
:104EC000FBF740FF6C49FBF735FE2146FBF73AFF45
:104ED0006A4980462046FBF735FF6949FBF728FE03
:104EE0002146FBF72FFF6749FBF724FE2146FBF71E
:104EF00029FF6549FBF71CFE2146FBF723FF4FF016
:104F00007E51FBF717FE8146204600F0ADFA5F4B5D
:104F100006469D4263DD49464046FBF7C7FF3146E2
:104F2000FBF710FF3146FBF705FE0146FBF702FEDB
:104F30005749FBF7FFFD01464748FBF7F9FD002FF6
:104F40000446D8BF00F1004482E70146FBF7FAFEB1
:104F500005464449FBF7F6FE4349FBF7EBFD2946BE
:104F6000FBF7F0FE4149FBF7E3FD2946FBF7EAFEBC
:104F70003F49FBF7DFFD2946FBF7E4FE3D49FBF720
:104F8000D7FD2946FBF7DEFE3B49FBF7D3FD29465B
:104F9000FBF7D8FE394906462846FBF7D3FE3849C9
:104FA000FBF7C6FD2946FBF7CDFE3649FBF7C2FDF0
:104FB0002946FBF7C7FE3449FBF7BAFD2946FBF744
:104FC000C1FE4FF07E51FBF7B5FD01463046FBF7C1
:104FD0006DFF2146FBF7B6FE014620462DE7014650
:104FE00020F47F65FBF7A6FD494682464046FBF765
:104FF0005DFF01465046FBF7A5FE25F00F058046F4
:1050000029462846FBF79EFE01462046FBF790FD09
:10501000314604462846FBF78DFD01462046FBF746
:1050200045FF0146FBF786FD01460C48FBF780FD76
:1050300001464046FBF77CFD294604462846FBF71F
:1050400079FD01461348FBF773FD01462046FBF747
:105050006FFD01460F4870E7DB0FC93F2EBD3BB324
:10506000CAF2497108EF1138047F4F3A4611243DC6
:10507000A80A4E3E90B0A63EABAA2A3E2EC69D3D43
:105080006133303F2D57014039D119409999793F0B
:105090002EBD3B33DB0F493FF8B521F00046B6F19A
:1050A000FF4F034605DC20F00042B2F1FF4F0746F8
:1050B00004DD1846FBF73EFD034624E0B1F17E5FB8
:1050C00003D1BDE8F84000F0BFBD8C1704F0020426
:1050D00044EAD0742AB9022C57D0032C13D12D4B9B
:1050E00011E01EB9002F52DA2B4B0CE0B6F1FF4F46
:1050F0001AD1B2F1FF4F0CD1022C06D0032C06D0EE
:10510000012C40D1254B1846F8BD254BFBE7254B1C
:10511000F9E7022C39D0032CE1D0012C02D14FF059
:105120000043F0E70023EEE7B2F1FF4FDAD0921B25
:10513000D2153C2A17DC002901DA3C3215DB18466F
:10514000FBF7B4FE00F08CFE00F07EFD0346012C60
:105150000DD0022C0ED0002CD5D013491846FBF7E9
:10516000E9FC12490CE0124BF1E70023EFE703F1F1
:105170000043C8E70C491846FBF7DCFC01460B4826
:10518000FBF7D6FC98E70B4BBDE7084BBBE7084B9A
:10519000B9E700BFDB0F49C0DB0FC9BFDB0F49BF59
:1051A000E4CB1640E4CB16C02EBDBB33DB0F494029
:1051B000DB0FC93FDB0F493F2DE9F04F9D4A20F03F
:1051C0000045954287B00C46074604DC002320606A
:1051D0004B6000261AE0984A95424BDC002825F0E7
:1051E0000F059649964E23DDFBF7A2FCB542074614
:1051F00010D09449FBF79CFC014620603846FBF731
:1052000097FC9049FBF794FC01266060304607B09C
:10521000BDE8F08F8C49FBF78BFC8C490546FBF70A
:1052200087FC014620602846FBF782FC8749E9E7B6
:10523000FBF780FCB54207460ED08249FBF77AFCAB
:10524000014620603846FBF773FC7E49FBF772FC91
:105250004FF0FF366060D9E77B49FBF76BFC7B4979
:105260000546FBF767FC014620602846FBF760FC1B
:105270007649EBE7764A954200F38C8000F0F0FD2A
:1052800074498046FBF75EFD4FF07C51FBF752FC02
:10529000FBF734FF0646FBF701FD68498246FBF742
:1052A00051FD01464046FBF743FC664980465046A7
:1052B000FBF748FD1F2E81460CDC674A711E52F831
:1052C000212025F0FF03934204D049464046FBF7D6
:1052D0002FFC09E049464046FBF72AFCED15C0F3D8
:1052E000C753EB1A082B01DC206024E056495046D6
:1052F000FBF728FD814601464046FBF719FC0146B5
:1053000083464046FBF714FC4946FBF711FC8046F8
:105310004E495046FBF716FD4146FBF709FC014696
:1053200081465846FBF704FCC0F3C753ED1A192D0C
:1053300015DCD8462060256840462946FBF7F8FB77
:105340004946FBF7F5FB002F6060BFF65FAF05F144
:10535000004500F1004025606060764256E73F4915
:105360005046FBF7EFFC054601465846FBF7E0FBCD
:10537000014680465846FBF7DBFB2946FBF7D8FB86
:10538000054637495046FBF7DDFC2946FBF7D0FBC5
:1053900081469AE7B5F1FF4F05DB0146FBF7C8FBF5
:1053A0006060206015E7EE15863EA5EBC6552846E1
:1053B000FBF7A4FEFBF772FC014603902846FBF7BF
:1053C000B7FB4FF08741FBF7BDFC8046FBF796FE2D
:1053D000FBF764FC0146049005464046FBF7A8FB3A
:1053E0004FF08741FBF7AEFC00210590FBF73EFE36
:1053F000E8B100212846FBF739FE002814BF01233D
:105400000223184A21460192022203A80092324642
:1054100000F0FEF8002F0646BFF6F8AE236803F151
:1054200000432360636803F10043636095E703234F
:10543000E7E700BFD80F493FE3CB1640800FC93FD5
:10544000D00FC93F434435370044353708A3852E74
:10545000800F494384F9223F4495000800A3852E1C
:1054600032318D24C495000820F00042B2F1FF4F84
:1054700070B50346044609D30146FBF763FC0146B9
:105480002046FBF757FB0446204670BD002AFBD0A0
:10549000002806DA0146FBF74BFB0146FBF706FD49
:1054A000F1E7B2F5000F4FEAE0542ED37F3CE2075C
:1054B0004FF000024FEA640116464FF019044FF016
:1054C0008070C3F3160343F4000348BF5B005B0026
:1054D00035189D42DEBF2E185B1B1218013C4FEAA7
:1054E00043034FEA5000F3D113B1013222F001021D
:1054F000541004F17C5404EBC154C5E75B00013245
:105500001902FBD5013AA41AD0E70022F8E70000FF
:105510002DE9F04120F00044B4F1485F064688468A
:1055200003DAFBF7EBFD00285CD031463046FBF791
:1055300009FC4FF07C510546FBF704FC2B4907465C
:105540002846FBF7FFFB2A49FBF7F4FA2946FBF74D
:10555000F9FB2849FBF7ECFA2946FBF7F3FB264950
:10556000FBF7E8FA2946FBF7EDFB2449FBF7E0FAE5
:105570002946FBF7E7FB2249FBF7DCFA2946FBF754
:10558000E1FB2946FBF7DEFB414605463046FBF7CB
:10559000D9FB01462846FBF7CBFA1A4B05469C423D
:1055A0000ADC01463846FBF7C3FA01464FF07E504D
:1055B000FBF7BEFABDE8F081134B4FF07E509C42E2
:1055C000CCBF124C04F17F442146FBF7B1FA2146CF
:1055D00006463846FBF7ACFA2946FBF7A9FA01461E
:1055E0003046E5E74FF07E50E4E700BF4ED747ADC9
:1055F000F6740F317CF29334010DD037610BB63A5B
:10560000ABAA2A3D9999993E0000483F0000903E80
:105610002DE9F04FD9B004930191C34B6299D41E88
:1056200053F8213000250293049B4FF0000A013B00
:105630000393082394FBF3F424EAE474661CA2EBBE
:10564000C606DDE9023203EB0208639BA71A059048
:1056500003EB87090DF1700B45457FDD4FF0000826
:105660004FF0000A6FF0030B049B1CAA02EB8305AA
:1056700044AB029A904540F39780134608AA02EB88
:1056800083030793639B029F03EB84030693BA464D
:105690004FF0874858AB03EB870353F8504C07ADE6
:1056A0000DF58879BAF1000F00F38180314620466C
:1056B00000F01AFC4FF078510446FBF743FB00F072
:1056C000D3FB4FF08241FBF73DFB01462046FBF741
:1056D0002FFA0446FBF712FD8146FBF7DFFA01467D
:1056E0002046FBF725FA002E04467EDD7B1E08AA25
:1056F00052F82350C6F1080245FA02F08144904066
:105700002D1A08AAC6F1070042F823500541002DC2
:1057100079DD0022904609F10109974200F3AE803D
:10572000002E05DD012E00F0C080022E00F0C780A3
:10573000022D68D121464FF07E50FBF7F9F904465F
:10574000B8F1000F5FD031464FF07E5000F0CCFB37
:1057500001462046FBF7ECF9044654E0EF4207D43B
:1057600059F82500FBF79AFA4BF82500013573E745
:105770005046F9E70BFB07520693059B52F8040CC1
:1057800053F82710FBF7DEFA01464846FBF7D2F93B
:105790008146069B0137039A9742EBDD43F8289038
:1057A000043508F1010864E7D1460027F3E74FF01C
:1057B0006E512046FBF7C6FAFBF7A0FCFBF76EFA2A
:1057C00041468346FBF7BEFA01462046FBF7B0F997
:1057D000FBF794FC0AF1FF3A45F8040F59F82A1038
:1057E0005846FBF7A7F904465CE705D17B1E08AADB
:1057F00052F823502D128AE74FF07C51FBF754FCEE
:10580000002839D1054600212046FBF72FFC00284F
:1058100000F0A0807C1E2346002202998B4255DABC
:10582000002A7ED008AB53F82430083E002B00F04D
:105830008F8031464FF07E5000F056FBA0468246E6
:105840004FF06E5644AFB8F1000F80F2B5804FF0C4
:10585000000A0023A600354A3744A4EB0A010029B8
:1058600080F2DB80629B032B00F2FF80DFE813F005
:10587000020120012001D90002254AE708AB53F8B4
:105880002230B8F1000F09D12BB1C3F5807308A9FC
:1058900041F822300123013298463EE7C3F1FF036D
:1058A00008A941F822304346F5E77A1E08AB53F8C1
:1058B000223003F07F0308A941F8223038E77A1E2E
:1058C00008AB53F8223003F03F03F4E708A951F87E
:1058D0002310013B0A43A0E7013352F8041D0029BD
:1058E000FAD06FF00308049A7D1CBC181CAA02EBC6
:1058F00084041F440DF58879AF42FFF6C8AE069BBD
:105900004FF0000A53F82500FBF7C8F94FF0000BE1
:105910002060039B9A450BDD49F825B0043401351E
:10592000EAE7079A0123D8E708990008DC980008FD
:1059300008FB0AF3059AE05852F82A10FBF702FA1E
:1059400001465846FBF7F6F80AF1010A8346E0E7FC
:10595000013C67E77142204600F0C6FA4FF08741EC
:105960000446FBF7A1FBF8B14FF06E512046FBF760
:10597000E9F9FBF7C3FBFBF791F94FF0874180464C
:10598000FBF7E0F901462046FBF7D2F8FBF7B6FB40
:1059900008AB43F827004046FBF7B0FB7C1C08AB84
:1059A000083643F8240044E72046FBF7A7FB08AB82
:1059B00043F827003C463CE708AB53F82800FBF7C8
:1059C0006DF95146FBF7BEF9314647F828005046BD
:1059D000FBF7B8F908F1FF38824634E752F828009F
:1059E00057F8281004930392FBF7ACF90146584688
:1059F000FBF7A0F8DDE90323834608F101080299CB
:105A0000884501DCC245E9DA58A901EB8A0141F871
:105A1000A0BC0AF1010A043F1FE79B464FF00008B3
:105A2000EDE70DF1C00A56443746A046B8F1000F25
:105A30004ADC2746012F60DC0020012C74DC309A00
:105A4000319B002D76D101990A600A464B60906027
:105A50000BE056F82410FBF76DF8013C002CF8DA47
:105A60000DB100F10040019B186009F0070059B02A
:105A7000BDE8F08F002030AEF0E757F82610FBF7B6
:105A800059F8013E002EF8DAB5B100F10043019A51
:105A900058AF0146136057F8A00DFBF749F80126EF
:105AA000B4420BDA0DB100F10040019B5860DCE715
:105AB0002646002030AFE5E70346E8E757F8261012
:105AC000FBF738F80136EBE757F8042D08F1FF38FB
:105AD0007B681046194603930292FBF72BF8029A53
