:020000040800F2
:1000000000500020C1470008554700085747000826
:10001000594700085B4700085D47000800000000E2
:100020000000000000000000000000005F47000822
:1000300061470008000000006347000865470008AA
:10004000094800080948000809480008094800084C
:10005000094800080948000809480008094800083C
:10006000094800080948000809480008094800082C
:10007000094800080948000809480008094800081C
:10008000094800080948000809480008094800080C
:1000900009480008094800080948000809480008FC
:1000A00009480008094800080948000809480008EC
:1000B0003D3E0008094800080948000809480008B2
:1000C00009480008094800080948000809480008CC
:1000D000094800086947000809480008094800085D
:1000E0000948000809480008094800080000000005
:1000F0000000000000000000000000000000000000
:0C01000000000000000000005FF808F1A3
:10010C0010B5054C237833B9044B13B10448AFF345
:10011C0000800123237010BD1C050020000000008E
:10012C005867000808B5034B1BB103490348AFF3EC
:10013C00008008BD00000000200500205867000862
:10014C0010F8012B11F8013B012A28BF9A42F7D075
:10015C00D01A704781F0004102E000BF83F00043E9
:10016C0030B54FEA41044FEA430594EA050F08BF46
:10017C0090EA020F1FBF54EA000C55EA020C7FEA0A
:10018C00645C7FEA655C00F0E2804FEA5454D4EB87
:10019C005555B8BF6D420CDD2C4480EA020281EA51
:1001AC00030382EA000083EA010180EA020281EA89
:1001BC000303362D88BF30BD11F0004F4FEA0131DB
:1001CC004FF4801C4CEA113102D0404261EB4101EA
:1001DC0013F0004F4FEA03334CEA133302D0524270
:1001EC0063EB430394EA050F00F0A780A4F101042C
:1001FC00D5F1200E0DDB02FA0EFC22FA05F2801866
:10020C0041F1000103FA0EF2801843FA05F359414B
:10021C000EE0A5F120050EF1200E012A03FA0EFCCA
:10022C0028BF4CF0020C43FA05F3C01851EBE371F4
:10023C0001F0004507D54FF0000EDCF1000C7EEB11
:10024C0000006EEB0101B1F5801F1BD3B1F5001F4F
:10025C000CD349085FEA30004FEA3C0C04F101046E
:10026C004FEA445212F5800F80F09A80BCF1004F97
:10027C0008BF5FEA500C50F1000041EB045141EA19
:10028C00050130BD5FEA4C0C404141EB010111F41A
:10029C00801FA4F10104E9D191F0000F04BF0146C5
:1002AC000020B1FA81F308BF2033A3F10B03B3F1A3
:1002BC0020020CDA0C3208DD02F1140CC2F10C0233
:1002CC0001FA0CF021FA02F10CE002F11402D8BF91
:1002DC00C2F1200C01FA02F120FA0CFCDCBF41EA5D
:1002EC000C019040E41AA2BF01EB0451294330BD2C
:1002FC006FEA04041F3C1CDA0C340EDC04F1140409
:10030C00C4F1200220FA04F001FA02F340EA0300DF
:10031C0021FA04F345EA030130BDC4F10C04C4F125
:10032C00200220FA02F001FA04F340EA0300294605
:10033C0030BD21FA04F0294630BD94F0000F83F44F
:10034C00801306BF81F480110134013D4EE77FEA32
:10035C00645C18BF7FEA655C29D094EA050F08BF7E
:10036C0090EA020F05D054EA000C04BF194610465F
:10037C0030BD91EA030F1EBF0021002030BD5FEAA3
:10038C00545C05D14000494128BF41F0004130BDCB
:10039C0014F580043CBF01F5801130BD01F000451F
:1003AC0045F0FE4141F470014FF0000030BD7FEA92
:1003BC00645C1ABF194610467FEA655C1CBF0B468D
:1003CC00024650EA013406BF52EA033591EA030FA4
:1003DC0041F4002130BD00BF90F0000F04BF00219C
:1003EC00704730B54FF4806404F132044FF00005CF
:1003FC004FF0000150E700BF90F0000F04BF002148
:10040C00704730B54FF4806404F1320410F00045AD
:10041C0048BF40424FF000013EE700BF42004FEAA8
:10042C00E2014FEA31014FEA02701FBF12F07F4325
:10043C0093F07F4F81F06051704792F0000F14BF22
:10044C0093F07F4F704730B54FF4607401F0004566
:10045C0021F0004120E700BF50EA010208BF7047BD
:10046C0030B54FF000050AE050EA010208BF7047B2
:10047C0030B511F0004502D5404261EB41014FF41B
:10048C00806404F132045FEA915C3FF4DCAE4FF01F
:10049C0003025FEADC0C18BF03325FEADC0C18BF06
:1004AC00033202EBDC02C2F1200300FA03FC20FA57
:1004BC0002F001FA03FE40EA0E0021FA02F11444A4
:1004CC00C1E600BF70B54FF0FF0C4CF4E06C1CEAB9
:1004DC0011541DBF1CEA135594EA0C0F95EA0C0F2E
:1004EC0000F0DEF82C4481EA030621EA4C5123EAA1
:1004FC004C5350EA013518BF52EA033541F48011D0
:10050C0043F4801338D0A0FB02CE4FF00005E1FB82
:10051C0002E506F00042E0FB03E54FF00006E1FBCC
:10052C0003569CF0000F18BF4EF0010EA4F1FF040F
:10053C00B6F5007F64F5407404D25FEA4E0E6D414F
:10054C0046EB060642EAC62141EA55514FEAC52060
:10055C0040EA5E504FEACE2EB4F1FD0C88BFBCF5DC
:10056C00E06F1ED8BEF1004F08BF5FEA500E50F18D
:10057C00000041EB045170BD06F0004646EA010153
:10058C0040EA020081EA0301B4EB5C04C2BFD4EB85
:10059C000C0541EA045170BD41F480114FF0000E7E
:1005AC00013C00F3AB8014F1360FDEBF002001F0EC
:1005BC00004170BDC4F10004203C35DA0C341BDC66
:1005CC0004F11404C4F1200500FA05F320FA04F038
:1005DC0001FA05F240EA020001F0004221F000416C
:1005EC0010EBD37021FA04F642EB06015EEA430EDF
:1005FC0008BF20EAD37070BDC4F10C04C4F120050F
:10060C0000FA04F320FA05F001FA04F240EA0200C1
:10061C0001F0004110EBD37041F100015EEA430E92
:10062C0008BF20EAD37070BDC4F1200500FA05F2B2
:10063C004EEA020E20FA04F301FA05F243EA020331
:10064C0021FA04F001F0004121FA04F220EA020040
:10065C0000EBD3705EEA430E08BF20EAD37070BD86
:10066C0094F0000F0FD101F00046400041EB010166
:10067C0011F4801F08BF013CF7D041EA060195F048
:10068C00000F18BF704703F00046520043EB030302
:10069C0013F4801F08BF013DF7D043EA06037047EF
:1006AC0094EA0C0F0CEA135518BF95EA0C0F0CD0FA
:1006BC0050EA410618BF52EA4306D1D181EA030140
:1006CC0001F000414FF0000070BD50EA410606BF3A
:1006DC001046194652EA430619D094EA0C0F02D17F
:1006EC0050EA013613D195EA0C0F05D152EA0336C4
:1006FC001CBF104619460AD181EA030101F00041E2
:10070C0041F0FE4141F470014FF0000070BD41F02A
:10071C00FE4141F4780170BD70B54FF0FF0C4CF404
:10072C00E06C1CEA11541DBF1CEA135594EA0C0F23
:10073C0095EA0C0F00F0A7F8A4EB050481EA030E70
:10074C0052EA03354FEA013100F088804FEA033357
:10075C004FF0805545EA131343EA12634FEA022225
:10076C0045EA111545EA10654FEA00260EF00041E6
:10077C009D4208BF964244F1FD0404F5407402D238
:10078C005B084FEA3202B61A65EB03055B084FEAC9
:10079C0032024FF480104FF4002CB6EB020E75EBC6
:1007AC00030E22BFB61A754640EA0C005B084FEAEE
:1007BC003202B6EB020E75EB030E22BFB61A75466B
:1007CC0040EA5C005B084FEA3202B6EB020E75EBB6
:1007DC00030E22BFB61A754640EA9C005B084FEA2E
:1007EC003202B6EB020E75EB030E22BFB61A75463B
:1007FC0040EADC0055EA060E18D04FEA051545EA2A
:10080C0016754FEA06164FEAC30343EA52734FEAD2
:10081C00C2025FEA1C1CC0D111F4801F0BD141EA4B
:10082C0000014FF000004FF0004CB6E711F4801FB0
:10083C0004BF01430020B4F1FD0C88BFBCF5E06F90
:10084C003FF6AFAEB5EB030C04BFB6EB020C5FEAA0
:10085C00500C50F1000041EB045170BD0EF0004EF5
:10086C004EEA113114EB5C04C2BFD4EB0C0541EA27
:10087C00045170BD41F480114FF0000E013C90E624
:10088C0045EA060E8DE60CEA135594EA0C0F08BFE8
:10089C0095EA0C0F3FF43BAF94EA0C0F0AD150EAE7
:1008AC0001347FF434AF95EA0C0F7FF425AF10467A
:1008BC0019462CE795EA0C0F06D152EA03353FF4A2
:1008CC00FDAE1046194622E750EA410618BF52EA1F
:1008DC0043067FF4C5AE50EA41047FF40DAF52EAF3
:1008EC0043057FF4EBAE12E74FF0FF3C06E000BF90
:1008FC004FF0010C02E000BF4FF0010C4DF804CD9D
:10090C004FEA410C7FEA6C5C4FEA430C18BF7FEA5C
:10091C006C5C1BD001B050EA410C0CBF52EA430C8A
:10092C0091EA030F02BF90EA020F0020704710F10A
:10093C00000F91EA030F58BF994208BF90422CBF99
:10094C00D8176FEAE37040F0010070474FEA410C92
:10095C007FEA6C5C02D150EA013C07D14FEA430CB0
:10096C007FEA6C5CD6D152EA033CD3D05DF8040B21
:10097C00704700BF8446104662468C461946634653
:10098C0000E000BF01B5FFF7B7FF002848BF10F12A
:10099C00000F01BD4DF808EDFFF7F4FF0CBF01206F
:1009AC0000205DF808FB00BF4DF808EDFFF7EAFFEB
:1009BC0034BF012000205DF808FB00BF4DF808EDA6
:1009CC00FFF7E0FF94BF012000205DF808FB00BF9B
:1009DC004DF808EDFFF7CEFF94BF012000205DF825
:1009EC0008FB00BF4DF808EDFFF7C4FF34BF012032
:1009FC0000205DF808FB00BF4FEA4102B2F1E04372
:100A0C0024BFB3F5001CDCF1FE5C0DD901F0004CE9
:100A1C004FEAC0024CEA5070B2F1004F40EB830039
:100A2C0008BF20F00100704711F0804F21D113F165
:100A3C003872BCBF01F00040704741F480114FEA9E
:100A4C005252C2F11802C2F1200C10FA0CF320FA27
:100A5C0002F018BF40F001004FEAC1234FEAD32344
:100A6C0003FA0CFC40EA0C0023FA02F34FEA4303AE
:100A7C00CCE77FEA625307D150EA01331EBF4FF037
:100A8C00FE4040F44000704701F0004040F0FE4052
:100A9C0040F40000704700BF80F0004002E000BF4F
:100AAC0081F0004142001FBF5FEA410392EA030F4D
:100ABC007FEA226C7FEA236C6AD04FEA1262D2EB97
:100ACC001363C1BFD218414048404140B8BF5B429C
:100ADC00192B88BF704710F0004F40F4000020F035
:100AEC007F4018BF404211F0004F41F4000121F04B
:100AFC007F4118BF494292EA030F3FD0A2F1010295
:100B0C0041FA03FC10EB0C00C3F1200301FA03F1D2
:100B1C0000F0004302D5494260EB4000B0F5000FF5
:100B2C0013D3B0F1807F06D340084FEA310102F1B4
:100B3C000102FE2A51D2B1F1004F40EBC25008BF66
:100B4C0020F0010040EA03007047490040EB000030
:100B5C0010F4000FA2F10102EDD1B0FA80FCACF15F
:100B6C00080CB2EB0C0200FA0CF0AABF00EBC2505E
:100B7C0052421843BCBFD0401843704792F0000F4C
:100B8C0081F4000106BF80F400000132013BB5E79F
:100B9C004FEA41037FEA226C18BF7FEA236C21D015
:100BAC0092EA030F04D092F0000F08BF084670477A
:100BBC0090EA010F1CBF0020704712F07F4F04D148
:100BCC00400028BF40F00040704712F100723CBF5B
:100BDC0000F50000704700F0004343F0FE4040F485
:100BEC00000070477FEA226216BF08467FEA236343
:100BFC000146420206BF5FEA412390EA010F40F42E
:100C0C00800070474FF0000304E000BF10F0004379
:100C1C0048BF40425FEA000C08BF704743F0964360
:100C2C0001464FF000001CE050EA010208BF70477B
:100C3C004FF000030AE000BF50EA010208BF704702
:100C4C0011F0004302D5404261EB41015FEA010C17
:100C5C0002BF84460146002043F0B64308BFA3F10F
:100C6C008053A3F50003BCFA8CF2083AA3EBC253F1
:100C7C0010DB01FA02FC634400FA02FCC2F1200210
:100C8C00BCF1004F20FA02F243EB020008BF20F047
:100C9C000100704702F1200201FA02FCC2F12002AD
:100CAC0050EA4C0021FA02F243EB020008BF20EAA2
:100CBC00DC7070474FF0FF0C1CEAD0521EBF1CEAD0
:100CCC00D15392EA0C0F93EA0C0F6FD01A4480EABE
:100CDC00010C400218BF5FEA41211ED04FF00063A7
:100CEC0043EA501043EA5111A0FB01310CF00040D3
:100CFC00B1F5000F3EBF490041EAD3715B0040EAF9
:100D0C00010062F17F02FD2A1DD8B3F1004F40EBC8
:100D1C00C25008BF20F00100704790F0000F0CF09B
:100D2C00004C08BF49024CEA502040EA51207F3A5F
:100D3C00C2BFD2F1FF0340EAC250704740F400003A
:100D4C004FF00003013A5DDC12F1190FDCBF00F02B
:100D5C0000407047C2F10002410021FA02F1C2F1D9
:100D6C00200200FA02FC5FEA310040F1000053EA75
:100D7C004C0308BF20EADC70704792F0000F00F0C3
:100D8C00004C02BF400010F4000F013AF9D040EAC9
:100D9C000C0093F0000F01F0004C02BF490011F45D
:100DAC00000F013BF9D041EA0C018FE70CEAD1535B
:100DBC0092EA0C0F18BF93EA0C0F0AD030F0004CDB
:100DCC0018BF31F0004CD8D180EA010000F000408F
:100DDC00704790F0000F17BF90F0004F084691F04D
:100DEC00000F91F0004F14D092EA0C0F01D1420287
:100DFC000FD193EA0C0F03D14B0218BF084608D150
:100E0C0080EA010000F0004040F0FE4040F4000099
:100E1C00704740F0FE4040F4400070474FF0FF0C2C
:100E2C001CEAD0521EBF1CEAD15392EA0C0F93EA73
:100E3C000C0F69D0A2EB030280EA010C49024FEAC5
:100E4C00402037D04FF0805343EA111143EA10137E
:100E5C000CF000408B4238BF5B0042F17D024FF436
:100E6C00000C8B4224BF5B1A40EA0C00B3EB510F11
:100E7C0024BFA3EB510340EA5C00B3EB910F24BFFA
:100E8C00A3EB910340EA9C00B3EBD10F24BFA3EB7F
:100E9C00D10340EADC001B0118BF5FEA1C1CE0D147
:100EAC00FD2A3FF650AF8B4240EBC25008BF20F0FA
:100EBC00010070470CF0004C4CEA50207F32C2BF4E
:100ECC00D2F1FF0340EAC250704740F400004FF0EB
:100EDC000003013A37E792F0000F00F0004C02BF1C
:100EEC00400010F4000F013AF9D040EA0C0093F0E6
:100EFC00000F01F0004C02BF490011F4000F013B40
:100F0C00F9D041EA0C0195E70CEAD15392EA0C0FA7
:100F1C0008D142027FF47DAF93EA0C0F7FF470AFDF
:100F2C00084676E793EA0C0F04D14B023FF44CAF22
:100F3C0008466EE730F0004C18BF31F0004CCAD1B7
:100F4C0030F000427FF45CAF31F000437FF43CAFF3
:100F5C005FE700BF4FF0FF3C06E000BF4FF0010C15
:100F6C0002E000BF4FF0010C4DF804CD4FEA4002F7
:100F7C004FEA41037FEA226C18BF7FEA236C11D041
:100F8C0001B052EA530C18BF90EA010F58BFB2EBF4
:100F9C00030088BFC81738BF6FEAE17018BF40F074
:100FAC00010070477FEA226C02D15FEA402C05D128
:100FBC007FEA236CE4D15FEA412CE1D05DF8040BAD
:100FCC00704700BF844608466146FFE70FB5FFF740
:100FDC00C9FF002848BF10F1000F0FBD4DF808EDF8
:100FEC00FFF7F4FF0CBF012000205DF808FB00BFE9
:100FFC004DF808EDFFF7EAFF34BF012000205DF843
:10100C0008FB00BF4DF808EDFFF7E0FF94BF01208F
:10101C0000205DF808FB00BF4DF808EDFFF7D2FF8C
:10102C0094BF012000205DF808FB00BF4DF808EDCF
:10103C00FFF7C8FF34BF012000205DF808FB00BF9C
:10104C004FEA40024FEA41037FEA226C02D15FEA89
:10105C00402C08D17FEA236C02D15FEA412C02D1EB
:10106C004FF0000070474FF0010070474FEA40020C
:10107C00B2F1FE4F0FD34FF09E03B3EB12620DD9BA
:10108C004FEA002343F0004310F0004F23FA02F024
:10109C0018BF404270474FF00000704712F1610FCB
:1010AC0001D1420205D110F0004008BF6FF00040A2
:1010BC0070474FF00000704703685A004CBF43F074
:1010CC00004323F000431844704700BF61B32DE97F
:1010DC00F84F01F1FF3A90460646D146002707EB40
:1010EC00090404EBD4746410E50071190846FFF789
:1010FC00E3FFA245834605F10800304409D0FFF711
:10110C00DBFFC34500F1FF3005D8404509D2671C11
:10111C00E5E7C34505D9A74202D004F1FF39DEE764
:10112C0000210846BDE8F88F08467047012807D013
:10113C00022807D0044B00280CBF1846002070472B
:10114C000248704702487047491800084D180008BB
:10115C005118000830B5254B83B004468D1E73B36F
:10116C0001A92846AFF3008018B301992A46FFF76E
:10117C00ADFF0146E8B1FFF79FFF4B68A064012B60
:10118C0011D0002B22DB081DFFF796FF0023E06433
:10119C0023650368002B1EDBFFF78EFF0023206105
:1011AC00184603B030BD052300221846226103B057
:1011BC0030BD092300221846226103B030BD0C4B10
:1011CC000C491846C91AC9100191CFE70123081D13
:1011DC00E0642365DDE7C3F30360FFF7A7FF002896
:1011EC00206114BF00230923DAE700BF00000000D0
:1011FC008C6D0008146F0008036810B5DA070446FC
:10120C0006D49B0700F1480009D500F057FC236871
:10121C00590709D51A070ED5DB0613D510BD00F0FA
:10122C0045FC23685907F5D404F1D00000F04EFCBE
:10123C0023681A07F0D404F5A87000F04FFC23685B
:10124C00DB06EBD404F5E870BDE8104000F08ABC76
:10125C00036803B103441846704700BF0920704768
:10126C00704700BF70B504460D4608E02A6C236930
:10127C00626121462A4601209847082808D1296C2A
:10128C002046FFF767FF06460028EFD004F068FE03
:10129C000728FBD13046296CFFF7E2FF281D00F030
:1012AC00F9FB00BF2DE9F04705460027ADF5727D2F
:1012BC0003AC0E1D92460FCE0FC40FCE0FC40FCE33
:1012CC000FC496E80F00D5F80C80D5F8189084E878
:1012DC000F0002AC2846216C2760FFF73BFFBAF1E8
:1012EC00000F074614BF0A2609267FB1A36B46F0F0
:1012FC0010018DE810022A46636401202B46C0477A
:10130C0078BB38460DF5727DBDE8F087236C4FF441
:10131C00F0726B6121467AA805F0ECF92B697AAA78
:10132C00294630469847889B82468DE81002314604
:10133C0063642A462B460120C04790B94FF4F072E3
:10134C007AA9204605F0D6F9BAF1080F06D1216C1E
:10135C002846FFF7FFFE09260746C6E7BAF1070F36
:10136C0005D0092738460DF5727DBDE8F087384663
:10137C00216CFFF775FF03A800F08CFB406C7047E5
:10138C00F0B54FF0FF3ECB6BF9B00B640E1D01AD09
:10139C000F4604460FCE0FC50FCE0FC50FCE0FC58F
:1013AC0096E80F0085E80F00CDF800E006E0236911
:1013BC006A46214698470828054608D110992046C8
:1013CC00FFF7C8FE0028F2D0092079B0F0BD6846BE
:1013DC00FFF712FF062DF7D139462046FFF742FFE3
:1013EC0030B4DD6BC160826119461D64002230BCD3
:1013FC0058E700BF70B54369C6680B6426B101227B
:10140C00FFF750FF04F0ACFD03690A4604460D4695
:10141C00014602209847072807D0082803D12946FF
:10142C002046FFF71FFF04F09BFD3046296CFFF7A9
:10143C0017FF281D00F02EFBC2682AB110B4CC6B2C
:10144C0000220C6410BC2DE79AE700BF704700BF68
:10145C00836813B1014601201847704700B5042971
:10146C0007D8DFE801F00309060909000BB90F2AB8
:10147C0005D902205DF804FB01205DF804FB00EBAC
:10148C00820252681846019B1A605DF804FB00BF8B
:10149C00002310B584B003AC0A4600941946FFF73C
:1014AC00DDFF039804B010BD00B5042907D8DFE8B0
:1014BC0001F00309060909000BB90F2A05D902200E
:1014CC005DF804FB01205DF804FB019900EB82023E
:1014DC000968184651605DF804FB00BF002310B585
:1014EC0084B004AC44F8042D00940A461946FFF766
:1014FC00DBFF04B010BD00BFF0B54FF0FF3ED36B67
:10150C00ADF50F7D1364151D17AC07460E460FCDB8
:10151C000FC40FCD0FC40FCD0FC495E80F0084E896
:10152C000F00CDF858E012E00C2116A86A46FFF720
:10153C00D5FF314616A8B84778B9049B16AA694658
:10154C00082098470528044608D0092805D0269974
:10155C006846FFF7FFFD0028E6D0092416A8FFF720
:10156C004BFE20460DF50F7DF0BD00BF2DE9F04F71
:10157C00CC6C914622688BB004340D4607920894CB
:10158C0000F0030B1E46002B60D1032312020792BE
:10159C008DF825608DF824302B6DBBF1020F08BF40
:1015AC00AC6B13F0010340D1019300F008030393DB
:1015BC00D4F80080B8F1000F39D0022E43D0B4F823
:1015CC00008067880434AB6C27F0010A0F21484671
:1015DC009A44FFF75DFF824533D828F001039A4403
:1015EC0050452CBF002001207F0007F0020708F0B7
:1015FC00010847EA0807012F3ED035D3022F1CD132
:10160C00236823F000420292BBF1000F76D128B17F
:10161C00039900297ED0002A00F0A680002B77DBEE
:10162C00029B013304EB8304C2E700230193022ED7
:10163C003EDDFFF713FE002840D009200BB0BDE8BB
:10164C00F08F0020D0E767680834BCE7022BA3DCDE
:10165C000221130C8DF825301204DBB204EB830449
:10166C0007928DF8241097E7BBF1000F02D00028E9
:10167C0040F0BD8004349BE7BBF1000F25D1A8B12D
:10168C0094E80C00991C4FEAD272D6D005F158019F
:10169C000133069100F0A380201DFFF7D9FD06ABA6
:1016AC000146284603F0E0F8002877D108347FE79C
:1016BC0007A9484600F0F0FA0028BED1019B002B88
:1016CC005CD108200BB0BDE8F08F0D2148462F6A85
:1016DC00FFF7DEFE8742E9D1AB6A9C42E6D1204699
:1016EC00FFF7EAFC0F2102464846FFF7F7FE484693
:1016FC002A460021FFF7F2FE07209FE70D214846FE
:10170C002F6AFFF7C5FE874258D02368002B87DA73
:10171C00043485E7029B3BB305F15803271DCDF834
:10172C0010B0DDF80C80A346DDF808A01C46059629
:10173C0002E0B245B04616D038460694FFF788FD55
:10174C0006AB01460022284603F08EF808F101068C
:10175C0004370028EDD0029B5C464345DDF810B001
:10176C00059ED2D100E05C4648460D21FFF790FE65
:10177C00069B2862AC626B6206205FE70F2148462D
:10178C00FFF786FE0E2102464846FFF7A7FE4846A5
:10179C00294A0F21FFF7A2FE07204FE707460D212C
:1017AC004846FFF775FE022F28621DD12B46069A7C
:1017BC0043F82C2F6B62AC6206203FE7AB6A9C426D
:1017CC00A3D1042200270299A318A962EF622A630D
:1017DC006B632368BB421DDB0123019320E7484662
:1017EC000D21FFF755FE2862069B6B62E3E720464E
:1017FC00FFF762FC04340646AC63284603F092F80B
:10180C0000283FF41AAF484632460F21FFF766FE18
:10181C00072013E70846013004EB8000FFF74CFC6F
:10182C000F2102464846FFF759FE48462A463946DC
:10183C00FFF754FE072001E737500008002395E618
:10184C00012393E6022391E6F0B50446C5B00429C2
:10185C000DD8DFE801F055030C310F00012B4FEAD6
:10186C00124695B264D17219102A40F29D80022062
:10187C0045B0F0BD002BFAD1102AF8D82368D80651
:10188C0000F1C88022AE30460192012500F074F9B7
:10189C000023A06B019A05FA03F1114203D00168F1
:1018AC00043046F823100133042BF4D1A0633046E6
:1018BC0000F058F90020DBE7032BD8D1150C97B2B8
:1018CC00EB19102BD3D823681E0700F1B78022AE7A
:1018DC00304600F025F9ED00A06B5FB1043D0346E6
:1018EC00711900EBC70053F8042B834241F8042F05
:1018FC00F9D11846A063304600F0F0F80020B7E7A5
:10190C00002BB4D10127A56B96B2201D07FA03F169
:10191C00314203F1010302D0296804350160102B18
:10192C0000F10400F2D112F400503BD1A5639FE703
:10193C00052B9CD17719202F99D80F2E66D92F46BD
:10194C00002D3AD12A460027002AA06B72DD00EB4D
:10195C00C202014644A800EBC6008C3851F8045B67
:10196C00914240F8045FF9D1084697B1102E3246E7
:10197C0038BF102244A901EBC202A2F5C47279004F
:10198C00043A00EB810150F8045B884242F8045F92
:10199C00F9D1012B48D00F2EA16333D917B102A86E
:1019AC0000F094F8002063E70F2E3FF660AF00279D
:1019BC002268D10717D4002F60D02268510745D474
:1019CC00012B4DD00F2E06D822A8019300F07AF8E7
:1019DC00019B002FB6D002A8019300F07BF8019B6D
:1019EC00C6F11002B0E722F00101052B2160019332
:1019FC0020463BD022F0030240F8482B00F05AF866
:101A0C00019BD8E722A800F059F8C7E7102FCED9D0
:101A1C00103FCDE723F01003236004F5E87001922A
:101A2C0000F0AAF8019A2DE70431A16322A800F076
:101A3C003DF8B7E7002F99D10146AAE723F0080338
:101A4C00236004F5A87000F06BF840E7204622F004
:101A5C00040240F8D02B019300F03CF8019BAFE757
:101A6C0022A8019300F026F8019BB9E741F002018E
:101A7C0040F8481B00F026F8019B9CE7012B03D093
:101A8C000F2E3FF65FAF9FE722A8019300F012F8EC
:101A9C00019B57E700F1340191E838009C46A646BB
:101AAC004CF8045D90E8FF0FE54600BD90EC210B6F
:101ABC00704700BF80EC210B704700BF90EC200BEF
:101ACC00704700BF80EC200B704700BFD0EC200BA0
:101ADC00704700BFC0EC200B704700BFF0EC020158
:101AEC00F0EC0211F0EC0221F0EC0231F0EC0241CE
:101AFC00F0EC0251F0EC0261F0EC0271F0EC0281BE
:101B0C00F0EC0291F0EC02A1F0EC02B1F0EC02C1AD
:101B1C00F0EC02D1F0EC02E1F0EC02F1704700BF06
:101B2C00E0EC0201E0EC0211E0EC0221E0EC02310D
:101B3C00E0EC0241E0EC0251E0EC0261E0EC0271FD
:101B4C00E0EC0281E0EC0291E0EC02A1E0EC02B1ED
:101B5C00E0EC02C1E0EC02D1E0EC02E1E0EC02F1DD
:101B6C00704700BFB0FC0181B0FC0191B0FC01A139
:101B7C00B0FC01B1704700BFA0FC0181A0FC019139
:101B8C00A0FC01A1A0FC01B1704700BFEC4600B560
:101B9C002DE900502DE9FF1F4FF000032DE90C003B
:101BAC0001A9FFF7EDFBDDF840E012B0704700BF74
:101BBC00EC4600B52DE900502DE9FF1F4FF0000356
:101BCC002DE90C0001A9FFF715FCDDF840E012B07F
:101BDC00704700BFEC4600B52DE900502DE9FF1F02
:101BEC004FF000032DE90C0001A9FFF725FCDDF8EF
:101BFC0040E012B0704700BFEC4600B52DE9005034
:101C0C002DE9FF1F4FF000032DE90C0001ABFFF78E
:101C1C00E7FBDDF840E012B0704700BFEC4600B5C2
:101C2C002DE900502DE9FF1F4FF000032DE90C00AA
:101C3C0001AAFFF761FCDDF840E012B0704700BF6D
:101C4C00027A1AB9437A43B9B02070470368013A53
:101C5C0002721A020260180E704703214268013B9F
:101C6C0010B443721368141D01721A0244600260AE
:101C7C0010BC180E704700BF002300B585B003AA36
:101C8C00009219460C22FFF7E9FB039805B05DF8AA
:101C9C0004FB00BFF0E700BF2DE9F04306460F46FA
:101CAC004FF0000885B03846FFF7CAFFB02804464D
:101CBC0023D0050627D400230DF10C091946850005
:101CCC000D22CDF800903046FFF7C8FBEDB2039B18
:101CDC00600605F104054CBF5D1BED1800230D22B9
:101CEC001946CDF8009030460395FFF7DDFB3846DA
:101CFC00FFF7A6FFB0280446DBD1B8F1000F00F0C7
:101D0C00948000201CE000F0F003802B5CD0902B22
:101D1C0019D0A02B2CD0B02B3ED0C02B6BD000F008
:101D2C00F803D02B0BD100F00702013242F4002251
:101D3C00052301213046FFF787FD0028B3D0092089
:101D4C0005B0BDE8F08300F00D030D2BF7D0002398
:101D5C0003AD00F00F02194600953046FFF77EFBED
:101D6C000023009519460D223046FFF79DFB9AE79C
:101D7C00C3434FF47F6203F007031A4100230107AA
:101D8C0002F47F6248BF42F4804219463046FFF7A6
:101D9C005BFD0028D3D186E7B12857D0B22868D094
:101DAC00B32800F0958000F0FC03B42BC7D00123BE
:101DBC0000F007021A4442F4002219463046FFF79D
:101DCC0043FD0028BBD16EE73846FFF739FF2402EC
:101DDC000443B4F5004FB2D000232401A2B219463B
:101DEC003046FFF731FD0028A9D114F4004F18BF7D
:101DFC004FF0010857E7C6287DD0C72800F0868031
:101E0C0000F0F803C02B00F09480C82800F09F80ED
:101E1C00C92894D13846FFF713FF020300F00F00D6
:101E2C0002F470220130024382E703AC43460E22D7
:101E3C00414600943046FFF711FB00943046434670
:101E4C000F224146FFF730FB404679E73846FFF753
:101E5C00F7FE00283FF473AF10F0F0037FF46FAF80
:101E6C00024619463046FFF7EFFC00287FF467AFB7
:101E7C0019E700230DF10C090D221946CDF800903D
:101E8C003046FFF7EBFA3846FFF7DAFE02064FF062
:101E9C0002040CD5039B00F07F00A040034438469D
:101EAC000393FFF7CDFE030604F10704F2D40023DD
:101EBC00039900F07F02A24001F501718C18CDF856
:101ECC00009019460D2230460394FFF7EDFAEAE62E
:101EDC003846FFF7B5FE0123010300F00F0001F4B3
:101EEC007021C2180A4330461946FFF7ADFC002892
:101EFC007FF425AFD7E63846FFF7A2FE010300F0CA
:101F0C000F00032301F47021421CEBE73846FFF766
:101F1C0097FE00283FF413AF10F0F0037FF40FAFDF
:101F2C00024604213046FFF78FFC00287FF407AFF0
:101F3C00B9E6032300F00F02013242F420221946C5
:101F4C003046FFF781FC00287FF4F9AEABE638464B
:101F5C00FFF776FE00F0F00200F00F0310320133B1
:101F6C0043EA0232E4E600BF30B503240D46C36CED
:101F7C0085B05A688DF80C40DC791202083301A93F
:101F8C00284601928DF80D400293FFF785FE05B0AF
:101F9C0030BD00BF08B5FFF77DFE806C08BD00BFEB
:101FAC0008B5FFF777FEC06CC37900EB83000830EF
:101FBC0008BD00BF08B503F0D3FF00BF08B5FFF79D
:101FCC00F9FF00BF38B50E4B054618784FF47A73FD
:101FDC00B3FBF0F30B4A1068B0FBF3F000F010FA0F
:101FEC00044658B90F2D09D8024629464FF0FF3048
:101FFC0000F0C6F9044B20461D6038BD012038BDE9
:10200C00000000200800002004000020074A08B54A
:10201C001368032043F01003136000F09FF90020B5
:10202C00FFF7D0FF02F036FA002008BD0020024076
:10203C00034A044B11681B780B441360704700BFB4
:10204C008C07002000000020014B1868704700BF6F
:10205C008C07002038B50446FFF7F6FF0546631CD5
:10206C001EBF044B1B78E418FFF7EEFF401B8442A5
:10207C00FAD838BD0000002038B5044600286ED0D0
:10208C0090F820300BB902F027FA2268136823F07D
:10209C0002031360FFF7D8FF054623685A689107BF
:1020AC0051D41A6842F001021A60FFF7CDFF0546C1
:1020BC0023685A68D20754D5227E0020012A1A6858
:1020CC000CBF42F0800222F080021A60627E012A6C
:1020DC001A680CBF42F0400222F040021A60A27E45
:1020EC00012A1A680CBF42F0200222F020021A606A
:1020FC00E27E012A1A680CBF22F0100242F0100294
:10210C001A60227F012A1A680CBF42F0080222F0E2
:10211C0008021A60627F012A1A680CBF42F004029E
:10212C0022F004021A60E168A2680A4321690A439A
:10213C0061690A43616801390A43DA61012360620B
:10214C0084F8203038BDFFF77FFF401B0A28A4D944
:10215C00636A43F400336362052384F82030012062
:10216C0038BDFFF771FF401B0A28A1D9F0E790F8A2
:10217C00203070B5013B012B5FD8012403684869FE
:10218C00D3F8002242F00102C3F8002200F01F0233
:10219C0004FA02F2D443D3F81C522540C3F81C5263
:1021AC00CD6985BBD3F80C52CE682540C3F80C52D0
:1021BC008D8803EBC00045EA0645C0F840528E6896
:1021CC000D8845EA0645C0F84452886968BBD3F8C7
:1021DC0004022040C3F80402086950BBD3F814026F
:1021EC002040C3F81402096A0020012902BFD3F869
:1021FC001C120A43C3F81C22D3F8002222F001025D
:10220C00C3F8002270BD012DDFD1D3F80C520E683B
:10221C001543C3F80C528D8803EBC00045EA064504
:10222C00C0F840528E688D89CBE7D3F80402104376
:10223C00D0E7D3F814021043D3E7436A43F4802366
:10224C004362012070BD38B590F820300446012B54
:10225C001FD10223026880F82030136823F0010399
:10226C001360FFF7F1FE05462368586810F0010073
:10227C0001D1606238BDFFF7E7FE401B0A28F3D995
:10228C00636A43F400336362052384F82030012031
:10229C0038BD436A43F400234362F8E7F0B590F885
:1022AC0020500668013D012DB46841D814F0E05F60
:1022BC003AD0C4F30164032C4FF0010505D1436AF5
:1022CC0043F4000343620120F0BDA5401D60886803
:1022DC00CF6804F1180310BB086847EA40501B0193
:1022EC00F05008692401097D3319C3F884010129D0
:1022FC0008BFD3F88411344404BF41F48071C3F88F
:10230C00841151680020C4F88C111268C4F888211B
:10231C00D3F8802142F00102C3F88021F0BD4D6852
:10232C00384340EAC500DAE7436A43F40013C9E7CF
:10233C00436A43F48023C5E790F82030013B012B1E
:10234C0005D8026800205369194351617047436AEC
:10235C0043F480234362012070470000074A0002C7
:10236C00D36800F4E06023F4E0631B041B0C43F01F
:10237C00BF6343F400330343D360704700ED00E0C8
:10238C00174B30B5DC68C4F30224C4F10703251DD8
:10239C00042B28BF0423062D4FF0010598BF002401
:1023AC0005FA03F303F1FF3388BF033C1940A14046
:1023BC0005FA04F4013C2240002842EA01024FEAEB
:1023CC000212AFBF00F16040064B00F00F00D2B21A
:1023DC00A5BFD2B200F561401A5480F8002330BD7D
:1023EC0000ED00E014ED00E00123420900F01F00B5
:1023FC0003FA00F0014B43F82200704700E100E0C3
:10240C000138B0F1807F0AD2F021064B064A5860A1
:10241C0082F823100020072298601A607047012070
:10242C00704700BF10E000E000ED00E090F82130B4
:10243C0010B5022B03D004238363012010BD036865
:10244C001A6822F00E021A601A6822F001021A6051
:10245C00184A93421FD0143293421ED01432934226
:10246C001DD0143293421DD0143293421DD014321D
:10247C0093420CBF4FF480134FF080730E4A00242C
:10248C005360012380F82130436B80F820407BB1EE
:10249C009847204610BD0123F0E71023EEE74FF4D8
:1024AC008073EBE74FF48053E8E74FF48033E5E7B4
:1024BC00184610BD08000240000002402DE9F74FFD
:1024CC0000221646654BDFF8A4E1DFF8A4C14FF0FB
:1024DC0001080C6808FA06F808EA0404A0457FD144
:1024EC004D68122D00F0AF8000F28880022D00F0B4
:1024FC00A7807CD8002D00F08E80012D00F09E80EE
:10250C004FF00F09FF2C93BF824606F18045083D22
:10251C00D0F800B092BFB500D0F804B0AD0009FA05
:10252C0005F82BEA080802FA05F588BF00F1040A41
:10253C0048EA0505CAF80050D1F804A01AF0805FEB
:10254C004ED0474D464FAD6926F0030845F00105C6
:10255C00BD61BD6908F1804805F00105019508F5DC
:10256C00803806F0030B019D4FEA8B0BD8F808500E
:10257C0009FA0BF925EA09093A4DA84268D005F584
:10258C008065A84266D005F58065A84264D005F543
:10259C008065A8420CBF0325042505FA0BF545EA16
:1025AC000905C8F808501D681AF4803F14BF25436C
:1025BC00A5431D605D681AF4003F14BF2543A54375
:1025CC005D609D681AF4801F14BF2543A5439D6070
:1025DC00DD681AF4001F14BF2C4325EA0404DC60E8
:1025EC000136102E7FF473AF03B0BDE8F08F032DCE
:1025FC0022D0112D84D1CA68043281E71A4FBD4212
:10260C0009D012D8DFF86C904D4504D009F580390B
:10261C004D457FF475AF8A68C2B1012A0CBFC0F872
:10262C001080C0F8148008226AE77545F3D0654520
:10263C00F1D0DFF84490EBE7002261E7CA685FE76E
:10264C00CA6808325CE7CA680C3259E7042257E7BB
:10265C000025A2E70125A0E702259EE70004014022
:10266C000010024000080140000021100000311051
:10267C000000321000001110000022100AB101619C
:10268C0070470904FBE7000003682DE9F341DB0701
:10269C00054610D42B689F075ED42B68190700F1F0
:1026AC0095802B685A0700F1BF80EA69002A40F038
:1026BC002D81002014E0904C636803F00C03042B74
:1026CC0007D0636803F00C03082B0CD16368DE039E
:1026DC0009D523689C03DDD56B68002BDAD101206A
:1026EC0002B0BDE8F0816B68B3F5803F10D1236870
:1026FC0043F480332360FFF7A7FC06462368980356
:10270C00C8D4FFF7A1FC801B6428F7D90320E7E7A6
:10271C009BB9236823F480332360236823F480233C
:10272C002360FFF791FC064623689903B2D5FFF7A7
:10273C008BFC801B6428F7D9E8E7B3F5A02F23683E
:10274C0003D143F480232360D1E723F48033236047
:10275C00236823F48023CDE7674C636813F00C0FD8
:10276C0007D0636803F00C03082B10D16368DA03FD
:10277C000DD423689B0702D52B69012BAFD123689D
:10278C006A6923F0F80343EAC203236085E72A69E8
:10279C005A4B6AB101221A60FFF756FC06462368B1
:1027AC009F07ECD4FFF750FC801B0228F7D9ADE74C
:1027BC001A60FFF749FC0646236898077FF56DAF52
:1027CC00FFF742FC801B0228F6D99FE7AA694A4C06
:1027DC004B4BDAB101221A60FFF736FC0646636AEE
:1027EC009B070DD54FF4FA52464B1B68B3FBF2F323
:1027FC00019300BF019B5A1E0192002BF9D150E7A7
:10280C00FFF722FC801B0228E9D97FE71A60FFF74B
:10281C001BFC0646636A9F077FF543AFFFF714FC6A
:10282C00801B0228F6D971E7334CE369D80024D415
:10283C000127E36943F08053E361E36903F08053BC
:10284C000093009B304E3368D90518D5EB68012BEB
:10285C0026D1236A43F001032362FFF7F5FB41F213
:10286C0088368046236A9B073FD5002F3FF41DAF67
:10287C00E36923F08053E36117E70027E2E733684D
:10288C0043F480733360FFF7DFFB80463368DA056F
:10289C00DCD4FFF7D9FBA0EB08006428F6D935E7A8
:1028AC00ABB9236A41F2883823F001032362236A0F
:1028BC0023F004032362FFF7C7FB0646236A98073D
:1028CC00D3D5FFF7C1FB801B4045F7D91EE7052B7D
:1028DC00236A03D143F004032362BAE723F0010314
:1028EC002362236A23F00403B6E7FFF7ADFBA0EBEA
:1028FC000800B042B6D909E700100240000042427D
:10290C00800442420800002000700040224C6368A2
:10291C0003F00C03082B3FF4E2AE00231F4E022AF7
:10292C0033602BD1FFF790FB0746236899011FD426
:10293C002B6AB3F5803F05D16268A96822F4003296
:10294C000A436260696A62680B4322F4741213438F
:10295C00636001233360FFF777FB054623689A0118
:10296C003FF5A7AEFFF770FB401B0228F6D9CDE66A
:10297C00FFF76AFBC01B0228D7D9C7E6FFF764FB39
:10298C00054623689B017FF594AEFFF75DFB401B6A
:10299C000228F6D9BAE600BF00100240600042429D
:1029AC0030B5194B87B002AC03F1100522461868FC
:1029BC005968083303C2AB421446F7D101238DF892
:1029CC000430022311498DF805304B6803F00C02DA
:1029DC00082A17D1C3F3834206A80244DB0312F87A
:1029EC00102C0CD54B680A48C3F34043504306AA3D
:1029FC00134413F8143CB0FBF3F007B030BD05489A
:102A0C005043FAE70248F8E77067000800100240EC
:102A1C0000127A0000093D00544A2DE9F041136878
:102A2C00054603F007038B420E462AD329688C0710
:102A3C0034D4CA0747D44D4A136803F007039E42A7
:102A4C00C0F082802A684A4C12F0040F40F0878054
:102A5C00130706D563682A6923F4605343EAC2035B
:102A6C006360FFF79DFF6368424AC3F30313D35CB3
:102A7C00D840414B18600020FFF7A4FA0020BDE8B5
:102A8C00F081136823F007030B431360136803F002
:102A9C0007039942CAD00120BDE8F081344B11F0F4
:102AAC00040F1EBF5A6842F4E0625A60080742BF26
:102ABC005A6842F460525A605A68A86822F0F002D0
:102ACC0002435A60B5E76A68294C012A23681CD175
:102ADC0013F4003FDFD0636841F2883823F003031E
:102AEC0013436360FFF7B0FA6B680746012B14D1F0
:102AFC00636803F00C03042B9DD0FFF7A5FAC01BF1
:102B0C004045F5D90320BDE8F081022A02D113F02B
:102B1C00007FDFE713F0020FDCE7022B0FD16368B5
:102B2C0003F00C03082B86D0FFF78EFAC01B404530
:102B3C00F5D9E7E7FFF788FAC01B4045E2D8636890
:102B4C0013F00C0FF6D176E7136823F00703334329
:102B5C001360136803F007039E429CD172E763680D
:102B6C00E96823F4E0630B43636071E700200240E3
:102B7C00001002408067000808000020044B054A42
:102B8C005B68C3F30223D35C034A1068D8407047D8
:102B9C00001002409067000808000020044B054A12
:102BAC005B68C3F3C223D35C034A1068D8407047F8
:102BBC0000100240906700080800002010B5044681
:102BCC00002834D00023836290F851300BB901F007
:102BDC00C7FC0223216884F851300B68A06823F0ED
:102BEC0040030B606368A2690343E06803432069F8
:102BFC00034360690343E0690343206A0343A06A0B
:102C0C00034302F4007003430B60120C636A02F07E
:102C1C0004021A43E36A4A600B61CB69002023F477
:102C2C000063CB610123606584F8513010BD012035
:102C3C0010BD03680020DA6842F00102DA601A68FD
:102C4C0042F001021A607047036889B1042907D069
:102C5C001A6A22F001021A621A6A42F001021A621E
:102C6C001A6A22F010021A621A6A42F0100206E086
:102C7C001A6A22F001021A621A6A42F001021A62FE
:102C8C001A68002042F001021A60704790F83C303C
:102C9C0070B5012B4FF002031CD0012280F83D309F
:102CAC00036880F83C209A6822F47F4222F0770275
:102CBC009A600A68402A79D019D8102A00F09380BB
:102CCC000AD8002A00F08980012380F83D300023C7
:102CDC0080F83C30184670BD202A00F08A80302ADB
:102CEC00F2D19A6822F0700242F0370236E0702A74
:102CFC0036D01BD8502A42D0602AE5D11C6A4D68C8
:102D0C0024F01004CE681C6299691A6A21F470418F
:102D1C0022F0A00242EA051241EA063199611A62D8
:102D2C009A6822F0700242F0670217E0B2F5805FF9
:102D3C0011D0B2F5005FC7D18A684D689C68C9682C
:102D4C002A4324F47F4442EA012222439A609A687F
:102D5C0042F4804202E09A6822F007029A60B3E7DC
:102D6C008A684D689C68C9682A4324F47F4442EA07
:102D7C00012222439A609A6842F07702EEE74C688F
:102D8C00CE68196A1D6A21F00A0125F001051D6241
:102D9C009A69214322F0F00242EA06129A61196202
:102DAC009A6822F0700242F05702D7E74C68CE685E
:102DBC00196A1D6A21F00A0125F001051D629A6944
:102DCC00214322F0F00242EA06129A6119629A68D3
:102DDC0022F0700242F04702C0E79A6822F07002BB
:102DEC0042F00702BAE79A6822F0700242F017022A
:102DFC00B4E79A6822F0700242F02702AEE70000B6
:102E0C001A4A036890420AD0B0F1804F07D0A2F55D
:102E1C009432904203D002F58062904215D14A68F8
:102E2C0023F070031343114A90420AD0B0F1804F43
:102E3C0007D0A2F59432904203D002F58062904202
:102E4C0003D1CA6823F4407313434A6923F0800307
:102E5C00134303608B68C3620B688362034B984215
:102E6C0004BF0B690363012343617047002C0140CD
:102E7C0010B50446A0B190F83D3003F0FF021BB929
:102E8C0080F83C2001F004FC0223206884F83D30DB
:102E9C00211DFFF7B5FF0123002084F83D3010BD44
:102EAC00012010BDF8B50C460546002841D090F81D
:102EBC003D3003F0FF021BB980F83C2001F08CFB85
:102ECC002946022351F8040B85F83D30836823F022
:102EDC0007038360FFF794FF28682368866882697C
:102EEC00A1681E43A36922F4407222F0030241EA56
:102EFC000323134323F47C422369E1691B0143EA56
:102F0C000123E168076A0B43216A22F0FC0243EAC1
:102F1C0001331343616927F0AA02676886608361F5
:102F2C00012347EA01171743076285F83D3000205B
:102F3C00F8BD0120F8BD90F83C3010B5012B4FF0D6
:102F4C00020318D080F83D3003680C685A68496851
:102F5C0022F070025A605A6822435A609A6822F032
:102F6C0080029A609A680A439A60012380F83D3087
:102F7C00002380F83C30184610BD0368DA6822F450
:102F8C009072DA605A6922F001025A61202380F8AB
:102F9C003A3070472DE9F0470568C2682B69016922
:102FAC0023F4405313432B618368EA680B43416954
:102FBC0022F4B05222F00C020B431343EB606B690A
:102FCC00826923F4407313436B61404B81469D42ED
:102FDC004FF0190446D1FFF7E1FD04FB00F3D9F8DB
:102FEC0004604FF06408B600B3FBF6F3B3FBF8F3E0
:102FFC001E01FFF7D3FD6043D9F804309B00B0FBF2
:10300C00F3F7FFF7CBFD6043D9F804309B00B0FB1E
:10301C00F3F3B3FBF8F308FB13731B013233B3FB6D
:10302C00F8F303F0F007FFF7B9FD6043D9F804207B
:10303C009200B0FBF2FAFFF7B1FD6043D9F804300F
:10304C009B00B0FBF3F3B3FBF8F308FB13A31B01DA
:10305C003233B3FBF8F303F00F033B433344AB6061
:10306C00BDE8F087FFF78AFD04FB00F3D9F8046094
:10307C004FF06408B600B3FBF6F3B3FBF8F31E0194
:10308C00FFF77CFD6043D9F804309B00B0FBF3F7ED
:10309C00FFF774FD6043D9F804309B00B0FBF3F3E9
:1030AC00B3FBF8F308FB13731B013233B3FBF8F3D8
:1030BC0003F0F007FFF762FD6043D9F8042092009B
:1030CC00B0FBF2FAFFF75AFDB7E700BF003801403A
:1030DC0010B5044640B390F8393003F0FF021BB929
:1030EC0080F8382001F0ECFA2423226884F8393077
:1030FC00D368204623F40053D360FFF74BFF2368BB
:10310C0000201A6922F490421A615A6922F02A02AC
:10311C005A61DA6842F40052DA602023E06384F8E2
:10312C00393084F83A3010BD012010BD704770471B
:10313C0090F83A3010B5222B36D183680169B3F57B
:10314C00805F0268836A23D15268E9B9C2F308022E
:10315C0023F8022B8362C48D013CA4B2C4858CB9C4
:10316C000368DA6822F02002DA60DA6822F48072EE
:10317C00DA605A6922F001025A61202380F83A3051
:10318C00FFF7D5FF002010BDD2B223F8012BE1E7E9
:10319C0021B9591C526881621A70DCE75268591CBB
:1031AC00816202F07F02F7E7022010BD7047000039
:1031BC00036870B51A6804461607D9685D6907D1AB
:1031CC0096065AD58D0658D5BDE87040FFF7B0BFAE
:1031DC0015F0010502D111F4907F4ED0D30705D51F
:1031EC00CE0542BFE36B43F00103E363500704D504
:1031FC001DB1E36B43F00203E363930704D51DB1E8
:10320C00E36B43F00403E363160704D51DB1E36BD2
:10321C0043F00803E363E36B002B66D0950604D5FB
:10322C00880602D52046FFF783FF236820465D6998
:10323C00E26B110702D415F040051AD0FFF79DFE82
:10324C0023685A69520610D55A69606B22F0400205
:10325C005A6150B1254B4363FFF7E8F8002844D07E
:10326C00606BBDE87040436B18472046FFF79EFF2C
:10327C0070BDFFF79BFFE56370BD160627D50D06E5
:10328C0025D594F83920212A2FD1A268B2F5805F78
:10329C00226A17D11188C1F308015960216979B9E3
:1032AC0002322262E28C013A92B2E284EAB9DA6822
:1032BC0022F08002DA60DA6842F04002DA6070BD17
:1032CC000132EEE7511C216212785A60EAE750068F
:1032DC000BD54A0609D5DA68204622F04002DA609E
:1032EC00202384F83930FFF721FF70BDFD32000830
:1032FC0008B50023406AC385C384FFF757FF08BD98
:10330C0080B485B000AFF860B9607A603B60FB6850
:10331C00BA681A60FB687A685A60FB683A689A6007
:10332C00FB684FF00002DA60FB6818461437BD46A4
:10333C0080BC704780B483B000AF78600B46FB70E4
:10334C007B681B689B6803F00203002B0CBF0123F6
:10335C000023DBB2002B00D0F2E77B681B68FA7805
:10336C00DA607B681B689B6803F00103002B0CBFC1
:10337C0001230023DBB2002B00D0F2E77B681B6833
:10338C00DB68DBB218460C37BD4680BC704780B496
:10339C0083B000AF78607B685B687A6892681204CF
:1033AC001A6100BF0C37BD4680BC704780B483B037
:1033BC0000AF78607B685B687A6892681A6100BFBE
:1033CC000C37BD4680BC704780B584B000AF7860C8
:1033DC000B46FB701346BB700023FB737868FFF73A
:1033EC00D6FFFB7819467868FFF7A4FFBB7819461F
:1033FC007868FFF79FFF0346FB737868FFF7D6FFEB
:10340C00FB7BDBB218461037BD4680BD80B584B05F
:10341C0000AF78600B46FB7013463B800023FB81AA
:10342C007868FFF7B4FFFB7819467868FFF782FFDE
:10343C003B881B0A9BB2DBB219467868FFF77AFF10
:10344C0003469BB21B029BB2FB813B88DBB2194645
:10345C007868FFF76FFF03469AB2FB899BB2134360
:10346C009BB2FB817868FFF7A1FFFB899BB21846E2
:10347C001037BD4680BD000090B583B000AF7860BA
:10348C007B6800221A607B684FF000029A607B68B0
:10349C004FF00002DA607B684FF000021A617B6823
:1034AC0000225A60102001F0AAF903461C464FF482
:1034BC008053094A09492046FFF722FF7B681C60AC
:1034CC007B6805E01021204601F0F4FC01F0A8F91E
:1034DC0018460C37BD4690BD000C0140003800402A
:1034EC0080B588B000AFF860B9607A604FF0000327
:1034FC00FB614FF00003BB6100237B617B69FF2BF9
:10350C002FDCFB681B680022C7211846FFF77EFFE3
:10351C0003461BB21846FDF779FB034627491846AC
:10352C00FDF7C8FB034626491846FDF777FC034612
:10353C003B613969F869FDF7B5FA0346FB613969F6
:10354C003869FDF7B7FB03461946B869FDF7AAFAC7
:10355C000346BB610520FEF77DFD7B6901337B6172
:10356C00CCE74FF08741F869FDF758FC0346FB6147
:10357C004FF08741F869FDF79DFB0346F969184642
:10358C00FDF798FB03461946B869FDF789FA03461F
:10359C00BB610C49B869FDF741FC0346BB61B869D6
:1035AC0001F0BAFE0346BB61BB68FA691A607B681E
:1035BC00BA691A6000BF2037BD4680BD00007A444E
:1035CC003333034200007F4380B586B000AF786090
:1035DC007B681B680022F5211846FFF7F5FE0346B1
:1035EC00FB74FB7C712B07D07B681B681021184681
:1035FC0001F060FC002346E07B681B6803226B2112
:10360C001846FFF7E1FE7B681B6803221A21184657
:10361C00FFF7DAFE7B681B68042219211846FFF7B6
:10362C00D3FE7B681B6810221B211846FFF7CCFECB
:10363C006420FEF70FFD4FF00003FB60144BBB60E2
:10364C0000237B617B69092B1CDC07F1080207F165
:10365C000C0319467868FFF743FFBB680D49184601
:10366C00FDF7C6FC0346002B08D0FB681846FDF797
:10367C00FDFC02467B685A60012304E07B69013340
:10368C007B61DFE7002318461837BD4680BD00BFBD
:10369C0000007A4400002F4490B587B000AF7860EA
:1036AC003D4B5B6A1BB27B813B4B00225A623B4B0E
:1036BC005B6A1BB23B81394B00225A627B681B69E7
:1036CC0037491846FDF7ECF903467B61786901F040
:1036DC00B9FD03463B61786901F0E8FD0346FB60E8
:1036EC007B891BB21846FDF791FA034639691846D7
:1036FC00FDF7E0FA03461C463B891BB21846FDF762
:10370C0085FA0346F9681846FDF7D4FA03461946BC
:10371C002046FDF7C5F9034622491846FDF7CAFABB
:10372C0003461A467B689B6811461846FDF7BAF9A2
:10373C0003461A467B689A607B891BB21846FDF7D4
:10374C0065FA0346F9681846FDF7B4FA03461C46B9
:10375C003B891BB21846FDF759FA034639691846DE
:10376C00FDF7A8FA034619462046FDF79BF90346D8
:10377C000C491846FDF79EFA03461A467B68DB682F
:10378C0011461846FDF78EF903461A467B68DA6037
:10379C0000BF1C37BD4690BD00040040000800402F
:1037AC00DB0F493F1D1F9E3890B585B000AF786088
:1037BC007B681B680022C7211846FFF727FE0346CB
:1037CC001BB21A464FF47A7303FB02F31846FDF74B
:1037DC001DFA034640491846FDF720FB03464FF0FF
:1037EC007C511846FDF75EF903461846FDF73EFC82
:1037FC000346FB607B685B68FA68D31ABB60BB68E6
:10380C0013F1640F02DBBB68642B3BDD7B681C6926
:10381C00B868FDF7FBF9034630491846FDF74AFA3C
:10382C00034619462046FDF73DF903461A467B68C8
:10383C001A617B681B692A491846FDF7F7FB03469A
:10384C00002B0AD07B681B6926491846FDF728F91E
:10385C0003461A467B681A613AE07B681B69224969
:10386C001846FDF7C5FB0346002B00D130E07B6802
:10387C001B691C491846FDF715F903461A467B6867
:10388C001A6125E07B685B681846FDF7BFF90346B3
:10389C0016491846FDF70EFA03461C46F868FDF764
:1038AC00B5F9034612491846FDF704FA03461946C2
:1038BC002046FDF7F7F803464FF07C511846FDF70C
:1038CC00F1F803461846FDF7D1FB02467B685A60B7
:1038DC0000BF1437BD4690BD333303423F67BB3343
:1038EC00DB0F4940DB0FC940DB0F49C0A4707D3FA3
:1038FC000AD7233C80B582B000AF78607868FFF7B8
:10390C0063FE034618460837BD4680BD80B582B0BD
:10391C0000AF78607868FFF7BFFE7868FFF744FF68
:10392C0000BF0837BD4680BD80B400AF064B3022C7
:10393C001A60064B064A1A60064B00221A7000BF2A
:10394C00BD4680BC704700BF60050020C00600204B
:10395C00006400406405002080B582B000AF786040
:10396C0039607B685B019BB2244A1360234B1A6855
:10397C007B681B0E1344214A1360204B5A687B68EA
:10398C00DB0023F47F5323F03F0313441B4A5360A3
:10399C003B685B019BB2194A9360184B9A683B6871
:1039AC001B0E1344154A9360144BDA683B68DB001A
:1039BC0023F47F5323F03F031344104AD3600F4B7F
:1039CC0000229A610D4B0122DA610C4B00225A61E4
:1039DC000A4B00221A61094B00225A62074B012242
:1039EC001A62074B1B78012B03D104490548FEF7DB
:1039FC00BEFB00BF0837BD4680BD00BF38050020A8
:103A0C0064050020C006002080B500AF284B1B7851
:103A1C00002B48D1274B1B68274A5360264B0022AA
:103A2C009A60254B0022DA60234B4FF440321A6126
:103A3C00214B4FF400125A611F4B00221A761E4B79
:103A4C0000225A761C4B00229A761B4B0122DA7606
:103A5C00194B00221A77184B00225A771648FEF79A
:103A6C000BFB134B01221A7000210020FFF774FF8F
:103A7C001148FEF7E8FB0346002B14BF012300237B
:103A8C00DBB2002B01D000F0ABFC02210A48FEF7A0
:103A9C0053FC0346002B14BF01230023DBB2002B85
:103AAC0001D000F09DFC054B02221A6100BF80BDC5
:103ABC006405002060050020C0060020000C0140B9
:103ACC0080B483B000AF0346FB71244B1B78012BF1
:103ADC003ED0FB79082B3CD801A252F823F000BF52
:103AEC00113B00081B3B0008233B00082B3B000844
:103AFC00333B00083B3B0008433B00084B3B0008B2
:103B0C00533B0008164B4FF4E1721A6021E0144B42
:103B1C00E1221A601DE0124B5A221A6019E0104B78
:103B2C002D221A6015E00E4B24221A6011E00C4B6A
:103B3C0012221A600DE00A4B09221A6009E0084BA8
:103B4C0006221A6005E0064B04221A6000BF00E052
:103B5C0000BF0C37BD4680BC704700BF6405002019
:103B6C006005002080B483B000AF0346FB710A4BA4
:103B7C001B78012B0BD0FB79002B04D0074B4FF09B
:103B8C0000429A6004E0054B00229A6000E000BFFE
:103B9C000C37BD4680BC704764050020C006002071
:103BAC0080B584B000AF7860396007F108033A68DB
:103BBC0079680648FEF772FB0346FB6000F008F8D4
:103BCC00FB6818461037BD4680BD00BFC0060020FC
:103BDC0010B5094C23686BB9FEF736FA074B1B6816
:103BEC00C01A0A2806D94FF40052054B1A61FEF789
:103BFC002BFA206010BD00BF400700203C070020BE
:103C0C000010014010B50A4C23687BB1FEF71CFA7A
:103C1C002368C01A0A2809D94FF00052054B1A61C3
:103C2C0000232360FEF710FA034B186010BD00BF91
:103C3C0040070020001001403C07002080B483B0F6
:103C4C0000AF03463960FB7197F90730002B0CDA93
:103C5C000E4997F9073003F00F03043B3A68D2B2D0
:103C6C001201D2B20B441A760BE0094A97F90730CD
:103C7C0018463B68DBB21B01D9B213180A4683F80D
:103C8C00002300BF0C37BD4680BC704700ED00E040
:103C9C0000E100E090B589B000AFFEF7B7F900F095
:103CAC0031FB00F0A5FA00F045FA00F0E5F900F060
:103CBC006BF900F0A5F900F0F7FAFFF735FE0121DA
:103CCC004FF0FF30FFF7BAFF00F00EF94C4A4C4BA7
:103CDC001B6843F0400313604A48FEF7AAFF182103
:103CEC004948FEF7B1FF18214848FEF7ADFF062002
:103CFC00FFF7E6FE464B1B681846FFF7FBFD034635
:103D0C00FB77FB7F83F00103DBB2002B0ED064202A
:103D1C00FEF7A0F93F4B4FF000721A616420FEF7DA
:103D2C0099F93C4B4FF400721A61F0E7FFF76CFE07
:103D3C001C20FEF759FB00F09BF80020FFF712FF48
:103D4C00FEF782F90246344B1A60334B1A68334B38
:103D5C001B68D31A1846FCF73FFB4FF00002304BA0
:103D6C00FCF740FE0346002B46D0294B1B689B6892
:103D7C001846FCF753FB03460C4607F114011A4690
:103D8C002346084600F032FB214B1B68DB681846C3
:103D9C00FCF744FB03460C4607F10C011A4623467C
:103DAC00084600F023FB1A4B1B681B691846FCF7EE
:103DBC0035FB03460C46391D1A462346084600F0CF
:103DCC0015FB07F1140319461648FFF7E9FE01200D
:103DDC00FEF740F907F10C0319461348FFF7E0FE14
:103DEC000120FEF737F93B1D19461048FFF7D8FEA6
:103DFC00094B1B68094A1360FFF704FF9DE700BFDE
:103E0C0000380040C00500200006002040060020BD
:103E1C0030070020000C0140340700203807002038
:103E2C0000001440E80600200007002018070020BE
:103E3C0080B500AF4FF080431B6903F00103002BEA
:103E4C0014BF01230023DBB2002B0CD0074B1B68E3
:103E5C001846FFF75BFD4FF080424FF080431B6923
:103E6C0023F00103136100BF80BD00BF30070020A9
:103E7C0080B400AF194B0022DA60184B00229A6014
:103E8C00164B40F205221A60144B00225A60134B59
:103E9C0008221A61124B0022DA60114B00229A6040
:103EAC000F4B40F206221A600D4B00225A600C4B4D
:103EBC0008221A610B4B0022DA600A4B00229A602E
:103ECC00084B40F207221A60064B00225A60054B41
:103EDC0008221A6100BFBD4680BC7047E80600206E
:103EEC00000700201807002080B590B000AF07F144
:103EFC00180328220021184602F080FA3B1D0022EC
:103F0C001A605A609A60DA601A610123BB614FF43F
:103F1C008033FB6100233B620123BB6202237B6382
:103F2C004FF48033BB634FF4E013FB6307F11803CA
:103F3C001846FEF7A9FB0346002B14BF01230023F0
:103F4C00DBB2002B01D000F04BFA0F237B60022375
:103F5C00BB600023FB604FF480633B6100237B61FB
:103F6C003B1D02211846FEF757FD0346002B14BFDC
:103F7C0001230023DBB2002B01D000F031FA00BF8B
:103F8C004037BD4680BD000080B500AF1A4B1B4AC0
:103F9C001A60194B30225A60174B00229A60164B4C
:103FAC000022DA60144B4FF440321A61124B4FF47A
:103FBC0000125A61104B00221A760F4B00225A76CF
:103FCC000D4B00229A760C4B0122DA760A4B00221A
:103FDC001A77094B00225A770748FEF74DF803462B
:103FEC00002B14BF01230023DBB2002B01D000F007
:103FFC00F7F900BF80BD00BFC00600200064004080
:10400C0080B500AF1A4B1B4A1A60194B4FF48272E1
:10401C005A60174B00229A60154B0022DA60144B41
:10402C0000221A61124B00225A61114B4FF400729C
:10403C009A610F4B2822DA610D4B00221A620C4B4D
:10404C0000225A620A4B00229A62094B0722DA625A
:10405C000748FEF7B3FD0346002B14BF01230023D2
:10406C00DBB2002B01D000F0BBF900BF80BD00BF5C
:10407C00680500200038004080B58CB000AF07F117
:10408C000C0324220021184602F0B8F93B1D002233
:10409C001A605A60254B264A1A60244B00225A603B
:1040AC00224B00229A60214B4FF6FF72DA601F4BB5
:1040BC0000221A611D4B00229A610323FB6000232E
:1040CC003B6101237B610023BB610023FB61002367
:1040DC003B6201237B620023BB620023FB6207F17E
:1040EC000C0319461148FEF7DDFE0346002B14BFE6
:1040FC0001230023DBB2002B01D000F071F9002367
:10410C007B600023BB603B1D19460848FEF713FF7C
:10411C000346002B14BF01230023DBB2002B01D07C
:10412C0000F05EF900BF3037BD4680BD4006002070
:10413C000008004080B58CB000AF07F10C032422BE
:10414C000021184602F05AF93B1D00221A605A60F1
:10415C00254B264A1A60244B00225A60224B00221F
:10416C009A60214B4FF6FF72DA601F4B00221A61E6
:10417C001D4B00229A610323FB6000233B6101234A
:10418C007B610023BB610023FB6100233B620123A5
:10419C007B620023BB620023FB6207F10C03194610
:1041AC001148FEF77FFE0346002B14BF01230023AA
:1041BC00DBB2002B01D000F013F900237B6000234D
:1041CC00BB603B1D19460848FEF7B5FE0346002BA5
:1041DC0014BF01230023DBB2002B01D000F000F947
:1041EC0000BF3037BD4680BD0006002000040040F3
:1041FC0080B586B000AF07F1080300221A605A6040
:10420C009A60DA603B4600221A605A60254B4FF0E8
:10421C0080421A60234B47225A60224B00229A603C
:10422C00204B41F28732DA601E4B4FF400721A6158
:10423C001C4B00229A611B48FEF71AFE0346002B0A
:10424C0014BF01230023DBB2002B01D000F0C8F80F
:10425C004FF48053BB6007F1080319461148FEF771
:10426C0015FD0346002B14BF01230023DBB2002BEA
:10427C0001D000F0B5F800233B6000237B603B4687
:10428C0019460848FEF757FE0346002B14BF0123BE
:10429C000023DBB2002B01D000F0A2F800BF1837CE
:1042AC00BD4680BDC005002080B500AF134B144A3D
:1042BC001A60124B4FF4E1325A60104B00229A6094
:1042CC000E4B0022DA600D4B00221A610B4B0C22B4
:1042DC005A610A4B00229A61084B0022DA610748A6
:1042EC00FEF7F6FE0346002B14BF01230023DBB2BE
:1042FC00002B01D000F074F800BF80BD80060020B8
:10430C000038014080B588B000AF07F110030022DF
:10431C001A605A609A60DA602E4A2E4B9B6943F001
:10432C00100393612B4B9B6903F01003FB60FB683C
:10433C00284A284B9B6943F020039361254B9B69CA
:10434C0003F02003BB60BB68224A224B9B6943F0FD
:10435C00040393611F4B9B6903F004037B607B6830
:10436C001C4A1C4B9B6943F008039361194B9B69D6
:10437C0003F008033B603B6800224FF400511648E1
:10438C00FEF77CF9002241F207611448FEF776F93A
:10439C004FF400533B6101237B610023BB6102237B
:1043AC00FB6107F1100319460B48FEF787F841F241
:1043BC0007633B6101237B610023BB610223FB612B
:1043CC0007F1100319460548FEF778F800BF2037AF
:1043DC00BD4680BD0010024000100140000C0140A1
:1043EC0080B400AF00BFBD4680BC7047B0B489B08C
:1043FC0000AFF860C7E90023D7E90023C7E904231D
:10440C000823FB61FB69002B13DDFB69013BFB619E
:10441C00D7E90423D1B2FA68FB6913440A461A702F
:10442C00D7E90423140A44EA03641D0AC7E90445C6
:10443C00E8E700BF2437BD46B0BC704790B583B0E9
:10444C0000AF786039607B68012B15D13B684FF663
:10445C00FF72934210D1142000F0D1F903461C4690
:10446C002046FFF709F8064B1C6005E01421204696
:10447C0000F020FD00F0D4F90C37BD4690BD00BF14
:10448C003007002080B500AF4FF6FF710120FFF719
:10449C00D5FF80BD0E4B82B09A6942F001029A6141
:1044AC009A6902F001020092009ADA6942F0805295
:1044BC00DA61DB69074A03F080530193019B53686F
:1044CC0023F0E06343F00073536002B0704700BF09
:1044DC00001002400000014010B5044686B01022C6
:1044EC00002102A801F08AFF22681A4B9A422ED1B1
:1044FC0003F5D633DA6902A942F00072DA61DA699F
:10450C00154802F000720092009A9A6942F0040277
:10451C009A619B6903F004030193019B4FF4807330
:10452C000293FDF7CBFF4FF4007302930223039326
:10453C00032302A908480593FDF7C0FF074A5368F7
:10454C0023F4C04343F0E06343F48043536006B06C
:10455C0010BD00BF00640040000C01400000014091
:10456C0010B5044686B01022002102A801F046FFC7
:10457C002268174B9A4228D103F5EC33DA6902A969
:10458C0042F48042DA61DA69124802F48042009205
:10459C00009A9A6942F008029A619B6903F0080339
:1045AC000193019B4FF420430293022303930323B3
:1045BC000593FDF783FF4FF480430293002302A978
:1045CC00044803930493FDF779FF06B010BD00BFB8
:1045DC0000380040000C0140102210B5044688B091
:1045EC000DEB0200002101F009FF2368234A9342DE
:1045FC0025D1234B04A9DA69224842F00202DA6180
:10460C00DA6902F002020092009A9A6942F00802FA
:10461C009A619B6903F008030193019B3023049377
:10462C0001230693FDF74AFF174A536823F44063AE
:10463C0043F0E06343F40063536008B010BD134AC9
:10464C009342FAD10E4B04A9DA690E4842F00402E7
:10465C00DA61DA6902F004020292029A9A6942F073
:10466C0008029A619B6903F008030393039BC02320
:10467C00049301230693FDF721FFDEE700040040BD
:10468C0000100240000C01400000014000080040F6
:10469C00036807B5B3F1804F0FD103F50433DA6922
:1046AC001C2042F00102DA610022DB69114603F0A2
:1046BC0001030193019BFDF763FE03B05DF804FB5E
:1046CC0010B5044686B01022002102A801F096FE17
:1046DC0022681B4B9A4231D103F558439A6902A9BF
:1046EC0042F480429A619A69164802F48042009220
:1046FC00009A9A69002442F004029A619B6903F0C3
:10470C0004030193019B4FF4007302930223039360
:10471C0003230593FDF7D2FE4FF48063029301232C
:10472C0002A9084804930394FDF7C8FE25202246ED
:10473C002146FDF725FE2520FDF756FE06B010BDDF
:10474C0000380140000801407047FEE7FEE7FEE735
:10475C00FEE7704770477047FDF76ABC0148FEF7EB
:10476C0027BD00BF800600200F4B1A6842F00102E3
:10477C001A6059680D4A0A405A601A6822F084720D
:10478C0022F480321A601A6822F480221A605A6865
:10479C0022F4FE025A604FF41F029A604FF000623E
:1047AC00034B9A60704700BF001002400000FFF8F6
:1047BC0000ED00E0002103E00B4B5B58435004314B
:1047CC000A480B4B42189A42F6D30A4A02E00023DD
:1047DC0042F8043B084B9A42F9D3FFF7C5FF01F0AE
:1047EC00CDFBFFF757FA7047206F00080000002040
:1047FC001C0500201C050020A0070020FEE710B5BA
:10480C00002814BF04460124204601F0DBFB30B91C
:10481C0000F052FB08B901F0A3FB8047F4E710BD90
:10482C001EB400F09CF81EBCFDF7C2F90378472BB0
:10483C0017D143784E2B14D18378552B11D1C378D3
:10484C00432B0ED10379432B0BD143792B2B08D15E
:10485C0083792B2B05D1C07901288CBF0020012036
:10486C0070470020704700002DE9F3411E46037885
:10487C000D46472B0246C17947D143784E2B44D184
:10488C008378552B41D1C378432B3ED10379462BEA
:10489C003BD143794F2B38D18379522B35D1002919
:1048AC0033D1012308460024019433BB38BB0129C2
:1048BC000ABF52F8203CA2F12003783B01290CBF1F
:1048CC0052F8202C58321C680192236820469B68B1
:1048DC009847B0B10227019B1B6801932B6801AA72
:1048EC00D3F81080214601232846C04758B1019BBC
:1048FC003360384602B0BDE8F081084CE5E7084C5F
:10490C00E3E70127EAE70746F3E71046FFF78EFFD8
:10491C0080F00100C0B20023C5E700BF9867000813
:10492C00A067000810B5044600F0FEFB02462046C6
:10493C00A4F12001FFF77AFF60B154F8043C013375
:10494C00012B44F8043C03D1936844F8083C916073
:10495C00012010BD9368002BF9D000F0CDFB10B5F1
:10496C0000F0E2FB826801460AB900F0C5FB02F1D7
:10497C0020042046FFF75AFF40B1D369013BD361B5
:10498C0013B9906988609361204610BD8860FBE77D
:10499C00002370B5A0EBC006C0EBC00210F8015BA1
:1049AC00941905F07F02A24013432A06F4D40B603D
:1049BC0070BD00231A4630B510F8014B04F07F058A
:1049CC0095402B43250602F10702F5D41F2A06D881
:1049DC00640642BF4FF0FF3404FA02F213430B603B
:1049EC0030BD5028F7B505460E4614461F4607D174
:1049FC00D01C20F0030050F8043B3B6003B0F0BD2A
:104A0C0000F00F030C2B2ED8DFE803F025071D2533
:104A1C00292D2D2D2D182125290001A92046FFF720
:104A2C00B7FF019B002BE8D005F07002102A08BFDD
:104A3C0026462A06334448BF1B68DEE701A92046F8
:104A4C00FFF7B7FFEDE7204630F8023BEAE72046D8
:104A5C0030F9023BE6E7204650F8043BE2E72046FB
:104A6C0050F8083BDEE701F07BFA08B50346FF2B54
:104A7C00084607D003F07003202B0DD004D80BB1DF
:104A8C00102B07D1002008BD402B0DD0502BF9D096
:104A9C00302B05D001F064FABDE80840FDF78ABA66
:104AAC00BDE80840FDF78ABABDE80840FDF772BAC8
:104ABC0070B50C460146204615461E46FFF7D5FF3D
:104ACC0033462A4601462046BDE87040FFF789BFB1
:104ADC0073B50E461446054618B3FDF75BFA206015
:104AEC003178721CFF291DD0231D2846FFF7E0FFEB
:104AFC0002461378501CFF2B237515D0102301A9E7
:104B0C002375FFF745FF019B0344E360037801A97C
:104B1C0063750130FFF73CFF019B0344236102B036
:104B2C0070BDDCE76060E4E70023EEE71FB503AB84
:104B3C00009300230A461946FCF790FC039805B035
:104B4C005DF804FB00232DE9F04F91B0049300F0C5
:104B5C000303012B07460C46164611D003D3022B38
:104B6C0003D001F0FDF902071AD531462046FDF7B6
:104B7C00FBF918B1092011B0BDE8F08F0820FAE755
:104B8C0000F0080505F0FF0885BBD1F82090104611
:104B9C000D21FFF7CBFF814540F04081062500E059
:104BAC00012510AB43F82C4D0093002307F00807A8
:104BBC003D430C2219463046FCF776FC062D40F09E
:104BCC003981D4F83080A76AB8F1000F0CBF4FF0D0
:104BDC00010A4FF0030AE16A15F0080500F0CE80D7
:104BEC00BAF1010F40F0C68000F086FA0225D8E732
:104BFC00079A13449F4280F03781DDF82080B8F18A
:104C0C00000F01D00B9B9844099F17B1781E0E9F83
:104C1C000744B8F1000FA8D0002F00F0A18015F0C8
:104C2C000803029336D0472323704E236370552319
:104C3C00A3704323E370462323714F2363715223E4
:104C4C00A3710023E3714FF0000A6FF0030B07A967
:104C5C003846FFF7AEFE08A90390FFF7AAFE079AA5
:104C6C00002A76D03DDD9DF83C00FF2835D000F0C1
:104C7C000703042B3FF675AF01A151F823F000BFD9
:104C8C00EB4C00086F4B0008B34C0008EB4C0008D1
:104C9C00E34C0008E379012B0CBF54F8203C04F1E1
:104CAC0058030493CFE702270D9909AB07FB1212A7
:104CBC000C99FFF796FE099969B32CB104AB00224D
:104CCC002046FFF7D1FD30BB089F002F44D0039B3B
:104CDC003B441F46BBE70827E6E70027E4E7042729
:104CEC00E2E70D9F01326CB3029B5BBB0BFB0272C4
:104CFC00049B171F069357F8041F41B106AB002203
:104D0C0039442046FFF7B0FD0028F4D0012181F092
:104D1C0001010029D8D04FF0030A079FEB0727D5D4
:104D2C00BAF1020F3FF421AF0D213046049DFFF77D
:104D3C00FDFE65622062A762C4F82C90C4F8308036
:104D4C00062018E70BFB02F2B958B1FA81F14909B8
:104D5C00DFE74FF0010AB7E7BAF1000F3FF405AFF8
:104D6C004FF0020ADAE700274FF0010AB846D5E700
:104D7C00494631E7002F23DA00F0D0F9BAF1010FE0
:104D8C0002D1204600F042F9002F19DA0AAA304667
:104D9C00FFF79EFE31469DF83C00FFF766FE6FF074
:104DAC00030307FB03320D9B0C90134453F825208F
:104DBC000AB10135FAE70422A562E062226363635B
:104DCC0010AB43F81C4D0093002330461A4619468D
:104DDC00FCF76AFB10AB43F8207D00930023012203
:104DEC0019463046FCF760FB0F213046FFF79EFE5C
:104DFC0000F0010010AB40EA080043F8240D0093CA
:104E0C0000230F2219463046FCF74EFBBAF1020F75
:104E1C0002D12046FFF786FD0720ACE610AA42F827
:104E2C002C4D009243460C224146304645F002057B
:104E3C00FCF73AFB3046FDF7B3F8814600283FF407
:104E4C0094AE0AAA01463046FFF742FE3146804630
:104E5C009DF83C00FFF709FE0F210C903046FFF740
:104E6C0065FE20F00100471E0E9B9845BFF47BAFFA
:104E7C00424606AB9DF83D100020FFF719FE07AB2C
:104E8C0002469DF83D100020FFF712FE08AB0246CB
:104E9C009DF83D100020FFF70BFE09A9FFF778FDE8
:104EAC00069A0A9B804613449F42BFF4A1AEDDF8DC
:104EBC003880D9E700F08BB8024B1868BFF35B8FD2
:104ECC00704700BF4407002010B50446024B036036
:104EDC0000F04EF9204610BD2868000810B50446B5
:104EEC00FFF7F2FF20460C21FFF7E4FF204610BD30
:104EFC002DE9F041069E804696420F4614461D460B
:104F0C0003D1194600F088F958B9D8F808002246A0
:104F1C00036806961E6A39462B46B446BDE8F04136
:104F2C0060470620BDE8F0812DE9F14F0E46194689
:104F3C008346174699460A9CDDF82CA0DDF8308094
:104F4C000D9D00F069F990B1002E2C602F7109DBDA
:104F5C003444A0450CBF06240124AC71002001B0E0
:104F6C00BDE8F08F0236F9D10123AB71F6E7444569
:104F7C0004D15146584600F04FF988B9DBF80800C7
:104F8C003A4603680D95CDF83080CDF82CA00A94E4
:104F9C00DC6931464B46A44601B0BDE8F04F604792
:104FAC006F71DBE72DE9F04104460D4616461F46AE
:104FBC0000F0F2F848B9A0683246036829469C69AB
:104FCC003B46A446BDE8F0416047BDE8F08101F0E6
:104FDC0001B80378472B17D143784E2B14D1837823
:104FEC00552B11D1C378432B0ED10379432B0BD105
:104FFC0043792B2B08D183792B2B05D1C079012830
:10500C008CBF0020012070470020704710B504466B
:10501C0048B100F03BF82046FFF7DBFF18B154F81D
:10502C00140C00F05DF800F067F838B50246FFF795
:10503C00D0FF40B1002552F8184C104600F026F86D
:10504C0025B100F06BF804460125F6E7204600F088
:10505C0058F80378472B17D143784E2B14D183780B
:10506C00552B11D1C378432B0ED10379432B0BD184
:10507C0043792B2B08D183792B2B05D1C0790128AF
:10508C008CBF0020012070470020704738B50546C2
:10509C0000F04AF8014602682846A5F12004FFF703
:1050AC00D8FF30B90AB100F027F80C60144620463E
:1050BC0038BD55F80C3C2846002BB4BFC3F1010396
:1050CC00013345F80C3C4B68A24203F1FF334B60B3
:1050DC001CBF45F8102C0C606C6AFCF7B7F9E6E7BE
:1050EC0008B5804700F03CFF024B1868BFF35B8F9C
:1050FC00704700BF0C00002008B5FFF7F5FFFFF765
:10510C00EFFF08B58047FFF7F7FF0000024B186868
:10511C00BFF35B8F704700BF1000002008B5FFF78E
:10512C00F5FFFFF7EEFF000000487047480700202E
:10513C007FB5102300240293036815469E690094E2
:10514C006B468DF8044003941268B0479DF8043008
:10515C0003F00603062B09BF01202046009B2B60A1
:10516C0004B070BD009890420CBF0620012070471F
:10517C0010B50446024B036000F04BF8204610BDFE
:10518C008468000810B50446FFF7F2FF204608219A
:10519C00FFF790FE204610BD38B515461C4600F0B2
:1051AC003BF820B10823E36006232560237138BD4A
:1051BC002DE9F04105460C4616461F4600F02CF82A
:1051CC0048B9032F07D82368324629462046BDE844
:1051DC00F0415B691847BDE8F0812DE9F041069E6E
:1051EC009846089B07469E421546099C03D1079991
:1051FC0000F012F858B94146384600F00DF818B1D5
:10520C00012326602571A3710020BDE8F081657132
:10521C00FAE7704700207047814208B50ED040680D
:10522C0003782A2B0CD049680B782A2B08BF013144
:10523C00FAF786FFB0FA80F0400908BD012008BDDE
:10524C00002008BD07B5184A20F0004393420146E0
:10525C0003DC002100F054FA04E0B3F1FF4F04DB4F
:10526C00FBF71EFC03B05DF804FB694600F09EF8EA
:10527C0000F00302012A05D0022A0AD072B9019962
:10528C000098E7E70199009800F05CFD00F1004000
:10529C00E8E70199009800F033FAF7E70122019949
:1052AC00009800F04FFDDDE7D80F493F07B5194ACC
:1052BC0020F000439342014604DC0022002100F060
:1052CC0041FD04E0B3F1FF4F04DBFBF7E9FB03B056
:1052DC005DF804FB694600F069F800F00300012852
:1052EC0006D0022809D080B9012201990098E6E77E
:1052FC000199009800F004FAE9E70122019900985D
:10530C0000F020FD00F10040E1E70199009800F069
:10531C00F7F9F7E7D80F493FF0B58BB0044600F02A
:10532C009DF9204B064693F900506B1C2AD0214660
:10533C002046FBF785FE074620BB00212046FBF7E5
:10534C0057FEF8B101230093174B204601930897A1
:10535C00FBF764F80022CDE90401CDE9020100233A
:10536C009DB9CDE90623684600F062FDA8B1089B03
:10537C001BB100F0FDFD089B0360DDE90601FBF7A6
:10538C003BFB064630460BB0F0BD10461946FBF70A
:10539C00C3F9022DCDE90601E5D100F0E9FD212389
:1053AC000360E4E714000020BD6800082DE9F04F0D
:1053BC009D4A20F00045954287B00C46074604DC18
:1053CC00002320604B6000261AE0984A95424BDC83
:1053DC000028974925F00F05964E23DDFBF760FB5F
:1053EC00B542074610D09449FBF75AFB01462060A2
:1053FC003846FBF755FB9049FBF752FB01266060E2
:10540C00304607B0BDE8F08F8C49FBF749FB8C495F
:10541C000546FBF745FB014620602846FBF740FBA1
:10542C008749E9E7FBF73EFBB54207460ED08249B8
:10543C00FBF738FB014620603846FBF731FB7E4911
:10544C00FBF730FB4FF0FF366060D9E77B49FBF789
:10545C0029FB7B490546FBF725FB014620602846C6
:10546C00FBF71EFB7649EBE7764A954200F38C80FE
:10547C0000F0E0FC74498046FBF71CFC4FF07C51BB
:10548C00FBF710FBFBF7F2FD0646FBF7BFFB684989
:10549C008246FBF70FFC01464046FBF701FB6649D1
:1054AC0080465046FBF706FC1F2E81460CDC674AF3
:1054BC00711E52F8212025F0FF03934204D0494677
:1054CC004046FBF7EDFA09E049464046FBF7E8FA9F
:1054DC00ED15C0F3C753EB1A082B01DC206024E058
:1054EC0056495046FBF7E6FB814601464046FBF722
:1054FC00D7FA014683464046FBF7D2FA4946FBF7FA
:10550C00CFFA80464E495046FBF7D4FB4146FBF799
:10551C00C7FA014681465846FBF7C2FAC0F3C75397
:10552C00ED1A192D15DCD846206025684046294611
:10553C00FBF7B6FA4946FBF7B3FA002F6060BFF6EB
:10554C005FAF05F1004500F10040256060607642D8
:10555C0056E73F495046FBF7ADFB0546014658461A
:10556C00FBF79EFA014680465846FBF799FA294606
:10557C00FBF796FA054637495046FBF79BFB294645
:10558C00FBF78EFA81469AE7B5F1FF4F05DB014632
:10559C00FBF786FA6060206015E7EE15863EA5EBFA
:1055AC00C6552846FBF762FDFBF730FB014603901E
:1055BC002846FBF775FA4FF08741FBF77BFB8046DB
:1055CC00FBF754FDFBF722FB0146049005464046D1
:1055DC00FBF766FA4FF08741FBF76CFB0021059057
:1055EC00FBF7FCFCE8B100212846FBF7F7FC002890
:1055FC0014BF01230223184A21460192022203A858
:10560C000092324600F010F9002F0646BFF6F8AEB5
:10561C00236803F100432360636803F10043636074
:10562C0095E70323E7E700BFD80F493FE3CB1640CC
:10563C00800FC93FD00FC93F43443537004435373D
:10564C0008A3852E800F494384F9223FC4680008C3
:10565C0000A3852E32318D244469000820F00042CD
:10566C00B2F1FF4F70B50346044609D30146FBF770
:10567C0021FB01462046FBF715FA0446204670BD77
:10568C00002AFBD0002806DA0146FBF709FA01468E
:10569C00FBF7C4FBF1E7B2F5000F4FEAE05404D27C
:1056AC000022190229D5013AA41A7F3CE2074FF0D7
:1056BC0000024FEA640116464FF019044FF0807057
:1056CC00C3F3160343F4000348BF5B005B003518BB
:1056DC009D42DEBF2E185B1B1218013C4FEA4303A0
:1056EC004FEA5000F3D113B1013222F001025410F1
:1056FC0004F17C5404EBC154C0E75B000132D0E7E9
:10570C002DE9F84320F00044B4F1485F06460F46FB
:10571C0003DAFBF7ABFC002870D031463046FBF7C0
:10572C00C9FA05463749FBF7C5FA3749FBF7BAF909
:10573C002946FBF7BFFA3549FBF7B2F92946FBF7C7
:10574C00B9FA3349FBF7AEF92946FBF7B3FA3149FD
:10575C00FBF7A6F92946FBF7ADFA2F49FBF7A2F99F
:10576C002946FBF7A7FA2D4B80469C421DDC4FF0D7
:10577C007C512846FBF79EFA414604462846FBF727
:10578C0099FA394605463046FBF794FA0146284605
:10579C00FBF786F901462046FBF782F901464FF0EC
:1057AC007E50FBF77DF9BDE8F8831D4B4FF07E5022
:1057BC009C42CCBF1B4C04F17F442146FBF770F993
:1057CC004FF07C5181462846FBF774FA2146FBF7D3
:1057DC0067F9414604462846FBF76CFA39460546FC
:1057EC003046FBF767FA01462846FBF759F90146A4
:1057FC002046FBF755F901464846D2E74FF07E505C
:10580C00BDE8F8834ED747ADF6740F317CF2933474
:10581C00010DD037610BB63AABAA2A3D9999993E46
:10582C000000483F0000903E2DE9F04FD9B00493A2
:10583C000191B44B6299D41E53F821300025029388
:10584C00049B4FF0000B013B0393082394FBF3F4F0
:10585C0024EAE474661C029BA2EBC606039A05902C
:10586C0003EB0208639BA71A03EB87090DF1700A7F
:10587C00454510DD00254FF0000B0DF5887A029B95
:10588C009D4228DC049BD94603EB05081CAB03EBBB
:10589C008808002718E0EF4207D459F82500FBF7D9
:1058AC00B5F94AF825000135E2E75846F9E7059BBA
:1058BC0058F8041D53F82700FBF7FCF9014648463D
:1058CC00FBF7F0F881460137039B9F42EFDD4AF866
:1058DC0025900135D3E7029B08AA02EB83030793BB
:1058EC00639B029F03EB84030693BA464FF08748F1
:1058FC0058AB03EB870353F8504C07AD0DF5887983
:10590C00BAF1000F57DC3146204600F0D7FA4FF0C1
:10591C0078510446FBF7CEF900F090FA4FF0824133
:10592C00FBF7C8F901462046FBF7BAF80446FBF72B
:10593C009DFB8046FBF76AF901462046FBF7B0F861
:10594C00002E044655DD7B1E08AA52F82350C6F1E2
:10595C00080245FA02F0804490402D1A08AAC6F1BC
:10596C00070042F823500541002D50DD00229146DE
:10597C0008F10108974200F38580002E05DD012E09
:10598C0000F09780022E00F09E80022D3FD1214620
:10599C004FF07E50FBF784F80446B9F1000F36D077
:1059AC0031464FF07E5000F089FA01462046FBF755
:1059BC0077F804462BE04FF06E512046FBF77AF94E
:1059CC00FBF754FBFBF722F941468346FBF772F9D0
:1059DC0001462046FBF764F8FBF748FB0AF1FF3A57
:1059EC0045F8040F59F82A105846FBF75BF80446A3
:1059FC0086E705D17B1E08AA52F823502D12B3E777
:105A0C004FF07C51FBF708FB002839D105460021EB
:105A1C002046FBF7E3FA002800F098807C1E234612
:105A2C00002202998B4255DA002A6ED101236FF0C5
:105A3C00030101FB03F207988258002A50D06FF043
:105A4C000308049A7D1CD41958AA02EB8404F43C74
:105A5C001F440DF58879BD423FF747AF069B4FF0C9
:105A6C00000A53F82500FBF7D1F84FF0000B44F86F
:105A7C00040F039B9A4535DD49F825B00135EAE75B
:105A8C00022573E708AB53F82230B9F1000F09D1A6
:105A9C002BB1C3F5807308A941F8223001230132E0
:105AAC00994667E7C3F1FF0308A941F822304B463A
:105ABC00F5E77A1E08AB53F8223003F07F0308A9F0
:105ACC0041F8223061E77A1E08AB53F8223003F01C
