:020000040800F2
:1000000000500020E93B00087D3B00087F3B0008D2
:10001000813B0008833B0008853B0008000000008E
:10002000000000000000000000000000873B000806
:10003000893B0008000000008B3B00088D3B000856
:10004000313C0008313C0008313C0008313C0008DC
:10005000313C0008313C0008313C0008313C0008CC
:10006000313C0008313C0008313C0008313C0008BC
:10007000313C0008313C0008313C0008313C0008AC
:10008000313C0008313C0008313C0008313C00089C
:10009000313C0008313C0008313C0008313C00088C
:1000A000313C0008313C0008313C0008313C00087C
:1000B000F5320008313C0008313C0008313C0008B2
:1000C000313C0008313C0008313C0008313C00085C
:1000D000313C0008313C0008913B0008313C0008ED
:1000E000313C0008313C0008313C000800000000B1
:1000F0000000000000000000000000000000000000
:0C01000000000000000000005FF808F1A3
:10010C0010B5054C237833B9044B13B10448AFF345
:10011C0000800123237010BD540800200000000053
:10012C007858000808B5034B1BB103490348AFF3DB
:10013C00008008BD00000000580800207858000816
:10014C0081F0004102E000BF83F0004330B54FEA7C
:10015C0041044FEA430594EA050F08BF90EA020FE9
:10016C001FBF54EA000C55EA020C7FEA645C7FEA7C
:10017C00655C00F0E2804FEA5454D4EB5555B8BF9F
:10018C006D420CDD2C4480EA020281EA030382EA10
:10019C00000083EA010180EA020281EA0303362DA2
:1001AC0088BF30BD11F0004F4FEA01314FF4801C75
:1001BC004CEA113102D0404261EB410113F0004F87
:1001CC004FEA03334CEA133302D0524263EB43033E
:1001DC0094EA050F00F0A780A4F10104D5F1200EDC
:1001EC000DDB02FA0EFC22FA05F2801841F1000137
:1001FC0003FA0EF2801843FA05F359410EE0A5F10B
:10020C0020050EF1200E012A03FA0EFC28BF4CF03B
:10021C00020C43FA05F3C01851EBE37101F00045F1
:10022C0007D54FF0000EDCF1000C7EEB00006EEBFE
:10023C000101B1F5801F1BD3B1F5001F0CD3490888
:10024C005FEA30004FEA3C0C04F101044FEA4452DF
:10025C0012F5800F80F09A80BCF1004F08BF5FEA66
:10026C00500C50F1000041EB045141EA050130BD46
:10027C005FEA4C0C404141EB010111F4801FA4F1E9
:10028C000104E9D191F0000F04BF01460020B1FA3E
:10029C0081F308BF2033A3F10B03B3F120020CDA76
:1002AC000C3208DD02F1140CC2F10C0201FA0CF054
:1002BC0021FA02F10CE002F11402D8BFC2F1200CB9
:1002CC0001FA02F120FA0CFCDCBF41EA0C0190406F
:1002DC00E41AA2BF01EB0451294330BD6FEA0404B8
:1002EC001F3C1CDA0C340EDC04F11404C4F12002A3
:1002FC0020FA04F001FA02F340EA030021FA04F3B5
:10030C0045EA030130BDC4F10C04C4F1200220FA0B
:10031C0002F001FA04F340EA0300294630BD21FA49
:10032C0004F0294630BD94F0000F83F4801306BF0F
:10033C0081F480110134013D4EE77FEA645C18BF03
:10034C007FEA655C29D094EA050F08BF90EA020F9A
:10035C0005D054EA000C04BF1946104630BD91EA92
:10036C00030F1EBF0021002030BD5FEA545C05D195
:10037C004000494128BF41F0004130BD14F58004D4
:10038C003CBF01F5801130BD01F0004545F0FE4148
:10039C0041F470014FF0000030BD7FEA645C1ABF7D
:1003AC00194610467FEA655C1CBF0B46024650EAB4
:1003BC00013406BF52EA033591EA030F41F40021E0
:1003CC0030BD00BF90F0000F04BF0021704730B566
:1003DC004FF4806404F132044FF000054FF000013B
:1003EC0050E700BF90F0000F04BF0021704730B5FC
:1003FC004FF4806404F1320410F0004548BF4042D1
:10040C004FF000013EE700BF42004FEAE2014FEA25
:10041C0031014FEA02701FBF12F07F4393F07F4F00
:10042C0081F06051704732F07F4208BF704793F003
:10043C007F4F04BF41F40021704730B54FF4607416
:10044C0001F0004521F000411CE700BF50EA010219
:10045C0008BF704730B54FF000050AE050EA0102C2
:10046C0008BF704730B511F0004502D5404261EB32
:10047C0041014FF4806404F132045FEA915C3FF473
:10048C00D8AE4FF003025FEADC0C18BF03325FEA10
:10049C00DC0C18BF033202EBDC02C2F1200300FAC1
:1004AC0003FC20FA02F001FA03FE40EA0E0021FAE6
:1004BC0002F11444BDE600BF4FEA4102B2F1E04341
:1004CC0024BFB3F5001CDCF1FE5C0DD901F0004C2F
:1004DC004FEAC0024CEA5070B2F1004F40EB83007F
:1004EC0008BF20F00100704711F0804F21D113F1AB
:1004FC003872BCBF01F00040704741F480114FEAE4
:10050C005252C2F11802C2F1200C10FA0CF320FA6C
:10051C0002F018BF40F001004FEAC1234FEAD32389
:10052C0003FA0CFC40EA0C0023FA02F34FEA4303F3
:10053C00CCE77FEA625307D150EA01331EBF4FF07C
:10054C00FE4040F44000704701F0004040F0FE4097
:10055C0040F40000704700BF80F0004002E000BF94
:10056C0081F0004142001FBF5FEA410392EA030F92
:10057C007FEA226C7FEA236C6AD04FEA1262D2EBDC
:10058C001363C1BFD218414048404140B8BF5B42E1
:10059C00192B88BF704710F0004F40F4000020F07A
:1005AC007F4018BF404211F0004F41F4000121F090
:1005BC007F4118BF494292EA030F3FD0A2F10102DA
:1005CC0041FA03FC10EB0C00C3F1200301FA03F118
:1005DC0000F0004302D5494260EB4000B0F5000F3B
:1005EC0013D3B0F1807F06D340084FEA310102F1FA
:1005FC000102FE2A51D2B1F1004F40EBC25008BFAC
:10060C0020F0010040EA03007047490040EB000075
:10061C0010F4000FA2F10102EDD1B0FA80FCACF1A4
:10062C00080CB2EB0C0200FA0CF0AABF00EBC250A3
:10063C0052421843BCBFD0401843704792F0000F91
:10064C0081F4000106BF80F400000132013BB5E7E4
:10065C004FEA41037FEA226C18BF7FEA236C21D05A
:10066C0092EA030F04D092F0000F08BF08467047BF
:10067C0090EA010F1CBF0020704712F07F4F04D18D
:10068C00400028BF40F00040704712F100723CBFA0
:10069C0000F50000704700F0004343F0FE4040F4CA
:1006AC00000070477FEA226216BF08467FEA236388
:1006BC000146420206BF5FEA412390EA010F40F473
:1006CC00800070474FF0000304E000BF10F00043BF
:1006DC0048BF40425FEA000C08BF704743F09643A6
:1006EC0001464FF000001CE050EA010208BF7047C1
:1006FC004FF000030AE000BF50EA010208BF704748
:10070C0011F0004302D5404261EB41015FEA010C5C
:10071C0002BF84460146002043F0B64308BFA3F154
:10072C008053A3F50003BCFA8CF2083AA3EBC25336
:10073C0010DB01FA02FC634400FA02FCC2F1200255
:10074C00BCF1004F20FA02F243EB020008BF20F08C
:10075C000100704702F1200201FA02FCC2F12002F2
:10076C0050EA4C0021FA02F243EB020008BF20EAE7
:10077C00DC7070474FF0FF0C1CEAD0521EBF1CEA15
:10078C00D15392EA0C0F93EA0C0F6FD01A4480EA03
:10079C00010C400218BF5FEA41211ED04FF00063EC
:1007AC0043EA501043EA5111A0FB01310CF0004018
:1007BC00B1F5000F3EBF490041EAD3715B0040EA3E
:1007CC00010062F17F02FD2A1DD8B3F1004F40EB0E
:1007DC00C25008BF20F00100704790F0000F0CF0E1
:1007EC00004C08BF49024CEA502040EA51207F3AA5
:1007FC00C2BFD2F1FF0340EAC250704740F4000080
:10080C004FF00003013A5DDC12F1190FDCBF00F070
:10081C0000407047C2F10002410021FA02F1C2F11E
:10082C00200200FA02FC5FEA310040F1000053EABA
:10083C004C0308BF20EADC70704792F0000F00F008
:10084C00004C02BF400010F4000F013AF9D040EA0E
:10085C000C0093F0000F01F0004C02BF490011F4A2
:10086C00000F013BF9D041EA0C018FE70CEAD153A0
:10087C0092EA0C0F18BF93EA0C0F0AD030F0004C20
:10088C0018BF31F0004CD8D180EA010000F00040D4
:10089C00704790F0000F17BF90F0004F084691F092
:1008AC00000F91F0004F14D092EA0C0F01D14202CC
:1008BC000FD193EA0C0F03D14B0218BF084608D195
:1008CC0080EA010000F0004040F0FE4040F40000DF
:1008DC00704740F0FE4040F4400070474FF0FF0C72
:1008EC001CEAD0521EBF1CEAD15392EA0C0F93EAB9
:1008FC000C0F69D0A2EB030280EA010C49024FEA0B
:10090C00402037D04FF0805343EA111143EA1013C3
:10091C000CF000408B4238BF5B0042F17D024FF47B
:10092C00000C8B4224BF5B1A40EA0C00B3EB510F56
:10093C0024BFA3EB510340EA5C00B3EB910F24BF3F
:10094C00A3EB910340EA9C00B3EBD10F24BFA3EBC4
:10095C00D10340EADC001B0118BF5FEA1C1CE0D18C
:10096C00FD2A3FF650AF8B4240EBC25008BF20F03F
:10097C00010070470CF0004C4CEA50207F32C2BF93
:10098C00D2F1FF0340EAC250704740F400004FF030
:10099C000003013A37E792F0000F00F0004C02BF61
:1009AC00400010F4000F013AF9D040EA0C0093F02B
:1009BC00000F01F0004C02BF490011F4000F013B85
:1009CC00F9D041EA0C0195E70CEAD15392EA0C0FED
:1009DC0008D142027FF47DAF93EA0C0F7FF470AF25
:1009EC00084676E793EA0C0F04D14B023FF44CAF68
:1009FC0008466EE730F0004C18BF31F0004CCAD1FD
:100A0C0030F000427FF45CAF31F000437FF43CAF38
:100A1C005FE700BF4FF0FF3C06E000BF4FF0010C5A
:100A2C0002E000BF4FF0010C4DF804CD4FEA40023C
:100A3C004FEA41037FEA226C18BF7FEA236C11D086
:100A4C0001B052EA530C18BF90EA010F58BFB2EB39
:100A5C00030088BFC81738BF6FEAE17018BF40F0B9
:100A6C00010070477FEA226C02D15FEA402C05D16D
:100A7C007FEA236CE4D15FEA412CE1D05DF8040BF2
:100A8C00704700BF844608466146FFE70FB5FFF785
:100A9C00C9FF002848BF10F1000F0FBD4DF808ED3D
:100AAC00FFF7F4FF0CBF012000205DF808FB00BF2E
:100ABC004DF808EDFFF7EAFF34BF012000205DF888
:100ACC0008FB00BF4DF808EDFFF7E0FF94BF0120D5
:100ADC0000205DF808FB00BF4DF808EDFFF7D2FFD2
:100AEC0094BF012000205DF808FB00BF4DF808ED15
:100AFC00FFF7C8FF34BF012000205DF808FB00BFE2
:100B0C004FEA40024FEA41037FEA226C02D15FEACE
:100B1C00402C08D17FEA236C02D15FEA412C02D130
:100B2C004FF0000070474FF0010070474FEA400251
:100B3C00B2F1FE4F0FD34FF09E03B3EB12620DD9FF
:100B4C004FEA002343F0004310F0004F23FA02F069
:100B5C0018BF404270474FF00000704712F1610F10
:100B6C0001D1420205D110F0004008BF6FF00040E7
:100B7C0070474FF00000704738B50E4B054618789B
:100B8C004FF47A73B3FBF0F30B4A1068B0FBF3F03D
:100B9C0000F0FCF9044658B90F2D09D80246294635
:100BAC004FF0FF3000F0B2F92046044B1D6038BD09
:100BBC000120FCE7000000200800002004000020B9
:100BCC00074A08B51368032043F01003136000F0C4
:100BDC008BF90020FFF7D0FF02F072FE002008BD59
:100BEC0000200240034A044B11681B780B4413602D
:100BFC00704700BFFC0A002000000020014B186861
:100C0C00704700BFFC0A002038B5044600286ED09F
:100C1C0090F820300BB902F075FE2268136823F0AF
:100C2C0002031360FFF7EAFF054623685A68910731
:100C3C0051D41A6842F001021A60FFF7DFFF054633
:100C4C0023685A68D20754D5227E0020012A1A68DC
:100C5C000CBF42F0800222F080021A60627E012AF0
:100C6C001A680CBF42F0400222F040021A60A27EC9
:100C7C00012A1A680CBF42F0200222F020021A60EE
:100C8C00E27E012A1A680CBF22F0100242F0100218
:100C9C001A60227F012A1A680CBF42F0080222F067
:100CAC0008021A60627F012A1A680CBF42F0040223
:100CBC0022F004021A60D4E902210A4321690A4392
:100CCC0061690A43616801390A43DA610123606290
:100CDC0084F8203038BDFFF791FF401B0A28A4D9B7
:100CEC00636A43F400336362052384F820300120E7
:100CFC00F0E7FFF783FF401B0A28A1D9F0E790F833
:100D0C00203070B5013B012B5FD801240368D3F868
:100D1C00002242F00102C3F800224A69D3F81C52A7
:100D2C0002F01F0004FA00F0C4432540C3F81C5223
:100D3C00CD6985BBD3F80C52CE682540C3F80C5254
:100D4C008D8803EBC20245EA0645C2F840528E6814
:100D5C000D8845EA0645C2F844528A696ABBD3F845
:100D6C0004222240C3F804220A6952BBD3F814228D
:100D7C002240C3F814220A6A012A02BFD3F81C22AB
:100D8C001043C3F81C020020D3F8002222F0010209
:100D9C00C3F8002270BD012DDFD1D3F80C520E68C0
:100DAC000543C3F80C528D8803EBC20245EA064595
:100DBC00C2F840528E688D89CBE7D3F804220243E7
:100DCC00D0E7D3F814220243D3E7436A43F48023D9
:100DDC0043620120DEE738B590F820300446012B41
:100DEC001FD10223026880F82030136823F001031E
:100DFC001360FFF703FF05462368586810F00100E5
:100E0C0001D1606238BDFFF7F9FE401B0A28F3D907
:100E1C00636A43F400336362052384F820300120B5
:100E2C00F0E7436A43F400234362F8E7F0B590F827
:100E3C0020500668013D012DB46840D814F0E05FE5
:100E4C0039D0C4F30164032C4FF0010505D1436A7A
:100E5C0043F400034362012027E0A5401D60D1E963
:100E6C00020704F1180308BB086847EA40501B014D
:100E7C00F050086924013319C3F884010020097D5E
:100E8C003444012902BFD3F8841141F48071C3F8B2
:100E9C0084115168C4F88C111268C4F88821D3F8F5
:100EAC00802142F00102C3F88021F0BD4D68384327
:100EBC0040EAC500DBE7436A43F40013CAE7436A20
:100ECC0043F48023C6E790F82030013B012B05D872
:100EDC00026800205369194351617047436A43F417
:100EEC008023436201207047074A0002D36800F454
:100EFC00E06023F4E0631B041B0C43F0BF6343F47A
:100F0C0000330343D360704700ED00E0174B70B51E
:100F1C00DC684FF0FF36C4F30224C4F10705042D3E
:100F2C0004F1040328BF0425062B98BF002406FAFD
:100F3C0005F388BF033C21EA0303A34006FA04F43B
:100F4C0022EA0404002843EA0403A8BF00F160402D
:100F5C004FEA0313B8BF064ADBB2B5BF00F00F006F
:100F6C0000F56140135480F8003370BD00ED00E0D3
:100F7C0014ED00E00123420900F01F0003FA00F019
:100F8C00014B43F82200704700E100E00138B0F15A
:100F9C00807F0AD2F021064B064A586082F8231053
:100FAC000020072298601A6070470120704700BF2C
:100FBC0010E000E000ED00E090F8213010B5022BBD
:100FCC0003D004238363012010BD03681A6822F048
:100FDC000E021A601A6822F001021A60184A934233
:100FEC001FD0143293421ED0143293421DD01432AF
:100FFC0093421DD0143293421DD0143293420CBF35
:10100C004FF480134FF080730E4A00245360012379
:10101C0080F82130436B80F820407BB19847204604
:10102C00D2E70123F0E71023EEE74FF48073EBE7F0
:10103C004FF48053E8E74FF48033E5E71846C3E7F5
:10104C0008000240000002402DE9F74F002216462E
:10105C00654BDFF8A4C1DFF8A4E14FF001080C6880
:10106C0008FA06F808EA0404A0457ED14D68122D52
:10107C0000F0AE8000F28780022D00F0A6807BD8B5
:10108C00002D00F08D80012D00F09D804FF00F0998
:10109C00FF2C93BF824606F18045083DD0F800B086
:1010AC0092BFB500D0F804B0AD0009FA05F82BEAF0
:1010BC00080802FA05F588BF00F1040A48EA05059C
:1010CC00CAF80050D1F804A01AF0805F4DD0474FF9
:1010DC0026F00308BD6908F1804845F00105BD61A3
:1010EC00BD6908F5803805F00105019506F0030B84
:1010FC00019D4FEA8B0BD8F8085009FA0BF925EA39
:10110C0009093B4DA84268D005F58065A84266D018
:10111C0005F58065A84264D005F58065A8420CBF32
:10112C000325042505FA0BF545EA0905C8F808500E
:10113C001D681AF4803F14BF2543A5431D605D68EC
:10114C001AF4003F14BF2543A5435D609D681AF453
:10115C00801F14BF2543A5439D60DD681AF4001F52
:10116C0014BF2C4325EA0404DC600136102E7FF4F6
:10117C0074AF03B0BDE8F08F032D22D0112D85D1B3
:10118C00CA68043282E71B4FBD4209D012D8DFF87F
:10119C0070904D4504D009F580394D457FF476AFFC
:1011AC008A68C2B1012A0CBFC0F81080C0F8148044
:1011BC0008226BE76545F3D07545F1D0DFF8449014
:1011CC00EBE7002262E7CA6860E7CA6808325DE7AD
:1011DC00CA680C325AE7042258E70025A2E7012519
:1011EC00A0E702259EE700BF00040140001002406A
:1011FC0000080140000021100000311000003210E6
:10120C0000001110000022100AB10161704709049E
:10121C00FBE7000003682DE9F341DB07054610D41A
:10122C002B689F075ED42B68190700F195802B68FB
:10123C005A0700F1BF80EA69002A40F02D81002096
:10124C0014E0904C636803F00C03042B07D0636824
:10125C0003F00C03082B0CD16368DE0309D523685B
:10126C009C03DDD56B68002BDAD1012002B0BDE800
:10127C00F0816B68B3F5803F10D1236843F4803361
:10128C002360FFF7BBFC064623689803C8D4FFF71E
:10129C00B5FC801B6428F7D90320E7E79BB92368CA
:1012AC0023F480332360236823F480232360FFF727
:1012BC00A5FC064623689903B2D5FFF79FFC801B5B
:1012CC006428F7D9E8E7B3F5A02F236803D143F4DA
:1012DC0080232360D1E723F480332360236823F435
:1012EC008023CDE7674C636813F00C0F07D063685D
:1012FC0003F00C03082B10D16368DA030DD42368B8
:10130C009B0702D52B69012BAFD123686A6923F0A7
:10131C00F80343EAC203236085E72A695A4B6AB192
:10132C0001221A60FFF76AFC064623689F07ECD47B
:10133C00FFF764FC801B0228F7D9ADE71A60FFF7B2
:10134C005DFC0646236898077FF56DAFFFF756FCEA
:10135C00801B0228F6D99FE7AA694A4C4B4BDAB19D
:10136C0001221A60FFF74AFC0646636A9B070DD5FB
:10137C004FF4FA52464B1B68B3FBF2F3019300BFD8
:10138C00019B5A1E0192002BF9D150E7FFF736FC56
:10139C00801B0228E9D97FE71A60FFF72FFC06466D
:1013AC00636A9F077FF543AFFFF728FC801B022879
:1013BC00F6D971E7334CE369D80024D40127E369EB
:1013CC0043F08053E361E36903F080530093009B87
:1013DC00304E3368D90518D5EB68012B26D1236A1A
:1013EC0043F001032362FFF709FC41F28836804683
:1013FC00236A9B073FD5002F3FF41DAFE36923F011
:10140C008053E36117E70027E2E7336843F4807306
:10141C003360FFF7F3FB80463368DA05DCD4FFF763
:10142C00EDFBA0EB08006428F6D935E7ABB9236ACD
:10143C0041F2883823F001032362236A23F004036A
:10144C002362FFF7DBFB0646236A9807D3D5FFF729
:10145C00D5FB801B4045F7D91EE7052B236A03D12A
:10146C0043F004032362BAE723F001032362236AE7
:10147C0023F00403B6E7FFF7C1FBA0EB0800B04272
:10148C00B6D909E7001002400000424280044242F3
:10149C000800002000700040224C636803F00C032D
:1014AC00082B3FF4E2AE00231F4E022A33602BD1EF
:1014BC00FFF7A4FB0746236899011FD42B6AB3F5E9
:1014CC00803F05D16268A96822F400320A43626049
:1014DC00696A62680B4322F474121343636001233C
:1014EC003360FFF78BFB054623689A013FF5A7AEE7
:1014FC00FFF784FB401B0228F6D9CDE6FFF77EFBF5
:10150C00C01B0228D7D9C7E6FFF778FB054623682E
:10151C009B017FF594AEFFF771FB401B0228F6D9B7
:10152C00BAE600BF001002406000424230B5184BD2
:10153C0087B002AC03F110052246186859680833CD
:10154C0003C2AB421446F7D140F201231149ADF866
:10155C0004304B6803F00C02082A17D1C3F3834202
:10156C0006A80244DB0312F8102C0CD54B680A4871
:10157C00C3F34043504306AA134413F8143CB0FB86
:10158C00F3F007B030BD05485043FAE70248F8E7DE
:10159C00905800080010024000127A0000093D002B
:1015AC00534A2DE9F0411368054603F007038B42BB
:1015BC000E4628D329688C0732D4CA0745D44C4A26
:1015CC00136803F00703B3427FD82A68494C12F022
:1015DC00040F40F08580130706D563682A6923F44D
:1015EC00605343EAC2036360FFF7A0FF6368424A9B
:1015FC00C3F30313D35CD840404B18600020FFF7B3
:10160C00BBFA00200AE0136823F007030B431360B6
:10161C00136803F007038B42CCD00120BDE8F081A6
:10162C00344B11F0040F1EBF5A6842F4E0625A604A
:10163C00080742BF5A6842F460525A605A68A86858
:10164C0022F0F00202435A60B7E76A68294C012A7B
:10165C0023681BD113F4003FDFD0636841F2883854
:10166C0023F0030313436360FFF7C8FA6B68074664
:10167C00012B13D1636803F00C03042B9FD0FFF7ED
:10168C00BDFAC01B4045F5D90320C7E7022A02D199
:10169C0013F0007FE0E713F0020FDDE7022B0FD110
:1016AC00636803F00C03082B89D0FFF7A7FAC01B63
:1016BC004045F5D9E8E7FFF7A1FAC01B4045E3D850
:1016CC00636813F00C0FF6D179E7136823F0070366
:1016DC0033431360136803F00703B3429DD174E7DF
:1016EC006368E96823F4E0630B43636073E700BF4E
:1016FC000020024000100240A05800080800002002
:10170C00044B054A5B68C3F30223D35C034A10689D
:10171C00D840704700100240B05800080800002064
:10172C00044B054A5B68C3F3C223D35C034A1068BD
:10173C00D840704700100240B05800080800002044
:10174C0010B50446002834D00023836290F8513041
:10175C000BB902F01BF90223216884F851300B6895
:10176C00A26923F040030B60D4E901300343E06825
:10177C0003432069034360690343E0690343206A20
:10178C000343A06A034302F4007003430B60120C82
:10179C00636A02F004021A43E36A4A600B61CB6984
:1017AC00002023F40063CB610123606584F8513081
:1017BC0010BD0120FCE703680020DA6842F001024A
:1017CC00DA601A6842F001021A607047036889B146
:1017DC00042907D01A6A22F001021A621A6A42F02E
:1017EC0001021A621A6A22F010021A621A6A42F094
:1017FC00100206E01A6A22F001021A621A6A42F01A
:10180C0001021A621A68002042F001021A60704745
:10181C0090F83C3070B5012B4FF002031CD0012224
:10182C0080F83D30036880F83C209A6822F47F42AF
:10183C0022F077029A600A68402A79D019D8102AC7
:10184C0000F093800AD8002A00F08980012380F8E8
:10185C003D30002380F83C30184670BD202A00F043
:10186C008A80302AF2D19A6822F0700242F0370254
:10187C0036E0702A36D01BD8502A42D0602AE5D1E7
:10188C001C6A4D6824F01004CE681C6299691A6AAF
:10189C0021F4704122F0A00242EA051241EA06311D
:1018AC0099611A629A6822F0700242F0670217E09E
:1018BC00B2F5805F11D0B2F5005FC7D1D1E901520A
:1018CC009C68C9682A4324F47F4442EA01222243DB
:1018DC009A609A6842F4804202E09A6822F0070209
:1018EC009A60B3E79C68D1E90152C9682A4324F491
:1018FC007F4442EA012222439A609A6842F07702BE
:10190C00EEE74C68CE68196A1D6A21F00A0125F0D1
:10191C0001051D629A69214322F0F00242EA061287
:10192C009A6119629A6822F0700242F05702D7E766
:10193C004C68CE68196A1D6A21F00A0125F0010570
:10194C001D629A69214322F0F00242EA06129A6162
:10195C0019629A6822F0700242F04702C0E79A6856
:10196C0022F0700242F00702BAE79A6822F0700285
:10197C0042F01702B4E79A6822F0700242F0270294
:10198C00AEE700001A4A036890420AD0B0F1804FCB
:10199C0007D0A2F59432904203D002F580629042B7
:1019AC0015D14A6823F070031343114A90420AD0B0
:1019BC00B0F1804F07D0A2F59432904203D002F5DB
:1019CC008062904203D1CA6823F4407313434A697E
:1019DC0023F08003134303608B68C3620B6883623C
:1019EC00034B984204BF0B690363012343617047A7
:1019FC00002C014010B50446A0B190F83D3003F026
:101A0C00FF021BB980F83C2002F058F80223206832
:101A1C0084F83D30211DFFF7B5FF0123002084F829
:101A2C003D3010BD0120FCE7F8B50C4605460028FA
:101A3C0041D090F83D3003F0FF021BB980F83C20F8
:101A4C0001F0E0FF2946022351F8040B85F83D30E4
:101A5C00836823F007038360FFF794FF28682368EB
:101A6C0086688269A1681E43A36922F4407222F041
:101A7C00030241EA0323134323F47C422369E16903
:101A8C001B0143EA0123E168076A0B43216A22F038
:101A9C00FC0243EA01331343616927F0AA02676829
:101AAC00866047EA01178361174301230762002010
:101ABC0085F83D30F8BD0120FCE790F83C3010B5BE
:101ACC00012B4FF0020318D080F83D3003680C68EE
:101ADC005A68496822F070025A605A6822435A6068
:101AEC009A6822F080029A609A680A439A600123ED
:101AFC0080F83D30002380F83C30184610BD036858
:101B0C00DA6822F49072DA605A6922F001025A61A2
:101B1C00202380F83A3070472DE9F843804603685B
:101B2C00C1681A69192422F440520A431A61826866
:101B3C000069D9680243D8F8140021F4B05121F09F
:101B4C000C0102430A43DA605A69D8F8181022F4DF
:101B5C0040720A435A613E4A934247D1FFF7E0FD77
:101B6C0004FB00F3D8F804606427B600B3FBF6F36B
:101B7C00B3FBF7F31E01FFF7D3FD6043D8F8043035
:101B8C009B00B0FBF3F5FFF7CBFD6043D8F80430B6
:101B9C009B00B0FBF3F3B3FBF7F307FB13531B01F1
:101BAC003233B3FBF7F303F0F005FFF7B9FD6043F5
:101BBC00D8F804209200B0FBF2F9FFF7B1FD6043B6
:101BCC00D8F80430D8F800209B00B0FBF3F3B3FB3B
:101BDC00F7F307FB13931B013233B3FBF7F303F05B
:101BEC000F032B4333449360BDE8F883FFF788FD64
:101BFC0004FB00F3D8F804606427B600B3FBF6F3DB
:101C0C00B3FBF7F31E01FFF77BFD6043D8F80430FC
:101C1C009B00B0FBF3F5FFF773FD6043D8F804307D
:101C2C009B00B0FBF3F3B3FBF7F307FB13531B0160
:101C3C003233B3FBF7F303F0F005FFF761FD6043BC
:101C4C00D8F804209200B0FBF2F9FFF759FDB6E783
:101C5C000038014010B5044640B390F8393003F019
:101C6C00FF021BB980F8382001F040FF24232268C2
:101C7C0084F83930D368204623F40053D360FFF73F
:101C8C004BFF236800201A6922F490421A615A69AA
:101C9C0022F02A025A61DA6842F40052DA602023F8
:101CAC00E06384F8393084F83A3010BD0120FCE749
:101CBC007047704790F83A3010B5222B33D18168B9
:101CCC000469B1F5805F836A026823D15268ECB96C
:101CDC00C2F3080223F8022B8362C48D013CA4B228
:101CEC00C4858CB90368DA6822F02002DA60DA68FD
:101CFC0022F48072DA605A6922F001025A612023C0
:101D0C0080F83A30FFF7D5FF00200DE0D2B223F86F
:101D1C00012BE1E7591C526881620CB91A70DCE79F
:101D2C0002F07F02FAE7022010BD7047036870B51D
:101D3C001A6804461607D9685D6907D1960658D506
:101D4C008D0656D5BDE87040FFF7B4BF15F0010500
:101D5C0002D111F4907F4CD0D30705D5CE0542BFEC
:101D6C00E36B43F00103E363500704D51DB1E36B50
:101D7C0043F00203E363930704D51DB1E36B43F017
:101D8C000403E363160704D51DB1E36B43F00803AA
:101D9C00E363E36B43B3950604D5880602D520466E
:101DAC00FFF788FF236820465D69E26B110702D4B8
:101DBC0015F0400519D0FFF7A2FE23685A695206A8
:101DCC000FD55A69606B22F040025A6148B1264B1C
:101DDC004363FFF7F1F838B1606BBDE87040436BBB
:101DEC0018472046FFF7A1FF70BDFFF79EFFE56384
:101DFC00FAE7160628D50D0626D594F83920212A9F
:101E0C00F2D1A168226AB1F5805F18D11188C1F3B3
:101E1C0008015960216981B902322262E28C013ACF
:101E2C0092B2E284002ADFD1DA6822F08002DA6012
:101E3C00DA6842F04002DA60D6E70132EDE7511C75
:101E4C00216212785A60E9E75006CDD54A06CBD507
:101E5C00DA68204622F04002DA60202384F8393018
:101E6C00FFF726FFC0E700BF791E000808B5002366
:101E7C00406AC385C384FFF758FF08BD80B485B0A2
:101E8C0000AFF860B9607A603B60FB68BA681A60B2
:101E9C00FB687A685A60FB683A689A60FB684FF096
:101EAC000002DA60FB6818461437BD4680BC7047E8
:101EBC0080B483B000AF78600B46FB707B681B6806
:101ECC009B6803F00203002B0CBF01230023DBB241
:101EDC00002B00D0F2E77B681B68FA78DA607B682D
:101EEC001B689B6803F00103002B0CBF012300232C
:101EFC00DBB2002B00D0F2E77B681B68DB68DBB23F
:101F0C0018460C37BD4680BC704780B483B000AF18
:101F1C0078607B689A687B685B6812041A6100BF02
:101F2C000C37BD4680BC704780B483B000AF78607E
:101F3C007B685B687A6892681A6100BF0C37BD4693
:101F4C0080BC704780B584B000AF78600B46FB70E6
:101F5C0013463B800023FB817868FFF7D6FFFB78A4
:101F6C0019467868FFF7A4FF3B881B0A9BB2DBB2CB
:101F7C0019467868FFF79CFF03469BB21B029BB285
:101F8C00FB813B88DBB219467868FFF791FF03466B
:101F9C009AB2FB899BB213439BB2FB817868FFF723
:101FAC00C3FFFB899BB218461037BD4680BD0000AD
:101FBC0080B483B000AF78607B68104A1A607B688D
:101FCC004FF07E525A607B684FF000029A607B683B
:101FDC004FF00002DA607B684FF000021A617B68F8
:101FEC004FF06C525A617B68002283F824207B6886
:101FFC0018460C37BD4680BC704700BFCDCCCC3DDD
:10200C0090B59BB000AFF860B9607A603B606749EF
:10201C00B868FEF7AFFB0346BB6064497868FEF70F
:10202C00A9FB03467B6061493868FEF7A3FB0346B6
:10203C003B60FB689B6883F00043B9681846FEF769
:10204C0099FB03461C46FB68DB6879681846FEF76B
:10205C0091FB034619462046FEF782FA03461C46BE
:10206C00FB681B6939681846FEF784FB0346194662
:10207C002046FEF775FA03464FF07C511846FEF7E2
:10208C0079FB03467B66FB685B68B9681846FEF70C
:10209C0071FB03461C46FB68DB6839681846FEF783
:1020AC0069FB034619462046FEF75CFA03461C46BC
:1020BC00FB681B6979681846FEF75CFB03461946FA
:1020CC002046FEF74DFA03464FF07C511846FEF7BA
:1020DC0051FB03463B66FB685B6879681846FEF764
:1020EC0049FB03461C46FB689B6839681846FEF79B
:1020FC0041FB034619462046FEF732FA03461C46BE
:10210C00FB681B69B9681846FEF734FB0346194691
:10211C002046FEF727FA03464FF07C511846FEF78F
:10212C0029FB0346FB65FB685B6839681846FEF7BC
:10213C0021FB03461C46FB689B6879681846FEF732
:10214C0019FB034619462046FEF70CFA03461C46BB
:10215C00FB68DB68B9681846FEF70CFB03461946AA
:10216C002046FEF7FDF903464FF07C511846FEF76A
:10217C0001FB0346BB654FF00001B86FFEF78EFC08
:10218C000346002B14D04FF00001F86FFEF786FCCD
:10219C000346002B0CD04FF00001D7F88000FEF75F
:1021AC007DFC0346002B40F0318201E039FA8E3C75
:1021BC00B96FB86FFEF7DEFA03461C46F96FF86F7D
:1021CC00FEF7D8FA034619462046FEF7CBF903462C
:1021DC001C46D7F88010D7F88000FEF7CBFA0346E0
:1021EC0019462046FEF7BEF90346184600F0BCFA25
:1021FC007865796DB86FFEF7BDFA0346BB67796DEC
:10220C00F86FFEF7B7FA0346FB67796DD7F88000D5
:10221C00FEF7B0FA0346C7F88030FB685B681946D6
:10222C001846FEF79FF903463B65FB689B68194609
:10223C001846FEF797F90346FB64FB68DB68194602
:10224C001846FEF78FF90346BB64FB681B691946F9
:10225C001846FEF787F903467B64FB685B684FF012
:10226C0081411846FEF786FA03463B64FB689B687F
:10227C004FF081411846FEF77DFA0346FB63FB687D
:10228C00DB684FF081411846FEF774FA0346BB63D6
:10229C00FB689B684FF082411846FEF76BFA0346C9
:1022AC007B63FB68DB684FF082411846FEF762FAED
:1022BC0003463B63FB685A68FB685B68194610462B
:1022CC00FEF758FA0346FB62FB689A68FB689B684A
:1022DC0019461046FEF74EFA0346BB62FB68DA68F5
:1022EC00FB68DB6819461046FEF744FA03467B622E
:1022FC00FB681A69FB681B6919461046FEF73AFA27
:10230C0003463B62796A386CFEF734FA03461C4686
:10231C00B96FB86CFEF72EFA034619462046FEF745
:10232C0021F903461C46B96A386CFEF723FA0346BA
:10233C0019462046FEF716F903461C46F96FF86C51
:10234C00FEF718FA034619462046FEF709F903462C
:10235C00FB61396AF86BFEF70DFA03461C46B96F40
:10236C00786CFEF707FA034619462046FEF7F8F894
:10237C0003461C464FF08141F86AFEF7FBF9034611
:10238C001A46FB689B6819461046FEF7F3F903469C
:10239C0019462046FEF7E6F803461C46F96F386DE1
:1023AC00FEF7E8F9034619462046FEF7D9F803462E
:1023BC00F96B1846FEF7D4F803461C46B96A786BDD
:1023CC00FEF7D8F9034619462046FEF7CBF803462C
:1023DC001C46796A786BFEF7CDF903461946204600
:1023EC00FEF7C0F803461C46D7F88010F86BFEF7D2
:1023FC00C1F9034619462046FEF7B4F80346BB6103
:10240C004FF08141F86AFEF7B5F903461A46FB68AE
:10241C00DB6819461046FEF7ADF903461C46B96F4A
:10242C00386DFEF7A7F9034619462046FEF79AF8D1
:10243C0003461C46396AB86BFEF79CF903461946ED
:10244C002046FEF78FF803461C46F96F786CFEF7B2
:10245C0091F9034619462046FEF782F80346B96BFC
:10246C001846FEF77DF803461C46B96A386BFEF732
:10247C0081F9034619462046FEF774F803461C46BC
:10248C00796A386BFEF776F9034619462046FEF753
:10249C0069F803461C46D7F88010B86BFEF76AF94A
:1024AC00034619462046FEF75DF803467B614FF064
:1024BC008141B86AFEF75EF903461A46FB681B6950
:1024CC0019461046FEF756F903461C46B96FF86CD0
:1024DC00FEF750F9034619462046FEF741F803462D
:1024EC001C464FF08141786AFEF744F903461A46C0
:1024FC00FB681B6919461046FEF73CF90346194662
:10250C002046FEF72FF803461C46F96FB86CFEF711
:10251C0031F9034619462046FEF722F803463B6183
:10252C00F969F869FEF726F903461C46B969B869DA
:10253C00FEF720F9034619462046FEF713F803462A
:10254C001C4679697869FEF715F903461946204649
:10255C00FEF708F803461C4639693869FEF70AF994
:10256C00034619462046FDF7FDFF0346184600F0CA
:10257C00FBF87865796DF869FEF7FCF80346FB61AA
:10258C00796DB869FEF7F6F80346BB61796D786929
:10259C00FEF7F0F803467B61796D3869FEF7EAF8CF
:1025AC0003463B61FB681B68F9691846FEF7E2F8C5
:1025BC0003461946786EFDF7D3FF03467B66FB682E
:1025CC001B68B9691846FEF7D5F803461946386EEC
:1025DC00FDF7C6FF03463B66FB681B687969184626
:1025EC00FEF7C8F803461946F86DFDF7B9FF034628
:1025FC00FB65FB681B6839691846FEF7BBF8034698
:10260C001946B86DFDF7ACFF0346BB65FB685C680B
:10261C00FB685B69796E1846FEF7ACF80346194601
:10262C002046FDF79FFF03461A46FB685A60FB687D
:10263C009C68FB685B69396E1846FEF79BF803468D
:10264C0019462046FDF78EFF03461A46FB689A6032
:10265C00FB68DC68FB685B69F96D1846FEF78AF865
:10266C00034619462046FDF77DFF03461A46FB68D4
:10267C00DA60FB681C69FB685B69B96D1846FEF78C
:10268C0079F8034619462046FDF76CFF03461A46B7
:10269C00FB681A61FB685A68FB685B681946104650
:1026AC00FEF768F803461C46FB689A68FB689B6853
:1026BC0019461046FEF75EF8034619462046FDF70C
:1026CC0051FF03461C46FB68DA68FB68DB68194659
:1026DC001046FEF74FF8034619462046FDF742FF19
:1026EC0003461C46FB681A69FB681B6919461046B1
:1026FC00FEF740F8034619462046FDF733FF034624
:10270C00184600F031F87865FB685B68796D1846FF
:10271C00FEF730F803461A46FB685A60FB689B6864
:10272C00796D1846FEF726F803461A46FB689A6040
:10273C00FB68DB68796D1846FEF71CF803461A46F1
:10274C00FB68DA60FB681B69796D1846FEF712F8B6
:10275C0003461A46FB681A61FB68002283F82420A2
:10276C0000BF6C37BD4690BD80B586B000AF7860B9
:10277C004FF07C517868FDF7FDFF03467B617B6869
:10278C003B6107F110031B68FB60FB685A10214B7F
:10279C009B1AFB6007F10C031B683B613B69796971
:1027AC001846FDF7E7FF03461A463B6919461046E3
:1027BC00FDF7E0FF034619464FF07F50FDF7D0FEC2
:1027CC0003461A463B6919461046FDF7D3FF0346EC
:1027DC003B613B6979691846FDF7CCFF03461A4605
:1027EC003B6919461046FDF7C5FF034619464FF0E5
:1027FC007F50FDF7B5FE03461A463B691946104655
:10280C00FDF7B8FF03463B613B6918461837BD46D8
:10281C0080BD00BFDF59375FB0B582B000AF7860C4
:10282C007B685A687B689B6819461046FDF7A2FFC7
:10283C0003461C467B68DA687B681B6919461046A0
:10284C00FDF798FF034619462046FDF78BFE03461D
:10285C001C467B689A687B689B6819461046FDF796
:10286C0089FF034619464FF07C50FDF779FE03466D
:10287C001D467B68DA687B68DB6819461046FDF7F5
:10288C0079FF034619462846FDF76AFE03461946AA
:10289C00204601F099FA02467B689A617B689A6837
:1028AC007B681B6919461046FDF764FF03461C46FE
:1028BC007B685A687B68DB6819461046FDF75AFF3F
:1028CC00034619462046FDF74BFE03464FF04041A8
:1028DC001846FDF74FFF0346184601F027FA02464B
:1028EC007B68DA617B689A687B68DB6819461046FE
:1028FC00FDF740FF03461C467B685A687B681B69E2
:10290C0019461046FDF736FF034619462046FDF7DB
:10291C0029FE03461C467B68DA687B68DB6819462F
:10292C001046FDF727FF034619464FF07C50FDF784
:10293C0017FE03461D467B681A697B681B6919469E
:10294C001046FDF717FF034619462846FDF708FE0B
:10295C0003461946204601F037FA02467B681A6294
:10296C007B68012283F8242000BF0837BD46B0BD28
:10297C0080B582B000AF78607B6893F82430002B70
:10298C0002D17868FFF748FF7B681B6A1846083746
:10299C00BD4680BD90B583B000AF78607B680022E7
:1029AC00DA607B684FF000021A607B684FF000021F
:1029BC005A607B684FF000029A60102001F033F9E6
:1029CC0003461C464FF48053054A06492046FFF740
:1029DC0055FA7B68DC607B6818460C37BD4690BDA9
:1029EC00000C01400038004090B587B000AF786013
:1029FC003B4B5B6A1BB27B81394B00225A62394BD1
:102A0C005B6A9BB25B429BB21BB23B81354B002293
:102A1C005A627B689B687B61786901F01DF93861AB
:102A2C00786901F04DF9F8607B891BB21846FDF707
:102A3C004DFE034639691846FDF79CFE03461C46BD
:102A4C003B891BB21846FDF741FE0346F968184650
:102A5C00FDF790FE034619462046FDF781FD03461F
:102A6C0021491846FDF786FE03461A467B681B680B
:102A7C0019461046FDF776FD03461A467B681A6028
:102A8C007B891BB21846FDF721FE0346F9681846F0
:102A9C00FDF770FE03461C463B891BB21846FDF73A
:102AAC0015FE034639691846FDF764FE03461946C0
:102ABC002046FDF757FD03460B491846FDF75AFE15
:102ACC0003461A467B685B6819461046FDF74AFDBB
:102ADC0003461A467B685A6000BF1C37BD4690BD42
:102AEC0000040040000800407E2ED139B0B594B0EF
:102AFC0004AF78607B68DB680022C3211846FFF7BF
:102B0C0021FA03461BB21A464FF47A7303FB02F305
:102B1C001846FDF7DBFD0346B8491846FDF7DEFE07
:102B2C0003464FF07C511846FDF71CFD0346184632
:102B3C00FDF7FCFF03463B627B68DB680022C52186
:102B4C001846FFF7FFF903461BB21A464FF47A7387
:102B5C0003FB02F31846FDF7B9FD0346A7491846D7
:102B6C00FDF7BCFE03464FF07C511846FDF7FAFC0E
:102B7C0003461846FDF7DAFF03467B627B68DB6889
:102B8C000022C7211846FFF7DDF903461BB21A468F
:102B9C004FF47A7303FB02F31846FDF797FD0346D7
:102BAC0096491846FDF79AFE03464FF07C5118469D
:102BBC00FDF7D8FC03461846FDF7B8FF0346BB6289
:102BCC007B68DB680022BB211846FFF7BBF9034684
:102BDC001BB21A464FF47A7303FB02F3002B01DA93
:102BEC0003F2FF73DB121846FDF770FD03464FF03E
:102BFC007C511846FDF7B6FC03461846FDF796FFC8
:102C0C000346FB627B68DB680022BD211846FFF798
:102C1C0099F903461BB21A464FF47A7303FB02F37D
:102C2C00002B01DA03F2FF73DB121846FDF74EFDA1
:102C3C0003464FF07C511846FDF794FC03461846AA
:102C4C00FDF774FF03463B637B68DB680022BF2102
:102C5C001846FFF777F903461BB21A464FF47A73FE
:102C6C0003FB02F3002B01DA03F2FF73DB121846AD
:102C7C00FDF72CFD03464FF07C511846FDF772FC16
:102C8C0003461846FDF752FF03467B630023FB63A4
:102C9C00FB6B022B77DCFB6B9B0007F140021344B0
:102CAC0053F8202C7B68F96B043153F82130D11A7E
:102CBC007B68FA6B0A3243F822107B68FA6B0A3293
:102CCC0053F8223013F1FA0F06DB7B68FA6B0A32E9
:102CDC0053F82230FA2B16DD7B68FA6B0A3253F864
:102CEC0022301846FDF7F2FC034645491846FDF71D
:102CFC00F5FD03461A46FB6B9B0007F140010B44A4
:102D0C0043F8382C3BE0FB6B9B0007F1400213446B
:102D1C004FF0000243F8382C7B68FA6B043253F8FE
:102D2C0022301846FDF7D2FC034636491846FDF70B
:102D3C0021FD03461C46FB6B9B0007F1400213442C
:102D4C0053F8203C1846FDF7C1FC03462E491846A3
:102D5C00FDF710FD034619462046FDF703FC03461C
:102D6C004FF07C511846FDF7FDFB03461846FDF766
:102D7C00DDFE01467B68FA6B043243F82210FB6BD4
:102D8C000133FB6384E70323BB63BB6B052B1BDCA9
:102D9C00BB6B9B0007F14002134453F8203C1846D0
:102DAC00FDF794FC034616491846FDF797FD0346BC
:102DBC001A46BB6B9B0007F140010B4443F8382CBF
:102DCC00BB6B0133BB63E0E7B868FC683D697B69AA
:102DDC00BA69F9690291019200932B462246014689
:102DEC000A48FFF70DF90948FFF7C2FD02467B6858
:102DFC009A6000BF4037BD46B0BD00BF33330342BD
:102E0C0000007A44A4707D3F0AD7233C7008002050
:102E1C0080B582B000AF78607868FFF7E5FD786820
:102E2C00FFF764FE00BF0837BD4680BD80B485B097
:102E3C0000AFF860B9607A603B60FB681A68BB68E9
:102E4C001A60FB685A687B681A60FB689A683B6872
:102E5C001A6000BF1437BD4680BC704780B582B085
:102E6C0000AF786039607B68012B07D13B684FF667
:102E7C00FF72934202D10348FFF79AF800BF08375C
:102E8C00BD4680BD7008002080B500AF4FF6FF71C5
:102E9C000120FFF7E3FF80BD80B400AF064B30226A
:102EAC001A60064B064A1A60064B00221A7000BFC5
:102EBC00BD4680BC704700BFC0080020280A002017
:102ECC0000640040C408002080B582B000AF786078
:102EDC0039607B685B019BB2244A1360234B1A68F0
:102EEC007B681B0E1344214A1360204B5A687B6885
:102EFC00DB0023F47F5323F03F0313441B4A53603E
:102F0C003B685B019BB2194A9360184B9A683B680B
:102F1C001B0E1344154A9360144BDA683B68DB00B4
:102F2C0023F47F5323F03F031344104AD3600F4B19
:102F3C0000229A610D4B0122DA610C4B00225A617E
:102F4C000A4B00221A61094B00225A62074B0122DC
:102F5C001A62074B1B78012B03D104490548FDF776
:102F6C00CEFE00BF0837BD4680BD00BF98080020CC
:102F7C00C4080020280A002080B500AF284B1B781D
:102F8C00002B48D1274B1B68274A5360264B002245
:102F9C009A60254B0022DA60234B4FF440321A61C1
:102FAC00214B4FF400125A611F4B00221A761E4B14
:102FBC0001225A761C4B00229A761B4B0122DA76A0
:102FCC00194B00221A77184B00225A771648FDF736
:102FDC001BFE134B01221A7000210020FFF774FF17
:102FEC001148FDF7F8FE0346002B14BF0123002304
:102FFC00DBB2002B01D000F00DFC02210A48FDF7DA
:10300C0062FF0346002B14BF01230023DBB2002B0D
:10301C0001D000F0FFFB054B02221A6100BF80BDFE
:10302C00C4080020C0080020280A0020000C014021
:10303C0080B483B000AF0346FB71244B1B78012B8B
:10304C003ED0FB79082B3CD801A252F823F000BFEC
:10305C00813000088B300008933000089B3000084A
:10306C00A3300008AB300008B3300008BB300008B8
:10307C00C3300008164B4FF4E1721A6021E0144B78
:10308C00E1221A601DE0124B5A221A6019E0104B13
:10309C002D221A6015E00E4B24221A6011E00C4B05
:1030AC0012221A600DE00A4B09221A6009E0084B43
:1030BC0006221A6005E0064B04221A6000BF00E0ED
:1030CC0000BF0C37BD4680BC704700BFC408002051
:1030DC00C008002080B584B000AF7860396007F17B
:1030EC0008033A6879680648FDF7A0FE0346FB60C2
:1030FC0000F008F8FB6818461037BD4680BD00BFCD
:10310C00280A002010B5094C23686BB9FDF776FD31
:10311C00074B1B68C01A0A2806D94FF40052054BFE
:10312C001A61FDF76BFD206010BD00BFCC080020BC
:10313C00C80800200010014010B50A4C23687BB170
:10314C00FDF75CFD2368C01A0A2809D94FF000521C
:10315C00054B1A6100232360FDF750FD034B1860EB
:10316C0010BD00BFCC08002000100140C808002092
:10317C0080B483B000AF03463960FB7197F9073018
:10318C00002B0CDA3B68DAB20D4997F9073003F0E3
:10319C000F03043B1201D2B20B441A760BE03B68CE
:1031AC00DBB2084A97F9071008461B01D9B213186D
:1031BC000A4683F8002300BF0C37BD4680BC70471D
:1031CC0000ED00E000E100E080B582B000AFFDF75B
:1031DC00F7FC00F0B1FA00F025FA00F0C5F900F0A8
:1031EC0065F900F027F900F079FAFFF755FE012197
:1031FC004FF0FF30FFF7BCFF00F0CCF82E4B1B68F4
:10320C002D4A43F0400313602C48FEF7D4FA1821E2
:10321C002B48FEF7DBFA18212A48FEF7D7FA0620CE
:10322C00FFF706FFFFF7A8FE1C20FDF7A3FE00F03A
:10323C007DF800237B60FDF7E1FC02467B68D31A26
:10324C00632B8CBF01230023DBB2002BF3D01E4B6E
:10325C0018681E4B1E4A1F49FFF7E8FD1D4B1B68E3
:10326C0019461D4800F0DCFA194B1B6819461B481F
:10327C0000F0D6FA154B1B681946194800F0D0FA25
:10328C0015491848FFF726FF00BF00BF00BF00BF5D
:10329C0000BF00BF00BF00BF00BF00BF00BF00BF2A
:1032AC0000BF00BF00BF00BF00BF00BF00BF00BF1A
:1032BC00FDF7A4FC7860BEE7003800402809002028
:1032CC0068090020A8090020980A0020BC0A0020E8
:1032DC00B80A0020B40A00209C0A0020A40A00208E
:1032EC00AC0A0020500A002080B500AF4FF080439C
:1032FC001B6903F00103002B14BF01230023DBB275
:10330C00002B0CD0084B1B681846FFF781FD4FF0C3
:10331C0080431B694FF0804223F001031361FFF7D8
:10332C000BFF00BF80BD00BF980A002080B400AF27
:10333C00154B0022DA60144B00229A60124B40F2BB
:10334C0005221A60104B04221A61104B0022DA601D
:10335C000E4B00229A600D4B40F206221A600B4B6A
:10336C0004221A610A4B0022DA60094B00229A608F
:10337C00074B40F207221A60054B04221A6100BF6A
:10338C00BD4680BC704700BF500A0020680A002070
:10339C00800A002080B590B000AF07F118032822F6
:1033AC000021184602F03EF83B1D00221A605A60BC
:1033BC009A60DA601A610123BB614FF48033FB61C0
:1033CC0000233B620123BB6202237B634FF48033F7
:1033DC00BB634FF4E013FB6307F118031846FDF7CA
:1033EC0019FF0346002B14BF01230023DBB2002B73
:1033FC0001D000F00FFA0F237B600223BB60002387
:10340C00FB604FF480633B6100237B613B1D022119
:10341C001846FEF7C5F80346002B14BF0123002302
:10342C00DBB2002B01D000F0F5F900BF4037BD46F0
:10343C0080BD000080B500AF1A4B1B4A1A60194BB7
:10344C004FF482725A60174B00229A60154B00227F
:10345C00DA60144B00221A61124B00225A61114B94
:10346C004FF400729A610F4B2822DA610D4B002247
:10347C001A620C4B00225A620A4B00229A62094BC8
:10348C000722DA620748FEF75BF90346002B14BFEC
:10349C0001230023DBB2002B01D000F0BBF900BFED
:1034AC0080BD00BFD00800200038004080B58CB033
:1034BC0000AF07F10C0324220021184601F0B2FFE3
:1034CC003B1D00221A605A60254B264A1A60244B79
:1034DC0000225A60224B00229A60214B4FF6FF7259
:1034EC00DA601F4B00221A611D4B00229A610323E4
:1034FC00FB6000233B6101237B610023BB61002344
:10350C00FB6100233B6201237B620023BB6200232F
:10351C00FB6207F10C0319461148FEF785FA0346C6
:10352C00002B14BF01230023DBB2002B01D000F0D1
:10353C0071F900237B600023BB603B1D19460848D2
:10354C00FEF7BBFA0346002B14BF01230023DBB2AA
:10355C00002B01D000F05EF900BF3037BD4680BDB6
:10356C00A80900200008004080B58CB000AF07F11E
:10357C000C0324220021184601F054FF3B1D0022AD
:10358C001A605A60254B264A1A60244B00225A6056
:10359C00224B00229A60214B4FF6FF72DA601F4BD0
:1035AC0000221A611D4B00229A610323FB60002349
:1035BC003B6101237B610023BB610023FB61002382
:1035CC003B6201237B620023BB620023FB6207F199
:1035DC000C0319461148FEF727FA0346002B14BFBB
:1035EC0001230023DBB2002B01D000F013F90023E0
:1035FC007B600023BB603B1D19460848FEF75DFA53
:10360C000346002B14BF01230023DBB2002B01D097
:10361C0000F000F900BF3037BD4680BD68090020BE
:10362C000004004080B586B000AF07F1080300220B
:10363C001A605A609A60DA603B4600221A605A603F
:10364C00254B4FF080421A60234B08225A60224BC4
:10365C0000229A60204B47F61122DA601E4B4FF481
:10366C0000721A611C4B00229A611B48FEF7C2F9CA
:10367C000346002B14BF01230023DBB2002B01D027
:10368C0000F0C8F84FF48053BB6007F108031946EB
:10369C001148FEF7BDF80346002B14BF012300238D
:1036AC00DBB2002B01D000F0B5F800233B60002307
:1036BC007B603B4619460848FEF7FFF90346002B92
:1036CC0014BF01230023DBB2002B01D000F0A2F8C1
:1036DC0000BF1837BD4680BD2809002080B500AF5B
:1036EC00134B144A1A60124B4FF4E1325A60104BD0
:1036FC0000229A600E4B0022DA600D4B00221A61F8
:10370C000B4B0C225A610A4B00229A61084B002287
:10371C00DA610748FEF79EFA0346002B14BF01231B
:10372C000023DBB2002B01D000F074F800BF80BD89
:10373C00E80900200044004080B588B000AF07F1D4
:10374C00100300221A605A609A60DA602E4B9B6953
:10375C002D4A43F0100393612B4B9B6903F010032C
:10376C00FB60FB68284B9B69274A43F0200393615D
:10377C00254B9B6903F02003BB60BB68224B9B6904
:10378C00214A43F0040393611F4B9B6903F004032C
:10379C007B607B681C4B9B691B4A43F0080393615D
:1037AC00194B9B6903F008033B603B6800224FF404
:1037BC0000511648FDF728FD002241F2076114481C
:1037CC00FDF722FD4FF400533B6101237B61002385
:1037DC00BB610223FB6107F1100319460B48FDF78F
:1037EC0033FC41F207633B6101237B610023BB6126
:1037FC000223FB6107F1100319460548FDF724FC71
:10380C0000BF2037BD4680BD0010024000100140B3
:10381C00000C014080B400AF00BFBD4680BC7047B7
:10382C0090B486B000AF786039603B68BB6004230D
:10383C007B617B69002B17DD7B69013B7B61D7E9E1
:10384C000234D9B27A687B6913440A461A70D7E9F4
:10385C0002124FF000034FF000040B0A43EA02631C
:10386C00140AC7E90234E4E700BF1837BD4690BC20
:10387C007047000090B583B000AF786039607B680A
:10388C00012B0ED13B684FF6FF72934209D14020B9
:10389C0000F0C9F903461C462046FFF77BF8034BA2
:1038AC001C6000BF0C37BD4690BD00BF980A0020BD
:1038BC0080B500AF4FF6FF710120FFF7DBFF80BD35
:1038CC000E4B82B09A6942F001029A619A6902F039
:1038DC0001020092009ADA6942F08052DA61DB69E7
:1038EC00074A03F080530193019B536823F0E06374
:1038FC0043F00073536002B0704700BF00100240E9
:10390C000000014010B5044686B01022002102A828
:10391C0001F088FD22681A4B9A422ED103F5D6335A
:10392C00DA6902A942F00072DA61DA69154802F02C
:10393C0000720092009A9A6942F004029A619B69A3
:10394C0003F004030193019B4FF480730293FDF782
:10395C007BFB4FF400720223CDE90223032302A95F
:10396C0008480593FDF770FB074A536823F4C043DE
:10397C0043F0E06343F48043536006B010BD00BFD6
:10398C0000640040000C01400000014010B50446EA
:10399C0086B01022002102A801F044FD2268174BCA
:1039AC009A4228D103F5EC33DA6902A942F4804239
:1039BC00DA61DA69124802F480420092009A9A693C
:1039CC0042F008029A619B694FF4204203F008030D
:1039DC000193019B0223CDE9022303230593FDF7F9
:1039EC0033FB4FF4804100230548CDE9021302A9B3
:1039FC000493FDF729FB06B010BD00BF0038004052
:103A0C00000C0140102210B5044688B00DEB0200EA
:103A1C00002101F007FD2368234A934225D1234B53
:103A2C0004A9DA69224842F00202DA61DA6902F08A
:103A3C0002020092009A9A6942F008029A619B690C
:103A4C0003F008030193019B302304930123069395
:103A5C00FDF7FAFA174A536823F4406343F0E06326
:103A6C0043F40063536008B010BD134A9342FAD17B
:103A7C000E4B04A9DA690E4842F00402DA61DA69E5
:103A8C0002F004020292029A9A6942F008029A61C8
:103A9C009B6903F008030393039BC0230493012346
:103AAC000693FDF7D1FADEE7000400400010024057
:103ABC00000C01400000014000080040036882B087
:103ACC00B3F1804F10D103F50433DA691C2042F0B6
:103ADC000102DA6100221146DB6903F00103019354
:103AEC00019B02B0FDF712BA02B0704710B5044644
:103AFC0086B01022002102A801F094FC22681A4B17
:103B0C009A422FD103F5E633DA6902A942F4003266
:103B1C00DA61DA69154802F400320092009A9A6967
:103B2C00002442F004029A619B69042203F004030E
:103B3C000193019B0223CDE9022303230593FDF797
:103B4C0083FA0823CDE90234012302A90748049320
:103B5C00FDF77AFA262022462146FDF7D7F92620D2
:103B6C00FDF708FA06B010BD004400400008014003
:103B7C007047FEE7FEE7FEE7FEE7704770477047C9
:103B8C00FDF730B80148FEF7D1B800BFE8090020B6
:103B9C000F4B1A6842F001021A6059680D4A0A402C
:103BAC005A601A6822F0847222F480321A601A6801
:103BBC0022F480221A605A6822F4FE025A604FF4F2
:103BCC001F029A604FF00062034B9A60704700BF6F
:103BDC00001002400000FFF800ED00E0002103E0BF
:103BEC000B4B5B58435004310A480B4B42189A421A
:103BFC00F6D30A4A02E0002342F8043B084B9A42EF
:103C0C00F9D3FFF7C5FF01F0ABF9FFF7DDFA704709
:103C1C00C85C000800000020540800205408002054
:103C2C00100B0020FEE710B5002814BF0446012439
:103C3C00204601F0B9F930B900F006F808B901F0E6
:103C4C0081F98047F4E710BD024B1868BFF35B8F16
:103C5C00704700BFC00A002007B5184A20F0004387
:103C6C009342014603DC002100F02EFC04E0B3F18A
:103C7C00FF4F04DBFCF774FC03B05DF804FB6946F2
:103C8C0000F076FA00F00302012A05D0022A0AD0CD
:103C9C0072B901990098E7E70199009800F032FF9A
:103CAC0000F10040E8E70199009800F00DFCF7E7FF
:103CBC0001220199009800F025FFDDE7D80F493F5C
:103CCC0007B5194A20F000439342014604DC002258
:103CDC00002100F017FF04E0B3F1FF4F04DBFCF709
:103CEC003FFC03B05DF804FB694600F041FA00F0BC
:103CFC000300012806D0022809D080B901220199BD
:103D0C000098E6E70199009800F0DEFBE9E7012254
:103D1C000199009800F0F6FE00F10040E1E70199EE
:103D2C00009800F0D1FBF7E7D80F493FF0B58BB006
:103D3C00044600F04BF8214E054696F9003001334D
:103D4C0038D021462046FCF7DBFE0746002831D14F
:103D5C00204601F061F84FF07E51FCF7C7FE48B3E6
:103D6C0001230093164B204601930897FCF74CFB5C
:103D7C00CDE90401CDE90201124800F03BFF96F9B0
:103D8C000030CDE90601022B04D101F0E3F8212328
:103D9C00036004E0684600F02BFF0028F5D0089B78
:103DAC001BB101F0D7F8089B0360DDE90601FCF7B5
:103DBC0083FB054628460BB0F0BD00BF0C0000206D
:103DCC00B8580008BD58000800F042B92DE9F0477A
:103DDC0020F00045B5F17E5F044607460CD18C49B6
:103DEC00FCF7C8FC8B4905462046FCF7C3FC014692
:103DFC002846FCF7B7FB06E009DD0146FCF7B0FBF3
:103E0C000146FCF76BFD04462046BDE8F087B5F192
:103E1C007C5F0BDAB5F1485F73DA7F49FCF7A2FBE4
:103E2C004FF07E51FCF762FE0028EDD1204600F0E9
:103E3C00F3FF01464FF07E50FCF792FB4FF07C51A4
:103E4C00FCF798FC04467549FCF794FC7449FCF7A4
:103E5C0089FB2146FCF78EFC7249FCF781FB21465D
:103E6C00FCF788FC7049FCF77DFB2146FCF782FCD3
:103E7C006E49FCF775FB2146FCF77CFC6C49FCF7A2
:103E8C0071FB2146FCF776FC6A4980462046FCF71C
:103E9C0071FC6949FCF764FB2146FCF76BFC674934
:103EAC00FCF760FB2146FCF765FC6549FCF758FB09
:103EBC002146FCF75FFC4FF07E51FCF753FB81462B
:103ECC00204600F0ADFA5F4B06469D4263DD494645
:103EDC004046FCF703FD3146FCF74CFC3146FCF741
:103EEC0041FB0146FCF73EFB5749FCF73BFB014607
:103EFC004748FCF735FB002F0446D8BF00F10044BF
:103F0C0082E70146FCF736FC05464449FCF732FCD7
:103F1C004349FCF727FB2946FCF72CFC4149FCF7ED
:103F2C001FFB2946FCF726FC3F49FCF71BFB2946E7
:103F3C00FCF720FC3D49FCF713FB2946FCF71AFC67
:103F4C003B49FCF70FFB2946FCF714FC39490646A4
:103F5C002846FCF70FFC3849FCF702FB2946FCF716
:103F6C0009FC3649FCF7FEFA2946FCF703FC3449F8
:103F7C00FCF7F6FA2946FCF7FDFB4FF07E51FCF7F7
:103F8C00F1FA01463046FCF7A9FC2146FCF7F2FB9E
:103F9C00014620462DE7014620F47F65FCF7E2FA46
:103FAC00494682464046FCF799FC01465046FCF7D0
:103FBC00E1FB25F00F05804629462846FCF7DAFB85
:103FCC0001462046FCF7CCFA314604462846FCF75D
:103FDC00C9FA01462046FCF781FC0146FCF7C2FAFF
:103FEC0001460C48FCF7BCFA01464046FCF7B8FA0F
:103FFC00294604462846FCF7B5FA01461348FCF757
:10400C00AFFA01462046FCF7ABFA01460F4870E7C1
:10401C00DB0FC93F2EBD3BB3CAF2497108EF113813
:10402C00047F4F3A4611243DA80A4E3E90B0A63E5E
:10403C00ABAA2A3E2EC69D3D6133303F2D57014021
:10404C0039D119409999793F2EBD3B33DB0F493F4C
:10405C00F8B521F00046B6F1FF4F034605DC20F021
:10406C000042B2F1FF4F074604DD1846FCF77AFA1E
:10407C00034624E0B1F17E5F03D1BDE8F84000F0C7
:10408C00BFBD8C1704F0020444EAD0742AB9022C88
:10409C0057D0032C13D12D4B11E01EB9002F52DA3F
:1040AC002B4B0CE0B6F1FF4F1AD1B2F1FF4F0CD1F4
:1040BC00022C06D0032C06D0012C40D1254B1846DF
:1040CC00F8BD254BFBE7254BF9E7022C39D0032C27
:1040DC00E1D0012C02D14FF00043F0E70023EEE7D2
:1040EC00B2F1FF4FDAD0921BD2153C2A17DC002913
:1040FC0001DA3C3215DB1846FCF7F0FB00F08CFEC5
:10410C0000F07EFD0346012C0DD0022C0ED0002CAD
:10411C00D5D013491846FCF725FA12490CE0124B7E
:10412C00F1E70023EFE703F10043C8E70C49184619
:10413C00FCF718FA01460B48FCF712FA98E70B4B00
:10414C00BDE7084BBBE7084BB9E700BFDB0F49C025
:10415C00DB0FC9BFDB0F49BFE4CB1640E4CB16C065
:10416C002EBDBB33DB0F4940DB0FC93FDB0F493F93
:10417C002DE9F04F9D4A20F00045954287B00C4642
:10418C00074604DC002320604B6000261AE0984AA6
:10419C0095424BDC002825F00F059649964E23DD01
:1041AC00FCF7DEF9B542074610D09449FCF7D8F974
:1041BC00014620603846FCF7D3F99049FCF7D0F95A
:1041CC0001266060304607B0BDE8F08F8C49FCF7E3
:1041DC00C7F98C490546FCF7C3F90146206028460F
:1041EC00FCF7BEF98749E9E7FCF7BCF9B54207468D
:1041FC000ED08249FCF7B6F9014620603846FCF730
:10420C00AFF97E49FCF7AEF94FF0FF366060D9E7A5
:10421C007B49FCF7A7F97B490546FCF7A3F9014656
:10422C0020602846FCF79CF97649EBE7764A9542E4
:10423C0000F38C8000F0F0FD74498046FCF79AFA8C
:10424C004FF07C51FCF78EF9FCF770FC0646FCF73E
:10425C003DFA68498246FCF78DFA01464046FCF768
:10426C007FF9664980465046FCF784FA1F2E81463A
:10427C000CDC674A711E52F8212025F0FF03934293
:10428C0004D049464046FCF76BF909E049464046E4
:10429C00FCF766F9ED15C0F3C753EB1A082B01DCDC
:1042AC00206024E056495046FCF764FA81460146EA
:1042BC004046FCF755F9014683464046FCF750F959
:1042CC004946FCF74DF980464E495046FCF752FAE8
:1042DC004146FCF745F9014681465846FCF740F942
:1042EC00C0F3C753ED1A192D15DCD846206025688C
:1042FC0040462946FCF734F94946FCF731F9002FC2
:10430C006060BFF65FAF05F1004500F1004025602D
:10431C006060764256E73F495046FCF72BFA05465B
:10432C0001465846FCF71CF9014680465846FCF7F6
:10433C0017F92946FCF714F9054637495046FCF79E
:10434C0019FA2946FCF70CF981469AE7B5F1FF4FAB
:10435C0005DB0146FCF704F96060206015E7EE15FB
:10436C00863EA5EBC6552846FCF7E0FBFCF7AEF9FC
:10437C00014603902846FCF7F3F84FF08741FCF711
:10438C00F9F98046FCF7D2FBFCF7A0F90146049042
:10439C0005464046FCF7E4F84FF08741FCF7EAF994
:1043AC0000210590FCF77AFBE8B100212846FCF7C8
:1043BC0075FB002814BF01230223184A21460192E1
:1043CC00022203A80092324600F0FEF8002F0646A7
:1043DC00BFF6F8AE236803F100432360636803F172
:1043EC000043636095E70323E7E700BFD80F493F1D
:1043FC00E3CB1640800FC93FD00FC93F434435373C
:10440C000044353708A3852E800F494384F9223F99
:10441C00C058000800A3852E32318D244059000865
:10442C0020F00042B2F1FF4F70B50346044609D3A9
:10443C000146FCF79FF901462046FCF793F8044629
:10444C00204670BD002AFBD0002806DA0146FCF796
:10445C0087F80146FCF742FAF1E7B2F5000F4FEA94
:10446C00E0542ED37F3CE2074FF000024FEA640188
:10447C0016464FF019044FF08070C3F3160343F443
:10448C00000348BF5B005B0035189D42DEBF2E1851
:10449C005B1B1218013C4FEA43034FEA5000F3D167
:1044AC0013B1013222F00102541004F17C5404EBDC
:1044BC00C154C5E75B0001321902FBD5013AA41ABD
:1044CC00D0E70022F8E700002DE9F04120F000448D
:1044DC00B4F1485F0646884603DAFCF727FB002850
:1044EC005CD031463046FCF745F94FF07C5105461F
:1044FC00FCF740F92B4907462846FCF73BF92A49BB
:10450C00FCF730F82946FCF735F92849FCF728F870
:10451C002946FCF72FF92649FCF724F82946FCF725
:10452C0029F92449FCF71CF82946FCF723F9224900
:10453C00FCF718F82946FCF71DF92946FCF71AF97F
:10454C00414605463046FCF715F901462846FCF76E
:10455C0007F81A4B05469C420ADC01463846FBF725
:10456C00FFFF01464FF07E50FBF7FAFFBDE8F081EC
:10457C00134B4FF07E509C42CCBF124C04F17F4445
:10458C002146FBF7EDFF214606463846FBF7E8FFD0
:10459C002946FBF7E5FF01463046E5E74FF07E5034
:1045AC00E4E700BF4ED747ADF6740F317CF293347D
:1045BC00010DD037610BB63AABAA2A3D9999993EB9
:1045CC000000483F0000903E2DE9F04FD9B0049315
:1045DC000191C34B6299D41E53F8213000250293EC
:1045EC00049B4FF0000A013B0393082394FBF3F464
:1045FC0024EAE474661CA2EBC606DDE9023203EB86
:10460C000208639BA71A059003EB87090DF1700B49
:10461C0045457FDD4FF000084FF0000A6FF0030BAB
:10462C00049B1CAA02EB830544AB029A904540F311
:10463C009780134608AA02EB83030793639B029FA0
:10464C0003EB84030693BA464FF0874858AB03EB51
:10465C00870353F8504C07AD0DF58879BAF1000F6C
:10466C0000F381803146204600F01AFC4FF078515F
:10467C000446FCF77FF800F0D3FB4FF08241FCF7C7
:10468C0079F801462046FBF76BFF0446FCF74EFA1F
:10469C008146FCF71BF801462046FBF761FF002E14
:1046AC0004467EDD7B1E08AA52F82350C6F1080290
:1046BC0045FA02F0814490402D1A08AAC6F1070071
:1046CC0042F823500541002D79DD0022904609F176
:1046DC000109974200F3AE80002E05DD012E00F09B
:1046EC00C080022E00F0C780022D68D121464FF009
:1046FC007E50FBF735FF0446B8F1000F5FD0314612
:10470C004FF07E5000F0CCFB01462046FBF728FF13
:10471C00044654E0EF4207D459F82500FBF7D6FFC6
:10472C004BF82500013573E75046F9E70BFB0752B0
:10473C000693059B52F8040C53F82710FCF71AF853
:10474C0001464846FBF70EFF8146069B0137039A4C
:10475C009742EBDD43F82890043508F1010864E733
:10476C00D1460027F3E74FF06E512046FCF702F8D4
:10477C00FCF7DCF9FBF7AAFF41468346FBF7FAFF8F
:10478C0001462046FBF7ECFEFCF7D0F90AF1FF3AA4
:10479C0045F8040F59F82A105846FBF7E3FE044677
:1047AC005CE705D17B1E08AA52F823502D128AE72C
:1047BC004FF07C51FCF790F9002839D105460021C7
:1047CC002046FCF76BF9002800F0A0807C1E2346E5
:1047DC00002202998B4255DA002A7ED008AB53F89E
:1047EC002430083E002B00F08F8031464FF07E5075
:1047FC0000F056FBA04682464FF06E5644AFB8F11F
:10480C00000F80F2B5804FF0000A0023A600354A55
:10481C003744A4EB0A01002980F2DB80629B032B56
:10482C0000F2FF80DFE813F0020120012001D90023
:10483C0002254AE708AB53F82230B8F1000F09D132
:10484C002BB1C3F5807308A941F822300123013242
:10485C0098463EE7C3F1FF0308A941F822304346CE
:10486C00F5E77A1E08AB53F8223003F07F0308A952
:10487C0041F8223038E77A1E08AB53F8223003F0A7
:10488C003F03F4E708A951F82310013B0A43A0E7C2
:10489C00013352F8041D0029FAD06FF00308049A72
:1048AC007D1CBC181CAA02EB84041F440DF58879EE
:1048BC00AF42FFF6C8AE069B4FF0000A53F8250036
:1048CC00FBF704FF4FF0000B2060039B9A450BDDB8
:1048DC0049F825B004340135EAE7079A0123D8E7F3
:1048EC00845C0008585C000808FB0AF3059AE05841
:1048FC0052F82A10FBF73EFF01465846FBF732FEF2
:10490C000AF1010A8346E0E7013C67E77142204661
:10491C0000F0C6FA4FF087410446FCF7DDF8F8B119
:10492C004FF06E512046FBF725FFFCF7FFF8FBF725
:10493C00CDFE4FF087418046FBF71CFF0146204619
:10494C00FBF70EFEFCF7F2F808AB43F827004046E5
:10495C00FCF7ECF87C1C08AB083643F8240044E761
:10496C002046FCF7E3F808AB43F827003C463CE74D
:10497C0008AB53F82800FBF7A9FE5146FBF7FAFEEB
:10498C00314647F828005046FBF7F4FE08F1FF3893
:10499C00824634E752F8280057F828100493039203
:1049AC00FBF7E8FE01465846FBF7DCFDDDE9032387
:1049BC00834608F101080299884501DCC245E9DA11
:1049CC0058A901EB8A0141F8A0BC0AF1010A043F85
:1049DC001FE79B464FF00008EDE70DF1C00A564467
:1049EC003746A046B8F1000F4ADC2746012F60DCA1
:1049FC000020012C74DC309A319B002D76D101996A
:104A0C000A600A464B6090600BE056F82410FBF7E6
:104A1C00A9FD013C002CF8DA0DB100F10040019B1E
:104A2C00186009F0070059B0BDE8F08F002030AED7
:104A3C00F0E757F82610FBF795FD013E002EF8DA4B
:104A4C00B5B100F10043019A58AF0146136057F815
:104A5C00A00DFBF785FD0126B4420BDA0DB100F178
:104A6C000040019B5860DCE72646002030AFE5E7AC
:104A7C000346E8E757F82610FBF774FD0136EBE721
:104A8C0057F8042D08F1FF387B681046194603933C
:104A9C000292FBF767FD029A014683461046FBF72C
:104AAC005FFD039B1946FBF75DFDC7F800B078600E
:104ABC0098E756F8043D013FD6F804B0184659461D
:104ACC000293FBF74FFD029B014680461846FBF70D
:104ADC0047FD5946FBF746FDC6F80080706085E738
:104AEC005AF82410FBF73EFD013C82E7019902F1D4
:104AFC00004203F100430A604B600A4600F100409B
:104B0C0081E700BF2DE9F84320F00043B3F1485F83
:104B1C0004460F46914603DAFCF708F8002835D016
:104B2C0021462046FBF726FE054601462046FBF7AC
:104B3C0021FE294906462846FBF71CFE2749FBF7B0
:104B4C000FFD2946FBF716FE2549FBF70BFD294601
:104B5C00FBF710FE2349FBF703FD2946FBF70AFE82
:104B6C002149FBF7FFFC8046B9F1000F11D101463A
:104B7C002846FBF7FFFD1D49FBF7F2FC3146FBF71E
:104B8C00F9FD01462046FBF7EDFC04462046BDE846
:104B9C00F8834FF07C513846FBF7ECFD41468146DB
:104BAC003046FBF7E7FD01464846FBF7D9FC2946A2
:104BBC00FBF7E0FD3946FBF7D3FC0C4905463046C4
:104BCC00FBF7D8FD01462846FBF7CCFC01462046F6
:104BDC00FBF7C6FCD9E700BFD3C92E2F342FD73231
:104BEC001BEF3836010D50398988083CABAA2A3E98
:104BFC000020704700200149704700BF0000F87F7B
:104C0C002DE9F04120F00045B5F1A14F04460746CF
:104C1C000EDBB5F1FF4F04DD0146FBF7A3FC0446A8
:104C2C0003E0002840F3CD80674C2046BDE8F081BE
:104C3C00664B9D420EDCB5F1445F08DA6449FBF724
:104C4C0091FC4FF07E51FBF751FF0028EDD14FF056
:104C5C00FF361CE000F0E0F85E4B04469D427CDC25
:104C6C00A3F5D0039D4267DC0146FBF77BFC4FF0BC
:104C7C007E51FBF775FC4FF0804105462046FBF753
:104C8C0071FC01462846FBF729FE00260446214606
:104C9C002046FBF76FFD01468046FBF76BFD054692
:104CAC004D49FBF767FD4D49FBF75CFC2946FBF7CB
:104CBC0061FD4B49FBF756FC2946FBF75BFD494967
:104CCC00FBF750FC2946FBF755FD4749FBF74AFC1F
:104CDC002946FBF74FFD4549FBF744FC4146FBF7E2
:104CEC0049FD434980462846FBF744FD4149FBF703
:104CFC0037FC2946FBF73EFD3F49FBF731FC2946C3
:104D0C00FBF738FD3D49FBF72BFC2946FBF732FD41
:104D1C003B49FBF725FC2946FBF72CFD0146404699
:104D2C00FBF720FC2146FBF725FD731C014633D114
:104D3C002046FBF715FC72E74FF07E51FBF710FC99
:104D4C004FF07E5105462046FBF70CFC01462846E9
:104D5C00FBF7C4FD0126044699E72A4B9D4214DC5F
:104D6C004FF07F51FBF7FCFB4FF07F51054620467F
:104D7C00FBF700FD4FF07E51FBF7F4FB0146284694
:104D8C00FBF7ACFD0226044681E701461E48FBF703
:104D9C00A5FD032604467AE71C4B53F82610FBF7B7
:104DAC00DFFB2146FBF7DCFB194B014653F82600D1
:104DBC00FBF7D6FB002F0446BFF637AF00F10044DB
:104DCC0033E7144C31E700BFDB0FC93FFFFFDF3E79
:104DDC00CAF24971FFFF973FD769853C59DA4B3DC1
:104DEC00356B883D6E2EBA3D2549123EABAAAA3EC4
:104DFC0021A215BD6BF16E3D95879D3D388EE33D2F
:104E0C00CDCC4C3EFFFF1B40000080BFA05C0008D7
:104E1C00905C0008DB0FC9BF20F000407047000019
:104E2C0070B520F00046F50D7F3D162D0146044669
:104E3C0026DC002D0EDA1749FBF794FB0021FBF75B
:104E4C0055FE28B1002C23DA134B002E18BF1C463C
:104E5C0021461BE0114E2E41304217D00D49FBF775
:104E6C0081FB0021FBF742FE0028F1D0002CBEBFD5
:104E7C004FF4000343FA05F5641924EA0604E7E746
:104E8C00B6F1FF4F02D3FBF76DFB0146084670BD30
:104E9C000024DDE7CAF24971000080BFFFFF7F00EC
:104EAC0030F0004310B502460C46014627D0B3F152
:104EBC00FF4F03D3FBF756FB024620E0B3F5000F80
:104ECC0015D24FF09841FBF755FC184B02469C420B
:104EDC0022DBC0F3C753193B2344FE2B09DD1146DB
:104EEC00134800F029F81249FBF744FCE4E7DB0D0A
:104EFC00F2E7002B05DD20F0FF4040EAC3521046DC
:104F0C0010BD13F1160F09DA4CF250339C421146C6
:104F1C00E6DC084800F010F80649E5E7193320F004
:104F2C00FF404FF04C5140EAC350DDE7B03CFFFF6F
:104F3C00CAF249716042A20D01F0004120F000401C
:104F4C000843704708B5062000F0BAFA012000F0BB
:104F5C008BFC0000014B1868704700BF100000204C
:104F6C0070B500250C4E0D4CA41BA410A54209D104
:104F7C0000F07CFC00250A4E0A4CA41BA410A54290
:104F8C0005D170BD56F8253098470135EEE756F837
:104F9C00253098470135F2E7B45C0008B45C000892
:104FAC00B45C0008C45C0008024B0146186800F0B1
:104FBC0003B800BF100000202DE9F74F01F10B05DD
:104FCC00162D064606D935F0070504D50C2333609B
:104FDC000024A8E110258D42F8D3304600F02AFABF
:104FEC00B5F5FC7FC04F38D205F108023A4454683D
:104FFC00A2F108018C424FEAD50302D1D468A24237
:10500C0010D06368D4E9021223F00303CA6023446E
:10501C0091605A6842F001025A60304600F010FA72
:10502C00083480E10233B14A3C691146944275D090
:10503C00606820F0030CACEB05000F2848DD631909
:10504C0045F001056560C7E90433C3E9022240F06D
:10505C0001025A6044F80C00DFE76B0A2AD0042BDB
:10506C0012D8AB0938335A1C07EBC2025468A2F1B0
:10507C00080C644506D0626822F00302501B0F280E
:10508C001CDD013B0133CEE7142B01D85B33EAE77F
:10509C00542B02D82B0B6E33E5E7B3F5AA7F02D85D
:1050AC00EB0B7733DFE740F25452934204D8AB0C4E
:1050BC007C33D8E73F23D6E77E23D4E70028E1688A
:1050CC0004DBA368D9608B60A318A2E70C46D0E779
:1050DC000028C7E9042207DBA444DCF8043043F0C1
:1050EC000103CCF8043098E7BCF5007F786880F0B9
:1050FC00998001224FEADC0C4FEAAC0E02FA0EF258
:10510C0010430CF1010C786007EBCC0257F83C0013
:10511C00083AC4E9020247F83C40C46001209A10E6
:10512C0000FA02F27868904226D3104206D123F09E
:10513C0003035200104203F10403FAD007EBC30C33
:10514C00E1469846D9F80C404C4540F0AF8008F148
:10515C00010818F0030F09F10809F3D1980740F082
:10516C00E8807B6823EA02037B60786852009042F7
:10517C0002D3002A40F0EB80D7F808A0DAF80440FC
:10518C0024F00302AA4203D3531B0F2B00F33F81DD
:10519C00574B08201C68009200F0AEF9554B1034A8
:1051AC0019682C4401311FBF04F1FF34241841420B
:1051BC000C40009A804621463046CDE9002300F091
:1051CC0045F9B0F1FF3F834600F0FA80009A019B4D
:1051DC000AEB0201814202D9BA4540F0F180DFF8B6
:1051EC0020915945D9F8000008F1FF3C00EB040E62
:1051FC00C9F800E040F0AD8011EA0C0F40F0A98036
:10520C00BB68144444F001045C603B4AD9F800309C
:10521C0011688B4288BF1360384A11688B4288BF73
:10522C001360CDE04FEA5C22042A18D84FEA9C1296
:10523C00383202F1010E57F83EE007EBC208F04598
:10524C002BD14FF0010C92100CFA02F21043786043
:10525C00C4E902E8C8F80840CEF80C405EE7142A0E
:10526C0001D85B32E5E7542A03D84FEA1C326E3280
:10527C00DFE7B2F5AA7F03D84FEADC327732D8E702
:10528C0040F2545E72459ABF4FEA9C427C327E22B9
:10529C00CFE7DEF808E0F04505D0DEF8042022F078
:1052AC0003026245F5D8DEF80C80D1E76068D4F8CB
:1052BC000CE020F00300A0EB050ABAF10F0F21DD82
:1052CC00A268631945F001056560C2F80CE0CEF8E0
:1052DC0008204AF00102C7E90433C3E902115A60FD
:1052EC0044F800A099E600BF4004002048040020C8
:1052FC00F40A002048080020EC0A0020F00A0020E4
:10530C00C40A0020BAF1000F11DB2044436843F0BB
:10531C000103436054F8083F3046C3F80CE0CEF864
:10532C00083000F08DF8204603B0BDE8F08F7446CD
:10533C000AE7ACF10800DCF800C0013B84453FF4FF
:10534C000DAF12E7043352001042FBD0F6E6434691
:10535C00FAE71868009201301BBFABEB01017144F6
:10536C00C3F800B0C9F800101BF007031CBFC3F151
:10537C0008039B445C44984404EA0C03A8EB030820
:10538C004146304600F062F8431C04BF58464FF0CB
:10539C000008D9F80030A0EB0B004044434440F027
:1053AC000100BA45C7F808B0009AC9F80030CBF82C
:1053BC0004003FF42AAF0F2A10D80123CBF8043095
:1053CC00BB685A6822F00302AA42A2EB050301D380
:1053DC000F2B1CDC304600F033F8F9E5A2F10C047D
:1053EC000522DAF8043024F0070403F00103234308
:1053FC00CAF804300F2C0AEB0403C3E901227FF630
:10540C0004AF0AF10801304600F0FCF8FDE6BC6878
:10541C0045F0010243F0010325446260BD606B60FE
:10542C00FBE500BF03460244934200D1704703F8EA
:10543C00011BF9E7014800F0A1B900BF040B0020E3
:10544C00014800F09CB900BF040B002038B50023C4
:10545C00054C05460846236000F0F8F9431C02D1C0
:10546C00236803B12B6038BD0C0B00201F2938B505
:10547C0004460D4604D9162303604FF0FF3038BDA7
:10548C00D0F8DC2212B152F821304BB9204600F092
:10549C0031F82A4601462046BDE8384000F018B8DD
:1054AC00012B0AD0591C03D1162303600120E6E717
:1054BC000024284642F8254098470020DFE70000EA
:1054CC00024B01461868FFF7D1BF00BF1000002047
:1054DC0038B50023064C054608461146236000F0FB
:1054EC00ADF9431C02D1236803B12B6038BD00BF5A
:1054FC000C0B002000F09AB9082808B506D0FFF76D
:10550C0029FD162303604FF0FF3008BD4FF4805087
:10551C00FBE70000024B13B1024800F005B87047DE
:10552C000000000041550008002301461A461846A9
:10553C0000F026B938B5074D074C641BA4101CB9F4
:10554C00BDE8384000F098B9013C55F82430984734
:10555C00F5E700BFC45C0008C85C00082DE9F04109
:10556C00054608200C46FFF7C7FF8046224F284609
:10557C00FFF760FFBB685E6826F00306341B113C26
:10558C004444B4FBF8F4013C08FB04F4A04505DDED
:10559C002846FFF755FF0020BDE8F0810021284682
:1055AC00FFF754FFBB6833449842F1D1614228465F
:1055BC00FFF74CFF013010D100212846FFF746FFC2
:1055CC00BA68831A0F2BE3DD0C4943F00103096819
:1055DC005360401A0A490860DAE7BB68084A361B70
:1055EC0046F001065E60136828461C1B1460FFF72A
:1055FC0027FF0120D0E700BF40040020480800200E
:10560C00C40A00202DE9F04104468846002900F028
:10561C00AB80FFF70FFF58F8042C544D22F001001B
:10562C00A8F108031F18A9687E68B94226F0030682
:10563C0002F001021BD130443AB958F8082C9B1ADD
:10564C001044D3E90212CA60916040F001025A6022
:10565C00AB60474B1B68834204D8464B2046196805
:10566C00FFF77CFF2046BDE8F041FFF7E9BE7E6006
:10567C00002A39D158F8081C05F1080C5B1A0844AB
:10568C009968614532D0D3F80CC0C1F80CC0CCF885
:10569C000810B9194968C9070AD43044B9683ABB2B
:1056AC00354EB14224D10122C5E90433C3E90211BC
:1056BC0040F0010159601850002AD3D1B0F5007F99
:1056CC001AD20122C00881108A40696801300A434D
:1056DC006A6055F8301005EBC002083AC3E90212B3
:1056EC0045F83030CB60BDE70022D2E70122D0E78D
:1056FC00FE68CE60B160DBE7420A042A13D8820947
:10570C003832511C55F8311005EBC2068E4224D1AB
:10571C000120921000FA02F2686802436A60C3E941
:10572C000216B360DEE7142A01D85B32E9E7542A8B
:10573C0002D8020B6E32E4E7B2F5AA7F02D8C20B94
:10574C007732DEE740F254518A429ABF820C7C32A7
:10575C007E22D6E789688E4204D04A6822F0030282
:10576C008242F7D8CE68DAE7BDE8F0814004002029
:10577C004C080020F40A00204804002070477047B1
:10578C002DE9F843264C0646206898460F4691466C
:10579C00FFF7F4FF234B1D68D5F8480118B905F540
:1057AC00A670C5F8480143681F2B19DD1E4B33B991
:1057BC002068FFF7E4FF4FF0FF30BDE8F8834FF4AB
:1057CC00C870FFF7F1FB0028F2D00022D5F8483161
:1057DC0042600360C5F84801C0F88821C0F88C21EC
:1057EC0043689EB1012200EB8305C5F88890D0F880
:1057FC0088119A401143022EC0F88811C5F808810F
:10580C0002BFD0F88C110A43C0F88C215A1C023309
:10581C00426040F823702068FFF7B1FF0020CCE70E
:10582C0050080020B05C0008B54F00085822024B0D
:10583C004FF0FF301A6070470C0B00205822024BBF
:10584C004FF0FF301A6070470C0B0020044B0246DF
:10585C00196809B903491960186802441A6070473D
:10586C00F80A0020100B0020FEE70000F8B500BF7E
:10587C00F8BC08BC9E467047F8B500BFF8BC08BC25
:04588C009E4670477D
:1058900002030405060708090A0B0C0D0E0F101071
:1058A00000000000000000000102030406070809D0
:1058B00000000000010203046173696E66000000CD
:1058C000000FC93F000F494000CB9640000FC94070
:1058D0000053FB4000CB164100ED2F41000F494122
:1058E0000031624100537B41003A8A4100CB96412E
:1058F000005CA34100EDAF41007EBC41000FC941F7
:1059000000A0D5410031E24100C2EE410053FB410D
:1059100000F20342003A0A420083104200CB1642D2
:1059200000141D42005C234200A5294200ED2F42D5
:1059300000363642007E3C4200C74242000F4942D8
:10594000A2000000F9000000830000006E000000CB
:105950004E00000044000000150000002900000077
:10596000FC0000002700000057000000D1000000EC
:10597000F500000034000000DD000000C000000061
:10598000DB000000620000009500000099000000AC
:105990003C000000430000009000000041000000B7
:1059A000FE0000005100000063000000AB0000009A
:1059B000DE000000BB000000C50000006100000028
:1059C000B7000000240000006E0000003A00000054
:1059D000420000004D000000D2000000E000000086
:1059E00006000000490000002E000000EA00000050
:1059F00009000000D1000000920000001C0000001F
:105A0000FE0000001D000000EB0000001C00000074
:105A1000B100000029000000A70000003E000000C7
:105A2000E80000008200000035000000F5000000E2
:105A30002E000000BB0000004400000084000000B5
:105A4000E90000009C00000070000000260000003B
:105A5000B40000005F0000007E0000004100000074
:105A60003900000091000000D6000000390000005D
:105A7000830000005300000039000000F400000023
:105A80009C000000840000005F0000008B0000000C
:105A9000BD000000F9000000280000003B000000ED
:105AA0001F000000F800000097000000FF00000049
:105AB000DE00000005000000980000000F0000005C
:105AC000EF0000002F000000110000008B0000001C
