:020000040800F2
:100000000050002039370008CD360008CF360008F0
:10001000D1360008D3360008D536000800000000AD
:10002000000000000000000000000000D7360008BB
:10003000D936000800000000DB360008DD36000875
:1000400081370008813700088137000881370008B0
:1000500081370008813700088137000881370008A0
:100060008137000881370008813700088137000890
:100070008137000881370008813700088137000880
:100080008137000881370008813700088137000870
:100090008137000881370008813700088137000860
:1000A0008137000881370008813700088137000850
:1000B000D92C0008813700088137000881370008F3
:1000C0008137000881370008813700088137000830
:1000D00081370008E13600088137000881370008C1
:1000E00081370008813700088137000800000000D0
:1000F0000000000000000000000000000000000000
:0C01000000000000000000005FF808F1A3
:1001100010B5054C237833B9044B13B10448AFF341
:1001200000800123237010BD58080020000000004B
:100130000C4E000808B5034B1BB103490348AFF34D
:10014000008008BD000000005C0800200C4E000884
:1001500081F0004102E000BF83F0004330B54FEA78
:1001600041044FEA430594EA050F08BF90EA020FE5
:100170001FBF54EA000C55EA020C7FEA645C7FEA78
:10018000655C00F0E2804FEA5454D4EB5555B8BF9B
:100190006D420CDD2C4480EA020281EA030382EA0C
:1001A000000083EA010180EA020281EA0303362D9E
:1001B00088BF30BD11F0004F4FEA01314FF4801C71
:1001C0004CEA113102D0404261EB410113F0004F83
:1001D0004FEA03334CEA133302D0524263EB43033A
:1001E00094EA050F00F0A780A4F10104D5F1200ED8
:1001F0000DDB02FA0EFC22FA05F2801841F1000133
:1002000003FA0EF2801843FA05F359410EE0A5F106
:1002100020050EF1200E012A03FA0EFC28BF4CF037
:10022000020C43FA05F3C01851EBE37101F00045ED
:1002300007D54FF0000EDCF1000C7EEB00006EEBFA
:100240000101B1F5801F1BD3B1F5001F0CD3490884
:100250005FEA30004FEA3C0C04F101044FEA4452DB
:1002600012F5800F80F09A80BCF1004F08BF5FEA62
:10027000500C50F1000041EB045141EA050130BD42
:100280005FEA4C0C404141EB010111F4801FA4F1E5
:100290000104E9D191F0000F04BF01460020B1FA3A
:1002A00081F308BF2033A3F10B03B3F120020CDA72
:1002B0000C3208DD02F1140CC2F10C0201FA0CF050
:1002C00021FA02F10CE002F11402D8BFC2F1200CB5
:1002D00001FA02F120FA0CFCDCBF41EA0C0190406B
:1002E000E41AA2BF01EB0451294330BD6FEA0404B4
:1002F0001F3C1CDA0C340EDC04F11404C4F120029F
:1003000020FA04F001FA02F340EA030021FA04F3B0
:1003100045EA030130BDC4F10C04C4F1200220FA07
:1003200002F001FA04F340EA0300294630BD21FA45
:1003300004F0294630BD94F0000F83F4801306BF0B
:1003400081F480110134013D4EE77FEA645C18BFFF
:100350007FEA655C29D094EA050F08BF90EA020F96
:1003600005D054EA000C04BF1946104630BD91EA8E
:10037000030F1EBF0021002030BD5FEA545C05D191
:100380004000494128BF41F0004130BD14F58004D0
:100390003CBF01F5801130BD01F0004545F0FE4144
:1003A00041F470014FF0000030BD7FEA645C1ABF79
:1003B000194610467FEA655C1CBF0B46024650EAB0
:1003C000013406BF52EA033591EA030F41F40021DC
:1003D00030BD00BF90F0000F04BF0021704730B562
:1003E0004FF4806404F132044FF000054FF0000137
:1003F00050E700BF90F0000F04BF0021704730B5F8
:100400004FF4806404F1320410F0004548BF4042CC
:100410004FF000013EE700BF42004FEAE2014FEA21
:1004200031014FEA02701FBF12F07F4393F07F4FFC
:1004300081F06051704732F07F4208BF704793F0FF
:100440007F4F04BF41F40021704730B54FF4607412
:1004500001F0004521F000411CE700BF50EA010215
:1004600008BF704730B54FF000050AE050EA0102BE
:1004700008BF704730B511F0004502D5404261EB2E
:1004800041014FF4806404F132045FEA915C3FF46F
:10049000D8AE4FF003025FEADC0C18BF03325FEA0C
:1004A000DC0C18BF033202EBDC02C2F1200300FABD
:1004B00003FC20FA02F001FA03FE40EA0E0021FAE2
:1004C00002F11444BDE600BF70B54FF0FF0C4CF4D0
:1004D000E06C1CEA11541DBF1CEA135594EA0C0F82
:1004E00095EA0C0F00F0DEF82C4481EA030621EABD
:1004F0004C5123EA4C5350EA013518BF52EA0335F8
:1005000041F4801143F4801338D0A0FB02CE4FF0A9
:100510000005E1FB02E506F00042E0FB03E54FF0D9
:100520000006E1FB03569CF0000F18BF4EF0010ED1
:10053000A4F1FF04B6F5007F64F5407404D25FEACD
:100540004E0E6D4146EB060642EAC62141EA555180
:100550004FEAC52040EA5E504FEACE2EB4F1FD0CC2
:1005600088BFBCF5E06F1ED8BEF1004F08BF5FEA40
:10057000500E50F1000041EB045170BD06F00046F2
:1005800046EA010140EA020081EA0301B4EB5C049F
:10059000C2BFD4EB0C0541EA045170BD41F4801197
:1005A0004FF0000E013C00F3AB8014F1360FDEBFBC
:1005B000002001F0004170BDC4F10004203C35DA98
:1005C0000C341BDC04F11404C4F1200500FA05F31B
:1005D00020FA04F001FA05F240EA020001F00042BC
:1005E00021F0004110EBD37021FA04F642EB060132
:1005F0005EEA430E08BF20EAD37070BDC4F10C045C
:10060000C4F1200500FA04F320FA05F001FA04F21F
:1006100040EA020001F0004110EBD37041F100010B
:100620005EEA430E08BF20EAD37070BDC4F1200516
:1006300000FA05F24EEA020E20FA04F301FA05F27E
:1006400043EA020321FA04F001F0004121FA04F226
:1006500020EA020000EBD3705EEA430E08BF20EAF6
:10066000D37070BD94F0000F0FD101F00046400030
:1006700041EB010111F4801F08BF013CF7D041EAB2
:10068000060195F0000F18BF704703F000465200B6
:1006900043EB030313F4801F08BF013DF7D043EA87
:1006A0000603704794EA0C0F0CEA135518BF95EA3D
:1006B0000C0F0CD050EA410618BF52EA4306D1D1C4
:1006C00081EA030101F000414FF0000070BD50EAE3
:1006D000410606BF1046194652EA430619D094EA6D
:1006E0000C0F02D150EA013613D195EA0C0F05D157
:1006F00052EA03361CBF104619460AD181EA0301AB
:1007000001F0004141F0FE4141F470014FF0000062
:1007100070BD41F0FE4141F4780170BD70B54FF0FD
:10072000FF0C4CF4E06C1CEA11541DBF1CEA13557D
:1007300094EA0C0F95EA0C0F00F0A7F8A4EB05045F
:1007400081EA030E52EA03354FEA013100F0888056
:100750004FEA03334FF0805545EA131343EA12631F
:100760004FEA022245EA111545EA10654FEA0026D4
:100770000EF000419D4208BF964244F1FD0404F58D
:10078000407402D25B084FEA3202B61A65EB0305E9
:100790005B084FEA32024FF480104FF4002CB6EBA6
:1007A000020E75EB030E22BFB61A754640EA0C0026
:1007B0005B084FEA3202B6EB020E75EB030E22BF66
:1007C000B61A754640EA5C005B084FEA3202B6EBA7
:1007D000020E75EB030E22BFB61A754640EA9C0066
:1007E0005B084FEA3202B6EB020E75EB030E22BF36
:1007F000B61A754640EADC0055EA060E18D04FEAF4
:10080000051545EA16754FEA06164FEAC30343EA93
:1008100052734FEAC2025FEA1C1CC0D111F4801F60
:100820000BD141EA00014FF000004FF0004CB6E759
:1008300011F4801F04BF01430020B4F1FD0C88BFF8
:10084000BCF5E06F3FF6AFAEB5EB030C04BFB6EB03
:10085000020C5FEA500C50F1000041EB045170BDF6
:100860000EF0004E4EEA113114EB5C04C2BFD4EB23
:100870000C0541EA045170BD41F480114FF0000EA7
:10088000013C90E645EA060E8DE60CEA135594EA23
:100890000C0F08BF95EA0C0F3FF43BAF94EA0C0F26
:1008A0000AD150EA01347FF434AF95EA0C0F7FF49B
:1008B00025AF104619462CE795EA0C0F06D152EAEF
:1008C00003353FF4FDAE1046194622E750EA4106D3
:1008D00018BF52EA43067FF4C5AE50EA41047FF4E4
:1008E0000DAF52EA43057FF4EBAE12E74FEA410247
:1008F000B2F1E04324BFB3F5001CDCF1FE5C0DD97E
:1009000001F0004C4FEAC0024CEA5070B2F1004FC7
:1009100040EB830008BF20F00100704711F0804FCA
:1009200021D113F13872BCBF01F00040704741F48F
:1009300080114FEA5252C2F11802C2F1200C10FA93
:100940000CF320FA02F018BF40F001004FEAC12377
:100950004FEAD32303FA0CFC40EA0C0023FA02F31B
:100960004FEA4303CCE77FEA625307D150EA0133F1
:100970001EBF4FF0FE4040F44000704701F00040C1
:1009800040F0FE4040F40000704700BF80F000409F
:1009900002E000BF81F0004142001FBF5FEA410357
:1009A00092EA030F7FEA226C7FEA236C6AD04FEA57
:1009B0001262D2EB1363C1BFD2184140484041409C
:1009C000B8BF5B42192B88BF704710F0004F40F44E
:1009D000000020F07F4018BF404211F0004F41F46A
:1009E000000121F07F4118BF494292EA030F3FD036
:1009F000A2F1010241FA03FC10EB0C00C3F1200349
:100A000001FA03F100F0004302D5494260EB4000D7
:100A1000B0F5000F13D3B0F1807F06D340084FEA42
:100A2000310102F10102FE2A51D2B1F1004F40EB37
:100A3000C25008BF20F0010040EA0300704749009F
:100A400040EB000010F4000FA2F10102EDD1B0FA6A
:100A500080FCACF1080CB2EB0C0200FA0CF0AABF5F
:100A600000EBC25052421843BCBFD04018437047FD
:100A700092F0000F81F4000106BF80F40000013203
:100A8000013BB5E74FEA41037FEA226C18BF7FEADA
:100A9000236C21D092EA030F04D092F0000F08BF1C
:100AA0000846704790EA010F1CBF0020704712F003
:100AB0007F4F04D1400028BF40F00040704712F142
:100AC00000723CBF00F50000704700F0004343F0A7
:100AD000FE4040F4000070477FEA226216BF0846DD
:100AE0007FEA23630146420206BF5FEA412390EAA0
:100AF000010F40F4800070474FF0000304E000BF96
:100B000010F0004348BF40425FEA000C08BF704746
:100B100043F0964301464FF000001CE050EA01020A
:100B200008BF70474FF000030AE000BF50EA01021F
:100B300008BF704711F0004302D5404261EB41010C
:100B40005FEA010C02BF84460146002043F0B64331
:100B500008BFA3F18053A3F50003BCFA8CF2083A56
:100B6000A3EBC25310DB01FA02FC634400FA02FC5F
:100B7000C2F12002BCF1004F20FA02F243EB020066
:100B800008BF20F00100704702F1200201FA02FCC8
:100B9000C2F1200250EA4C0021FA02F243EB0200BB
:100BA00008BF20EADC7070474FF0FF0C1CEAD052FF
:100BB0001EBF1CEAD15392EA0C0F93EA0C0F6FD0C0
:100BC0001A4480EA010C400218BF5FEA41211ED09E
:100BD0004FF0006343EA501043EA5111A0FB01318A
:100BE0000CF00040B1F5000F3EBF490041EAD3715F
:100BF0005B0040EA010062F17F02FD2A1DD8B3F1DB
:100C0000004F40EBC25008BF20F00100704790F049
:100C1000000F0CF0004C08BF49024CEA502040EA9B
:100C200051207F3AC2BFD2F1FF0340EAC250704761
:100C300040F400004FF00003013A5DDC12F1190F9F
:100C4000DCBF00F000407047C2F10002410021FA11
:100C500002F1C2F1200200FA02FC5FEA310040F129
:100C6000000053EA4C0308BF20EADC70704792F0A2
:100C7000000F00F0004C02BF400010F4000F013ADA
:100C8000F9D040EA0C0093F0000F01F0004C02BFD5
:100C9000490011F4000F013BF9D041EA0C018FE744
:100CA0000CEAD15392EA0C0F18BF93EA0C0F0AD04A
:100CB00030F0004C18BF31F0004CD8D180EA010070
:100CC00000F00040704790F0000F17BF90F0004F09
:100CD000084691F0000F91F0004F14D092EA0C0FEB
:100CE00001D142020FD193EA0C0F03D14B0218BF7E
:100CF000084608D180EA010000F0004040F0FE40C4
:100D000040F40000704740F0FE4040F4400070475F
:100D10004FF0FF0C1CEAD0521EBF1CEAD15392EADE
:100D20000C0F93EA0C0F69D0A2EB030280EA010CCE
:100D300049024FEA402037D04FF0805343EA111167
:100D400043EA10130CF000408B4238BF5B0042F1C5
:100D50007D024FF4000C8B4224BF5B1A40EA0C006A
:100D6000B3EB510F24BFA3EB510340EA5C00B3EB9C
:100D7000910F24BFA3EB910340EA9C00B3EBD10F8A
:100D800024BFA3EBD10340EADC001B0118BF5FEADC
:100D90001C1CE0D1FD2A3FF650AF8B4240EBC25005
:100DA00008BF20F0010070470CF0004C4CEA5020C6
:100DB0007F32C2BFD2F1FF0340EAC250704740F415
:100DC00000004FF00003013A37E792F0000F00F007
:100DD000004C02BF400010F4000F013AF9D040EA85
:100DE0000C0093F0000F01F0004C02BF490011F419
:100DF000000F013BF9D041EA0C0195E70CEAD15311
:100E000092EA0C0F08D142027FF47DAF93EA0C0FF7
:100E10007FF470AF084676E793EA0C0F04D14B02DB
:100E20003FF44CAF08466EE730F0004C18BF31F08D
:100E3000004CCAD130F000427FF45CAF31F0004387
:100E40007FF43CAF5FE700BF4FF0FF3C06E000BF20
:100E50004FF0010C02E000BF4FF0010C4DF804CD43
:100E60004FEA40024FEA41037FEA226C18BF7FEA53
:100E7000236C11D001B052EA530C18BF90EA010F55
:100E800058BFB2EB030088BFC81738BF6FEAE170E4
:100E900018BF40F0010070477FEA226C02D15FEA80
:100EA000402C05D17FEA236CE4D15FEA412CE1D0EC
:100EB0005DF8040B704700BF844608466146FFE7B3
:100EC0000FB5FFF7C9FF002848BF10F1000F0FBD95
:100ED0004DF808EDFFF7F4FF0CBF012000205DF88E
:100EE00008FB00BF4DF808EDFFF7EAFF34BF012013
:100EF00000205DF808FB00BF4DF808EDFFF7E0FFAC
:100F000094BF012000205DF808FB00BF4DF808EDFC
:100F1000FFF7D2FF94BF012000205DF808FB00BF5F
:100F20004DF808EDFFF7C8FF34BF012000205DF841
:100F300008FB00BF4FEA40024FEA41037FEA226C00
:100F400002D15FEA402C08D17FEA236C02D15FEA2C
:100F5000412C02D14FF0000070474FF00100704764
:100F60004FEA4002B2F1FE4F0FD34FF09E03B3EBB6
:100F700012620DD94FEA002343F0004310F0004FF6
:100F800023FA02F018BF404270474FF0000070474C
:100F900012F1610F01D1420205D110F0004008BFEB
:100FA0006FF0004070474FF00000704738B50E4BAF
:100FB000054618784FF47A73B3FBF0F30B4A1068C8
:100FC000B0FBF3F000F00EFA044658B90F2D09D823
:100FD000024629464FF0FF3000F0C4F92046044B8A
:100FE0001D6038BD0120FCE7000000200C0000203F
:100FF00004000020074A08B51368032043F01003DB
:10100000136000F09DF90020FFF7D0FF02F004FA12
:10101000002008BD00200240034A044B11681B78E1
:101020000B441360704700BFDC0A00200000002062
:10103000014B1868704700BFDC0A002038B5044631
:10104000FFF7F6FF0546631C1EBF044B1B78E41830
:10105000FFF7EEFF401BA042FAD338BD000000208E
:1010600038B5044600286ED090F820300BB902F055
:10107000F5F92268136823F002031360FFF7D8FF25
:10108000054623685A68910751D41A6842F0010254
:101090001A60FFF7CDFF054623685A68D20754D57A
:1010A000227E0020012A1A680CBF42F0800222F042
:1010B00080021A60627E012A1A680CBF42F0400268
:1010C00022F040021A60A27E012A1A680CBF42F088
:1010D000200222F020021A60E27E012A1A680CBF68
:1010E00022F0100242F010021A60227F012A1A68D0
:1010F0000CBF42F0080222F008021A60627F012A47
:101100001A680CBF42F0040222F004021A60D4E90B
:1011100002210A4321690A4361690A43616801396E
:101120000A43DA610123606284F8203038BDFFF79A
:101130007FFF401B0A28A4D9636A43F4003363622B
:10114000052384F820300120F0E7FFF771FF401BF2
:101150000A28A1D9F0E790F8203070B5013B012BA7
:101160005FD801240368D3F8002242F00102C3F8DB
:1011700000224A69D3F81C5202F01F0004FA00F062
:10118000C4432540C3F81C52CD6985BBD3F80C522B
:10119000CE682540C3F80C528D8803EBC20245EAA5
:1011A0000645C2F840528E680D8845EA0645C2F8E9
:1011B00044528A696ABBD3F804222240C3F804224D
:1011C0000A6952BBD3F814222240C3F814220A6AD7
:1011D000012A02BFD3F81C221043C3F81C020020CE
:1011E000D3F8002222F00102C3F8002270BD012DC5
:1011F000DFD1D3F80C520E680543C3F80C528D882A
:1012000003EBC20245EA0645C2F840528E688D895A
:10121000CBE7D3F804220243D0E7D3F814220243E9
:10122000D3E7436A43F4802343620120DEE738B505
:1012300090F820300446012B1FD10223026880F869
:101240002030136823F001031360FFF7F1FE054619
:101250002368586810F0010001D1606238BDFFF7C3
:10126000E7FE401B0A28F3D9636A43F40033636244
:10127000052384F820300120F0E7436A43F400237B
:101280004362F8E7F0B590F820500668013D012D63
:10129000B46840D814F0E05F39D0C4F30164032C83
:1012A0004FF0010505D1436A43F400034362012076
:1012B00027E0A5401D60D1E9020704F1180308BB2F
:1012C000086847EA40501B01F050086924013319AF
:1012D000C3F884010020097D3444012902BFD3F8FA
:1012E000841141F48071C3F884115168C4F88C11E1
:1012F0001268C4F88821D3F8802142F00102C3F8B3
:101300008021F0BD4D68384340EAC500DBE7436A01
:1013100043F40013CAE7436A43F48023C6E790F816
:101320002030013B012B05D8026800205369194386
:1013300051617047436A43F4802343620120704740
:10134000074A0002D36800F4E06023F4E0631B0462
:101350001B0C43F0BF6343F400330343D360704777
:1013600000ED00E0174B70B5DC684FF0FF36C4F3BA
:101370000224C4F10705042D04F1040328BF042549
:10138000062B98BF002406FA05F388BF033C21EA28
:101390000303A34006FA04F422EA0404002843EA03
:1013A0000403A8BF00F160404FEA0313B8BF064A28
:1013B000DBB2B5BF00F00F0000F56140135480F8B8
:1013C000003370BD00ED00E014ED00E001234209A0
:1013D00000F01F0003FA00F0014B43F822007047B1
:1013E00000E100E00138B0F1807F0AD2F021064B25
:1013F000064A586082F823100020072298601A607D
:1014000070470120704700BF10E000E000ED00E0F1
:1014100090F8213010B5022B03D004238363012000
:1014200010BD03681A6822F00E021A601A6822F0D2
:1014300001021A60184A93421FD0143293421ED000
:10144000143293421DD0143293421DD01432934271
:101450001DD0143293420CBF4FF480134FF08073B1
:101460000E4A00245360012380F82130436B80F83A
:1014700020407BB198472046D2E70123F0E71023B4
:10148000EEE74FF48073EBE74FF48053E8E74FF457
:101490008033E5E71846C3E7080002400000024039
:1014A0002DE9F74F00221646654BDFF8A4C1DFF89F
:1014B000A4E14FF001080C6808FA06F808EA0404F1
:1014C000A0457ED14D68122D00F0AE8000F28780DD
:1014D000022D00F0A6807BD8002D00F08D80012D1C
:1014E00000F09D804FF00F09FF2C93BF824606F15C
:1014F0008045083DD0F800B092BFB500D0F804B0E8
:10150000AD0009FA05F82BEA080802FA05F588BFCC
:1015100000F1040A48EA0505CAF80050D1F804A011
:101520001AF0805F4DD0474F26F00308BD6908F1DF
:10153000804845F00105BD61BD6908F5803805F0BA
:101540000105019506F0030B019D4FEA8B0BD8F8BE
:10155000085009FA0BF925EA09093B4DA84268D061
:1015600005F58065A84266D005F58065A84264D07F
:1015700005F58065A8420CBF0325042505FA0BF587
:1015800045EA0905C8F808501D681AF4803F14BFE1
:101590002543A5431D605D681AF4003F14BF254331
:1015A000A5435D609D681AF4801F14BF2543A543C1
:1015B0009D60DD681AF4001F14BF2C4325EA040463
:1015C000DC600136102E7FF474AF03B0BDE8F08FFD
:1015D000032D22D0112D85D1CA68043282E71B4F1A
:1015E000BD4209D012D8DFF870904D4504D009F5FE
:1015F00080394D457FF476AF8A68C2B1012A0CBFAD
:10160000C0F81080C0F8148008226BE76545F3D05D
:101610007545F1D0DFF84490EBE7002262E7CA6835
:1016200060E7CA6808325DE7CA680C325AE70422EC
:1016300058E70025A2E70125A0E702259EE700BFA5
:101640000004014000100240000801400000211089
:1016500000003110000032100000111000002210B4
:101660000AB1016170470904FBE7000003682DE936
:10167000F341DB07054610D42B689F075ED42B6827
:10168000190700F195802B685A0700F1BF80EA69BD
:10169000002A40F02D81002014E0904C636803F094
:1016A0000C03042B07D0636803F00C03082B0CD148
:1016B0006368DE0309D523689C03DDD56B68002BC6
:1016C000DAD1012002B0BDE8F0816B68B3F5803F4C
:1016D00010D1236843F480332360FFF7A9FC06464A
:1016E00023689803C8D4FFF7A3FC801B6428F7D9AC
:1016F0000320E7E79BB9236823F480332360236842
:1017000023F480232360FFF793FC064623689903A4
:10171000B2D5FFF78DFC801B6428F7D9E8E7B3F555
:10172000A02F236803D143F480232360D1E723F45F
:1017300080332360236823F48023CDE7674C6368FC
:1017400013F00C0F07D0636803F00C03082B10D1C3
:101750006368DA030DD423689B0702D52B69012B3C
:10176000AFD123686A6923F0F80343EAC203236018
:1017700085E72A695A4B6AB101221A60FFF758FCC3
:10178000064623689F07ECD4FFF752FC801B022813
:10179000F7D9ADE71A60FFF74BFC064623689807B8
:1017A0007FF56DAFFFF744FC801B0228F6D99FE759
:1017B000AA694A4C4B4BDAB101221A60FFF738FC98
:1017C0000646636A9B070DD54FF4FA52464B1B68D9
:1017D000B3FBF2F3019300BF019B5A1E0192002B51
:1017E000F9D150E7FFF724FC801B0228E9D97FE7F5
:1017F0001A60FFF71DFC0646636A9F077FF543AF3B
:10180000FFF716FC801B0228F6D971E7334CE36919
:10181000D80024D40127E36943F08053E361E369EE
:1018200003F080530093009B304E3368D90518D5E0
:10183000EB68012B26D1236A43F001032362FFF7F3
:10184000F7FB41F288368046236A9B073FD5002F7D
:101850003FF41DAFE36923F08053E36117E70027EE
:10186000E2E7336843F480733360FFF7E1FB8046BF
:101870003368DA05DCD4FFF7DBFBA0EB0800642853
:10188000F6D935E7ABB9236A41F2883823F0010372
:101890002362236A23F004032362FFF7C9FB064691
:1018A000236A9807D3D5FFF7C3FB801B4045F7D9C0
:1018B0001EE7052B236A03D143F004032362BAE732
:1018C00023F001032362236A23F00403B6E7FFF742
:1018D000AFFBA0EB0800B042B6D909E70010024008
:1018E00000004242800442420C0000200070004090
:1018F000224C636803F00C03082B3FF4E2AE002394
:101900001F4E022A33602BD1FFF792FB0746236854
:1019100099011FD42B6AB3F5803F05D16268A9688D
:1019200022F400320A436260696A62680B4322F45F
:1019300074121343636001233360FFF779FB05469C
:1019400023689A013FF5A7AEFFF772FB401B022800
:10195000F6D9CDE6FFF76CFBC01B0228D7D9C7E646
:10196000FFF766FB054623689B017FF594AEFFF702
:101970005FFB401B0228F6D9BAE600BF0010024008
:101980006000424230B5184B87B002AC03F110053D
:10199000224618685968083303C2AB421446F7D18F
:1019A00040F201231149ADF804304B6803F00C02FA
:1019B000082A17D1C3F3834206A80244DB0312F8B6
:1019C000102C0CD54B680A48C3F34043504306AA79
:1019D000134413F8143CB0FBF3F007B030BD0548D6
:1019E0005043FAE70248F8E7244E0008001002408E
:1019F00000127A0000093D00534A2DE9F0411368B6
:101A0000054603F007038B420E4628D329688C074E
:101A100032D4CA0745D44C4A136803F00703B342D3
:101A20007FD82A68494C12F0040F40F085801307D4
:101A300006D563682A6923F4605343EAC2036360EE
:101A4000FFF7A0FF6368424AC3F30313D35CD84097
:101A5000404B18600020FFF7A9FA00200AE0136845
:101A600023F007030B431360136803F007038B4253
:101A7000CCD00120BDE8F081344B11F0040F1EBF23
:101A80005A6842F4E0625A60080742BF5A6842F45A
:101A900060525A605A68A86822F0F00202435A6005
:101AA000B7E76A68294C012A23681BD113F4003F69
:101AB000DFD0636841F2883823F003031343636087
:101AC000FFF7B6FA6B680746012B13D1636803F082
:101AD0000C03042B9FD0FFF7ABFAC01B4045F5D990
:101AE0000320C7E7022A02D113F0007FE0E713F0DA
:101AF000020FDDE7022B0FD1636803F00C03082B04
:101B000089D0FFF795FAC01B4045F5D9E8E7FFF704
:101B10008FFAC01B4045E3D8636813F00C0FF6D171
:101B200079E7136823F0070333431360136803F066
:101B30000703B3429DD174E76368E96823F4E06367
:101B40000B43636073E700BF0020024000100240B7
:101B5000344E00080C000020044B054A5B68C3F3B8
:101B60000223D35C034A1068D8407047001002403B
:101B7000444E00080C000020044B054A5B68C3F388
:101B8000C223D35C034A1068D8407047001002405B
:101B9000444E00080C00002010B50446002834D044
:101BA0000023836290F851300BB901F09BFC0223B3
:101BB000216884F851300B68A26923F040030B6060
:101BC000D4E901300343E0680343206903436069BB
:101BD0000343E0690343206A0343A06A034302F41A
:101BE000007003430B60120C636A02F004021A4394
:101BF000E36A4A600B61CB69002023F40063CB6188
:101C00000123606584F8513010BD0120FCE70368B2
:101C10000020DA6842F00102DA601A6842F001023C
:101C20001A607047036889B1042907D01A6A22F044
:101C300001021A621A6A42F001021A621A6A22F05A
:101C400010021A621A6A42F0100206E01A6A22F0C2
:101C500001021A621A6A42F001021A621A6800202E
:101C600042F001021A60704790F83C3070B5012BC9
:101C70004FF002031CD0012280F83D30036880F849
:101C80003C209A6822F47F4222F077029A600A6828
:101C9000402A79D019D8102A00F093800AD8002A57
:101CA00000F08980012380F83D30002380F83C302B
:101CB000184670BD202A00F08A80302AF2D19A6836
:101CC00022F0700242F0370236E0702A36D01BD87C
:101CD000502A42D0602AE5D11C6A4D6824F01004D5
:101CE000CE681C6299691A6A21F4704122F0A00240
:101CF00042EA051241EA063199611A629A6822F0B5
:101D0000700242F0670217E0B2F5805F11D0B2F5C1
:101D1000005FC7D1D1E901529C68C9682A4324F405
:101D20007F4442EA012222439A609A6842F4804248
:101D300002E09A6822F007029A60B3E79C68D1E952
:101D40000152C9682A4324F47F4442EA0122224313
:101D50009A609A6842F07702EEE74C68CE68196A9A
:101D60001D6A21F00A0125F001051D629A692143CF
:101D700022F0F00242EA06129A6119629A6822F091
:101D8000700242F05702D7E74C68CE68196A1D6AA4
:101D900021F00A0125F001051D629A69214322F014
:101DA000F00242EA06129A6119629A6822F0700201
:101DB00042F04702C0E79A6822F0700242F0070240
:101DC000BAE79A6822F0700242F01702B4E79A6804
:101DD00022F0700242F02702AEE700001A4A0368C0
:101DE00090420AD0B0F1804F07D0A2F594329042D1
:101DF00003D002F58062904215D14A6823F0700347
:101E00001343114A90420AD0B0F1804F07D0A2F597
:101E10009432904203D002F58062904203D1CA68A6
:101E200023F4407313434A6923F080031343036090
:101E30008B68C3620B688362034B984204BF0B69D3
:101E40000363012343617047002C014010B5044631
:101E5000A0B190F83D3003F0FF021BB980F83C20A0
:101E600001F0D8FB0223206884F83D30211DFFF7E4
:101E7000B5FF0123002084F83D3010BD0120FCE7B0
:101E8000F8B50C460546002841D090F83D3003F0E7
:101E9000FF021BB980F83C2001F060FB29460223B9
:101EA00051F8040B85F83D30836823F00703836005
:101EB000FFF794FF2868236886688269A1681E433B
:101EC000A36922F4407222F0030241EA0323134380
:101ED00023F47C422369E1691B0143EA0123E168A1
:101EE000076A0B43216A22F0FC0243EA01331343E1
:101EF000616927F0AA026768866047EA0117836173
:101F0000174301230762002085F83D30F8BD01200A
:101F1000FCE790F83C3010B5012B4FF0020318D0CD
:101F200080F83D3003680C685A68496822F07002F6
:101F30005A605A6822435A609A6822F080029A6076
:101F40009A680A439A60012380F83D30002380F8A4
:101F50003C30184610BD0368DA6822F49072DA60EB
:101F60005A6922F001025A61202380F83A30704702
:101F70002DE9F84380460368C1681A69192422F4E0
:101F800040520A431A6182680069D9680243D8F84E
:101F9000140021F4B05121F00C0102430A43DA602D
:101FA0005A69D8F8181022F440720A435A613E4A1E
:101FB000934247D1FFF7E0FD04FB00F3D8F804603B
:101FC0006427B600B3FBF6F3B3FBF7F31E01FFF78C
:101FD000D3FD6043D8F804309B00B0FBF3F5FFF766
:101FE000CBFD6043D8F804309B00B0FBF3F3B3FBA8
:101FF000F7F307FB13531B013233B3FBF7F303F083
:10200000F005FFF7B9FD6043D8F804209200B0FB5B
:10201000F2F9FFF7B1FD6043D8F80430D8F800209A
:102020009B00B0FBF3F3B3FBF7F307FB13931B0128
:102030003233B3FBF7F303F00F032B4333449360C6
:10204000BDE8F883FFF788FD04FB00F3D8F80460CF
:102050006427B600B3FBF6F3B3FBF7F31E01FFF7FB
:102060007BFD6043D8F804309B00B0FBF3F5FFF72D
:1020700073FD6043D8F804309B00B0FBF3F3B3FB6F
:10208000F7F307FB13531B013233B3FBF7F303F0F2
:10209000F005FFF761FD6043D8F804209200B0FB23
:1020A000F2F9FFF759FDB6E70038014010B50446D4
:1020B00040B390F8393003F0FF021BB980F83820A4
:1020C00001F0C0FA2423226884F83930D36820460E
:1020D00023F40053D360FFF74BFF236800201A69F5
:1020E00022F490421A615A6922F02A025A61DA688F
:1020F00042F40052DA602023E06384F8393084F837
:102100003A3010BD0120FCE77047704790F83A3034
:1021100010B5222B33D181680469B1F5805F836AE1
:10212000026823D15268ECB9C2F3080223F8022BEB
:102130008362C48D013CA4B2C4858CB90368DA689B
:1021400022F02002DA60DA6822F48072DA605A69DA
:1021500022F001025A61202380F83A30FFF7D5FFC0
:1021600000200DE0D2B223F8012BE1E7591C5268A0
:1021700081620CB91A70DCE702F07F02FAE70220F4
:1021800010BD7047036870B51A6804461607D96811
:102190005D6907D1960658D58D0656D5BDE87040C5
:1021A000FFF7B4BF15F0010502D111F4907F4CD0B8
:1021B000D30705D5CE0542BFE36B43F00103E363CC
:1021C000500704D51DB1E36B43F00203E3639307AB
:1021D00004D51DB1E36B43F00403E363160704D594
:1021E0001DB1E36B43F00803E363E36B43B3950670
:1021F00004D5880602D52046FFF788FF23682046CD
:102200005D69E26B110702D415F0400519D0FFF7A4
:10221000A2FE23685A6952060FD55A69606B22F0F4
:1022200040025A6148B1264B4363FFF7F1F838B1D9
:10223000606BBDE87040436B18472046FFF7A1FF75
:1022400070BDFFF79EFFE563FAE7160628D50D0679
:1022500026D594F83920212AF2D1A168226AB1F555
:10226000805F18D11188C1F308015960216981B9D3
:1022700002322262E28C013A92B2E284002ADFD179
:10228000DA6822F08002DA60DA6842F04002DA604E
:10229000D6E70132EDE7511C216212785A60E9E776
:1022A0005006CDD54A06CBD5DA68204622F040024A
:1022B000DA60202384F83930FFF726FFC0E700BF3B
:1022C000C522000808B50023406AC385C384FFF710
:1022D00058FF08BD80B485B000AFF860B9607A607F
:1022E0003B60FB68BA681A60FB687A685A60FB68F2
:1022F0003A689A60FB684FF00002DA60FB681846A3
:102300001437BD4680BC704780B483B000AF78609E
:102310000B46FB707B681B689B6803F00203002B75
:102320000CBF01230023DBB2002B00D0F2E77B6857
:102330001B68FA78DA607B681B689B6803F001030E
:10234000002B0CBF01230023DBB2002B00D0F2E7EF
:102350007B681B68DB68DBB218460C37BD4680BC67
:10236000704780B483B000AF78607B689A687B6800
:102370005B6812041A6100BF0C37BD4680BC704711
:1023800080B483B000AF78607B685B687A689268DD
:102390001A6100BF0C37BD4680BC704780B584B061
:1023A00000AF78600B46FB701346BB700023FB73D5
:1023B0007868FFF7D6FFFB7819467868FFF7A4FF27
:1023C000BB7819467868FFF79FFF0346FB73786870
:1023D000FFF7D6FFFB7BDBB218461037BD4680BD4A
:1023E00080B584B000AF78600B46FB7013463B802D
:1023F0000023FB817868FFF7B4FFFB781946786803
:10240000FFF782FF3B881B0A9BB2DBB21946786854
:10241000FFF77AFF03469BB21B029BB2FB813B880E
:10242000DBB219467868FFF76FFF03469AB2FB8963
:102430009BB213439BB2FB817868FFF7A1FFFB8936
:102440009BB218461037BD4680BD000090B583B0E2
:1024500000AF78607B6800221A607B684FF0000252
:102460009A607B684FF00002DA607B684FF00002F0
:102470001A617B6800225A60102001F084F903463B
:102480001C464FF48053064A06492046FFF722FFB8
:102490007B681C607B6818460C37BD4690BD00BF4A
:1024A000000C01400038004080B588B000AFF860F3
:1024B000B9607A604FF00003FB614FF00003BB612D
:1024C00000237B617B69FF2B2FDCFB681B680022EC
:1024D000C7211846FFF784FF03461BB21846FEF7D4
:1024E0000FFB034627491846FEF75EFB03462649C5
:1024F0001846FEF70DFC03463B613969F869FEF7A3
:102500004BFA0346FB6139693869FEF74DFB034618
:102510001946B869FEF740FA0346BB610520FEF78D
:102520008DFD7B6901337B61CCE74FF08741F86912
:10253000FEF7EEFB0346FB614FF08741F869FEF7BB
:1025400033FB0346F9691846FEF72EFB034619468E
:10255000B869FEF71FFA0346BB610C49B869FEF77C
:10256000D7FB0346BB61B86901F092F9B861BB685B
:10257000FA691A607B68BA691A6000BF2037BD46E5
:1025800080BD00BF00007A443333034200007F4324
:1025900080B586B000AF78607B681B680022F521AB
:1025A0001846FFF7FBFE0346FB74FB7C712B07D03C
:1025B0007B681B681021184601F0E3F8002346E011
:1025C0007B681B6803226B211846FFF7E7FE7B68D8
:1025D0001B6803221A211846FFF7E0FE7B681B6880
:1025E000002219211846FFF7D9FE7B681B681022CC
:1025F0001B211846FFF7D2FE6420FEF71FFD4FF0A7
:102600000003FB60144BBB6000237B617B69092BDB
:102610001CDC07F1080207F10C0319467868FFF784
:1026200043FFBB680D491846FEF75CFC0346002BD0
:1026300008D0FB681846FEF793FC02467B685A6098
:10264000012304E07B6901337B61DFE70023184647
:102650001837BD4680BD00BF00007A4400002F44FB
:1026600090B587B000AF78603C4B5B6A1BB27B8152
:102670003A4B00225A623A4B5B6A1BB23B81384BA1
:1026800000225A627B681B6936491846FEF782F9B8
:1026900003467B61786901F091F83861786901F04F
:1026A000C1F8F8607B891BB21846FEF729FA034689
:1026B00039691846FEF778FA03461C463B891BB277
:1026C0001846FEF71DFA0346F9681846FEF76CFA3D
:1026D000034619462046FEF75DF90346224918468F
:1026E000FEF762FA03461A467B689B681946104655
:1026F000FEF752F903461A467B689A607B891BB243
:102700001846FEF7FDF90346F9681846FEF74CFA3D
:1027100003461C463B891BB21846FEF7F1F90346F7
:1027200039691846FEF740FA034619462046FEF777
:1027300033F903460C491846FEF736FA03461A46A3
:102740007B68DB6819461046FEF726F903461A46F1
:102750007B68DA6000BF1C37BD4690BD00040040B6
:1027600000080040DB0F493F1D1F9E3890B585B023
:1027700000AF78607B681B680022C7211846FFF70E
:102780002FFE03461BB21A464FF47A7303FB02F383
:102790001846FEF7B5F9034640491846FEF7B8FA61
:1027A00003464FF07C511846FEF7F6F803461846EC
:1027B000FEF7D6FB0346FB607B685B68FA68D31ABA
:1027C000BB60BB6813F1640F02DBBB68642B3BDDAD
:1027D0007B681C69B868FEF793F9034630491846D0
:1027E000FEF7E2F9034619462046FEF7D5F8034600
:1027F0001A467B681A617B681B692A491846FEF7EE
:102800008FFB0346002B0AD07B681B6926491846BC
:10281000FEF7C0F803461A467B681A613AE07B6807
:102820001B6922491846FEF75DFB0346002B00D1C9
:1028300030E07B681B691C491846FEF7ADF803467B
:102840001A467B681A6125E07B685B681846FEF7CC
:1028500057F9034616491846FEF7A6F903461C46E3
:10286000F868FEF74DF9034612491846FEF79CF941
:10287000034619462046FEF78FF803464FF07C5179
:102880001846FEF789F803461846FEF769FB02462C
:102890007B685A6000BF1437BD4690BD3333034296
:1028A00032EC1533DB0F4940DB0FC940DB0F49C069
:1028B000A4707D3F0AD7233C80B582B000AF78601A
:1028C0007868FFF765FE034618460837BD4680BDA9
:1028D00080B582B000AF78607868FFF7C1FE786895
:1028E000FFF744FF00BF0837BD4680BD80B400AF8E
:1028F000064B30221A60064B064A1A60064B00222D
:102900001A7000BFBD4680BC704700BF9C08002005
:10291000040A002000640040A008002080B582B0B6
:1029200000AF786039607B685B019BB2244A13601A
:10293000234B1A687B681B0E1344214A1360204BFB
:102940005A687B68DB0023F47F5323F03F03134472
:102950001B4A53603B685B019BB2194A9360184B5A
:102960009A683B681B0E1344154A9360144BDA684F
:102970003B68DB0023F47F5323F03F031344104AEA
:10298000D3600F4B00229A610D4B0122DA610C4B90
:1029900000225A610A4B00221A61094B00225A6236
:1029A000074B01221A62074B1B78012B03D1044904
:1029B0000548FEF7D0FB00BF0837BD4680BD00BF0D
:1029C00074080020A0080020040A002080B500AF91
:1029D000284B1B78002B48D1274B1B68274A536094
:1029E000264B00229A60254B0022DA60234B4FF4DD
:1029F00040321A61214B4FF400125A611F4B0022E2
:102A00001A761E4B01225A761C4B00229A761B4BDB
:102A10000122DA76194B00221A77184B00225A77D6
:102A20001648FEF71DFB134B01221A7000210020EF
:102A3000FFF774FF1148FEF7FAFB0346002B14BFA3
:102A400001230023DBB2002B01D000F08DFC02211A
:102A50000A48FEF764FC0346002B14BF0123002341
:102A6000DBB2002B01D000F07FFC054B02221A6183
:102A700000BF80BDA00800209C080020040A0020A0
:102A8000000C014080B483B000AF0346FB71244BBF
:102A90001B78012B3ED0FB79082B3CD801A252F8C1
:102AA00023F000BFC92A0008D32A0008DB2A000847
:102AB000E32A0008EB2A0008F32A0008FB2A000892
:102AC000032B00080B2B0008164B4FF4E1721A6021
:102AD00021E0144BE1221A601DE0124B5A221A60C9
:102AE00019E0104B2D221A6015E00E4B24221A60BB
:102AF00011E00C4B12221A600DE00A4B09221A60F9
:102B000009E0084B06221A6005E0064B04221A6011
:102B100000BF00E000BF0C37BD4680BC704700BF5F
:102B2000A00800209C08002080B584B000AF786029
:102B3000396007F108033A6879680648FEF7A2FB96
:102B40000346FB6000F008F8FB6818461037BD46E6
:102B500080BD00BF040A002010B5094C23686BB982
:102B6000FEF766FA074B1B68C01A0A2806D94FF40D
:102B70000052054B1A61FEF75BFA206010BD00BFE2
:102B8000A8080020A40800200010014010B50A4C3D
:102B900023687BB1FEF74CFA2368C01A0A2809D9CA
:102BA0004FF00052054B1A6100232360FEF740FAF4
:102BB000034B186010BD00BFA808002000100140A2
:102BC000A408002080B483B000AF03463960FB71D5
:102BD00097F90730002B0CDA3B68DAB20D4997F908
:102BE000073003F00F03043B1201D2B20B441A76F4
:102BF0000BE03B68DBB2084A97F9071008461B0157
:102C0000D9B213180A4683F8002300BF0C37BD461B
:102C100080BC704700ED00E000E100E080B582B0CC
:102C200000AFFEF7E7F900F031FB00F0A1FA00F089
:102C300041FA00F0E1F900F0A3F900F0F9FAFFF72A
:102C400055FE01214FF0FF30FFF7BCFF00F048F9BF
:102C50001B4B1B681A4A43F0400313601948FEF7E8
:102C6000D6FF18211848FEF7DDFF18211748FEF798
:102C7000D9FF0620FFF706FF154B1B681846FFF724
:102C80001BFE0346FB71FB7983F00103DBB2002BD3
:102C90000ED06420FEF7D2F90E4B4FF000721A618D
:102CA0006420FEF7CBF90B4B4FF400721A61F0E78A
:102CB000FFF78CFE1C20FEF789FB00F0D5F8FEE73D
:102CC0000038004004090020440900208409002045
:102CD000740A0020000C0140B0B582B000AF4FF084
:102CE00080431B6903F00103002B14BF0123002361
:102CF000DBB2002B0CD0524B1B681846FFF7E8FDE7
:102D00004FF080431B694FF0804223F001031361B1
:102D10004B4B1B681B69184600F050FD7860484B10
:102D20001B681B69184600F07DFD3860444B1B682A
:102D30009B681846FDF770FB04460D467868FDF762
:102D40006BFB3DA3D3E90023FDF7BEFB02460B4618
:102D500020462946FDF702FA03460C46394AC2E9E5
:102D60000034374B1B68DB681846FDF755FB0446FB
:102D70000D463868FDF750FB2FA3D3E90023FDF77C
:102D8000A3FB02460B4620462946FDF7E7F903461A
:102D90000C462D4AC2E900342A4B18CB1A4623466A
:102DA0002A4800F0E7FA284B18CB1A462346284851
:102DB00000F0E0FA224B1B681B691846FDF72CFB5C
:102DC00003460C461A462346224800F0D3FA1F4910
:102DD0002148FFF7A9FE00BF00BF00BF00BF00BF32
:102DE00000BF00BF00BF00BF00BF19491B48FFF76D
:102DF0009BFE00BF00BF00BF00BF00BF00BF00BF01
:102E000000BF00BF00BF13491548FFF78DFE154BEB
:102E10009B6903F00403042B0CBF01230023DBB2E6
:102E2000002B00D000BFFFF7B1FE00BF0837BD4642
:102E3000B0BD00BFAFF3008000000080F4A2C63F29
:102E4000740A0020900A0020980A0020780A0020C6
:102E5000800A0020880A00202C0A0020440A002052
:102E60005C0A00200064004080B400AF194B0022CF
:102E7000DA60184B00229A60164B40F205221A6065
:102E8000144B00225A60134B08221A61124B002285
:102E9000DA60114B00229A600F4B40F206221A6052
:102EA0000D4B00225A600C4B08221A610B4B00227A
:102EB000DA600A4B00229A60084B40F207221A603F
:102EC000064B00225A60054B08221A6100BFBD461E
:102ED00080BC70472C0A0020440A00205C0A0020B5
:102EE00080B590B000AF07F11803282200211846E2
:102EF00001F068FD3B1D00221A605A609A60DA609A
:102F00001A610123BB614FF48033FB6100233B62F4
:102F10000123BB6202237B634FF48033BB634FF416
:102F2000E013FB6307F118031846FEF79FFB034607
:102F3000002B14BF01230023DBB2002B01D000F0D3
:102F400013FA0F237B600223BB600023FB604FF466
:102F500080633B6100237B613B1D02211846FEF725
:102F60004BFD0346002B14BF01230023DBB2002BD3
:102F700001D000F0F9F900BF4037BD4680BD000028
:102F800080B500AF1A4B1B4A1A60194B4FF482727E
:102F90005A60174B00229A60154B0022DA60144BDE
:102FA00000221A61124B00225A61114B4FF4007239
:102FB0009A610F4B2822DA610D4B00221A620C4BEA
:102FC00000225A620A4B00229A62094B0722DA62F7
:102FD0000748FEF7E1FD0346002B14BF0123002341
:102FE000DBB2002B01D000F0BFF900BF80BD00BFF5
:102FF000AC0800200038004080B58CB000AF07F16D
:103000000C0324220021184601F0DCFC3B1D0022A9
:103010001A605A60254B264A1A60244B00225A60D7
:10302000224B00229A60214B4FF6FF72DA601F4B51
:1030300000221A611D4B00229A610323FB600023CA
:103040003B6101237B610023BB610023FB61002303
:103050003B6201237B620023BB620023FB6207F11A
:103060000C0319461148FEF70BFF0346002B14BF53
:1030700001230023DBB2002B01D000F075F90023FF
:103080007B600023BB603B1D19460848FEF741FFEB
:103090000346002B14BF01230023DBB2002B01D019
:1030A00000F062F900BF3037BD4680BD84090020C2
:1030B0000008004080B58CB000AF07F10C0324225B
:1030C0000021184601F07EFC3B1D00221A605A6068
:1030D000254B264A1A60244B00225A60224B0022BC
:1030E0009A60214B4FF6FF72DA601F4B00221A6183
:1030F0001D4B00229A610323FB6000233B610123E7
:103100007B610023BB610023FB6100233B62012341
:103110007B620023BB620023FB6207F10C031946AC
:103120001148FEF7ADFE0346002B14BF0123002318
:10313000DBB2002B01D000F017F900237B600023E5
:10314000BB603B1D19460848FEF7E3FE0346002B13
:1031500014BF01230023DBB2002B01D000F004F9DF
:1031600000BF3037BD4680BD440900200004004048
:1031700080B586B000AF07F1080300221A605A60DC
:103180009A60DA603B4600221A605A60264B4FF084
:1031900080421A60244B47225A60234B00229A60D7
:1031A000224B1B68013B204AD3601F4B4FF4007237
:1031B0001A611D4B00229A611B48FEF747FE034629
:1031C000002B14BF01230023DBB2002B01D000F041
:1031D000CBF84FF48053BB6007F10803194612483F
:1031E000FEF742FD0346002B14BF01230023DBB290
:1031F000002B01D000F0B8F800233B6000237B6077
:103200003B4619460848FEF784FE0346002B14BFD0
:1032100001230023DBB2002B01D000F0A5F800BF92
:103220001837BD4680BD00BF0409002008000020FB
:1032300080B500AF134B144A1A60124B4FF4E132C1
:103240005A60104B00229A600E4B0022DA600D4B40
:1032500000221A610B4B0C225A610A4B00229A6120
:10326000084B0022DA610748FEF720FF0346002BD7
:1032700014BF01230023DBB2002B01D000F074F84F
:1032800000BF80BDC40900200038014080B588B06F
:1032900000AF07F1100300221A605A609A60DA60EA
:1032A0002E4B9B692D4A43F0100393612B4B9B6976
:1032B00003F01003FB60FB68284B9B69274A43F02F
:1032C00020039361254B9B6903F02003BB60BB681F
:1032D000224B9B69214A43F0040393611F4B9B6976
:1032E00003F004037B607B681C4B9B691B4A43F023
:1032F00008039361194B9B6903F008033B603B682B
:1033000000224FF400511648FEF7AAF9002241F2BC
:1033100007611448FEF7A4F94FF400533B61012301
:103320007B610023BB610223FB6107F11003194697
:103330000B48FEF7B5F841F207633B6101237B615F
:103340000023BB610223FB6107F110031946054806
:10335000FEF7A6F800BF2037BD4680BD0010024032
:1033600000100140000C014080B400AF00BFBD461A
:1033700080BC704790B488B000AFF860C7E9002304
:10338000D7E90034C7E904340823FB61FB69002B4B
:1033900017DDFB69013BFB61D7E90434D9B2FA6858
:1033A000FB6913440A461A70D7E904124FF0000370
:1033B0004FF000040B0A43EA0263140AC7E904341D
:1033C000E4E700BF2037BD4690BC704790B583B09E
:1033D00000AF786039607B68012B0ED13B684FF6F7
:1033E000FF72934209D1142000F0CDF903461C4628
:1033F0002046FFF72BF8034B1C6000BF0C37BD467F
:1034000090BD00BF740A002080B500AF4FF6FF7179
:103410000120FFF7DBFF80BD0E4B82B09A6942F0BE
:1034200001029A619A6902F001020092009ADA6937
:1034300042F08052DA61DB69074A03F0805301935E
:10344000019B536823F0E06343F00073536002B0C4
:10345000704700BF001002400000014010B5044654
:1034600086B01022002102A801F0ACFA22681A4BA3
:103470009A422ED103F5D633DA6902A942F00072DE
:10348000DA61DA69154802F000720092009A9A69CE
:1034900042F004029A619B6903F004030193019BCB
:1034A0004FF480730293FDF7FBFF4FF40072022389
:1034B000CDE90223032302A908480593FDF7F0FF95
:1034C000074A536823F4C04343F0E06343F4804366
:1034D000536006B010BD00BF00640040000C014006
:1034E0000000014010B5044686B01022002102A859
:1034F00001F068FA2268174B9A4228D103F5EC33A1
:10350000DA6902A942F48042DA61DA69124802F407
:1035100080420092009A9A6942F008029A619B697F
:103520004FF4204203F008030193019B0223CDE9ED
:10353000022303230593FDF7B3FF4FF480410023DB
:103540000548CDE9021302A90493FDF7A9FF06B0CF
:1035500010BD00BF00380040000C0140102210B523
:10356000044688B00DEB0200002101F02BFA23681D
:10357000234A934225D1234B04A9DA69224842F019
:103580000202DA61DA6902F002020092009A9A6994
:1035900042F008029A619B6903F008030193019BC2
:1035A0003023049301230693FDF77AFF174A5368EB
:1035B00023F4406343F0E06343F40063536008B0D6
:1035C00010BD134A9342FAD10E4B04A9DA690E4892
:1035D00042F00402DA61DA6902F004020292029A0D
:1035E0009A6942F008029A619B6903F00803039309
:1035F000039BC023049301230693FDF751FFDEE7ED
:103600000004004000100240000C01400000014096
:1036100000080040036882B0B3F1804F10D103F579
:103620000433DA691C2042F00102DA6100221146FB
:10363000DB6903F001030193019B02B0FDF792BE29
:1036400002B0704710B5044686B01022002102A8CF
:1036500001F0B8F922681B4B9A4231D103F5584367
:103660009A6902A942F480429A619A69164802F462
:1036700080420092009A9A69002442F004029A6102
:103680009B694FF4007203F004030193019B022332
:10369000CDE9022303230593FDF702FF4FF4806376
:1036A000CDE90234012302A907480493FDF7F8FE8F
:1036B000252022462146FDF755FE2520FDF786FEF2
:1036C00006B010BD00380140000801407047FEE719
:1036D000FEE7FEE7FEE7704770477047FDF79CBCCA
:1036E0000148FEF74FBD00BFC40900200F4B1A6808
:1036F00042F001021A6059680D4A0A405A601A687D
:1037000022F0847222F480321A601A6822F4802235
:103710001A605A6822F4FE025A604FF41F029A603F
:103720004FF00062034B9A60704700BF00100240E8
:103730000000FFF800ED00E0002103E00B4B5B58B8
:10374000435004310A480B4B42189A42F6D30A4AB6
:1037500002E0002342F8043B084B9A42F9D3FFF7FA
:10376000C5FF00F0C5FEFFF759FA70473852000850
:10377000000000205408002058080020F00A002013
:10378000FEE700F019B810B5002814BF0446012464
:10379000204600F0D1FE30B900F006F808B900F07C
:1037A00099FE8047F4E710BD024B1868BFF35B8FAA
:1037B000704700BFA00A002000F0C6BE07B5184A37
:1037C00020F000439342014603DC002100F056FA4A
:1037D00004E0B3F1FF4F04DBFDF7DCF803B05DF864
:1037E00004FB694600F09EF800F00302012A05D0B0
:1037F000022A0AD072B901990098E7E70199009866
:1038000000F05AFD00F10040E8E70199009800F04F
:1038100035FAF7E701220199009800F04DFDDDE748
:10382000D80F493F07B5194A20F00043934201469B
:1038300004DC0022002100F03FFD04E0B3F1FF4F63
:1038400004DBFDF7A7F803B05DF804FB694600F060
:1038500069F800F00300012806D0022809D080B9D9
:10386000012201990098E6E70199009800F006FA14
:10387000E9E701220199009800F01EFD00F10040E7
:10388000E1E70199009800F0F9F9F7E7D80F493F0F
:10389000F0B58BB0044600F09DF9204B064693F935
:1038A00000506B1C2AD021462046FDF743FB0746FB
:1038B00020BB00212046FDF715FBF8B10123009342
:1038C000174B204601930897FCF7A6FD0022CDE98F
:1038D0000401CDE9020100239DB9CDE90623684624
:1038E00000F060FDA8B1089B1BB100F0FBFD089B38
:1038F0000360DDE90601FCF7F9FF064630460BB030
:10390000F0BD10461946FCF709FF022DCDE906016E
:10391000E5D100F0E7FD21230360E4E7100000207B
:103920004C4E00082DE9F04F9D4A20F0004595428D
:1039300087B00C46074604DC002320604B6000265D
:103940001AE0984A95424BDC002825F00F0596496D
:10395000964E23DDFDF71EF8B542074610D0944978
:10396000FDF718F8014620603846FDF713F8904936
:10397000FDF710F801266060304607B0BDE8F08F13
:103980008C49FDF707F88C490546FDF703F8014619
:1039900020602846FCF7FEFF8749E9E7FCF7FCFFBB
:1039A000B54207460ED08249FCF7F6FF014620607B
:1039B0003846FCF7EFFF7E49FCF7EEFF4FF0FF368D
:1039C0006060D9E77B49FCF7E7FF7B490546FCF7D8
:1039D000E3FF014620602846FCF7DCFF7649EBE771
:1039E000764A954200F38C8000F0DEFC74498046F4
:1039F000FDF7DAF84FF07C51FCF7CEFFFDF7B0FA97
:103A00000646FDF77DF868498246FDF7CDF8014688
:103A10004046FCF7BFFF664980465046FDF7C4F8B4
:103A20001F2E81460CDC674A711E52F8212025F0BA
:103A3000FF03934204D049464046FCF7ABFF09E040
:103A400049464046FCF7A6FFED15C0F3C753EB1AF5
:103A5000082B01DC206024E056495046FDF7A4F80D
:103A6000814601464046FCF795FF014683464046A5
:103A7000FCF790FF4946FCF78DFF80464E495046C3
:103A8000FDF792F84146FCF785FF0146814658460E
:103A9000FCF780FFC0F3C753ED1A192D15DCD8468B
:103AA0002060256840462946FCF774FF4946FCF72C
:103AB00071FF002F6060BFF65FAF05F1004500F1B8
:103AC000004025606060764256E73F495046FDF76A
:103AD0006BF8054601465846FCF75CFF01468046F8
:103AE0005846FCF757FF2946FCF754FF054637496F
:103AF0005046FDF759F82946FCF74CFF81469AE7F6
:103B0000B5F1FF4F05DB0146FCF744FF6060206024
:103B100015E7EE15863EA5EBC6552846FDF720FABB
:103B2000FCF7EEFF014603902846FCF733FF4FF009
:103B30008741FDF739F88046FDF712FAFCF7E0FF00
:103B40000146049005464046FCF724FF4FF08741AC
:103B5000FDF72AF800210590FDF7BAF9E8B1002138
:103B60002846FDF7B5F9002814BF01230223184A9F
:103B700021460192022203A80092324600F0FEF88C
:103B8000002F0646BFF6F8AE236803F1004323601A
:103B9000636803F10043636095E70323E7E700BF31
:103BA000D80F493FE3CB1640800FC93FD00FC93F24
:103BB000434435370044353708A3852E800F4943E9
:103BC00084F9223F544E000800A3852E32318D2403
:103BD000D44E000820F00042B2F1FF4F70B503460A
:103BE000044609D30146FCF7DFFF01462046FCF7F7
:103BF000D3FE0446204670BD002AFBD0002806DA1A
:103C00000146FCF7C7FE0146FDF782F8F1E7B2F581
:103C1000000F4FEAE0542ED37F3CE2074FF0000242
:103C20004FEA640116464FF019044FF08070C3F359
:103C3000160343F4000348BF5B005B0035189D4248
:103C4000DEBF2E185B1B1218013C4FEA43034FEAFC
:103C50005000F3D113B1013222F00102541004F1EB
:103C60007C5404EBC154C5E75B0001321902FBD55B
:103C7000013AA41AD0E70022F8E700002DE9F0414C
:103C800020F00044B4F1485F0646884603DAFDF7A9
:103C900067F900285CD031463046FCF785FF4FF0CD
:103CA0007C510546FCF780FF2B4907462846FCF768
:103CB0007BFF2A49FCF770FE2946FCF775FF28496F
:103CC000FCF768FE2946FCF76FFF2649FCF764FE07
:103CD0002946FCF769FF2449FCF75CFE2946FCF7FE
:103CE00063FF2249FCF758FE2946FCF75DFF294691
:103CF000FCF75AFF414605463046FCF755FF0146A2
:103D00002846FCF747FE1A4B05469C420ADC014652
:103D10003846FCF73FFE01464FF07E50FCF73AFE76
:103D2000BDE8F081134B4FF07E509C42CCBF124C4B
:103D300004F17F442146FCF72DFE21460646384615
:103D4000FCF728FE2946FCF725FE01463046E5E74C
:103D50004FF07E50E4E700BF4ED747ADF6740F3109
:103D60007CF29334010DD037610BB63AABAA2A3DF1
:103D70009999993E0000483F0000903E2DE9F04F90
:103D8000D9B004930191C34B6299D41E53F82130EA
:103D900000250293049B4FF0000A013B0393082384
:103DA00094FBF3F424EAE474661CA2EBC606DDE996
:103DB000023203EB0208639BA71A059003EB870905
:103DC0000DF1700B45457FDD4FF000084FF0000A04
:103DD0006FF0030B049B1CAA02EB830544AB029A11
:103DE000904540F39780134608AA02EB830307939C
:103DF000639B029F03EB84030693BA464FF0874808
:103E000058AB03EB870353F8504C07AD0DF5887999
:103E1000BAF1000F00F381803146204600F008FB24
:103E20004FF078510446FCF7BFFE00F0C1FA4FF0A6
:103E30008241FCF7B9FE01462046FCF7ABFD044683
:103E4000FDF78EF88146FCF75BFE01462046FCF745
:103E5000A1FD002E04467EDD7B1E08AA52F82350E9
:103E6000C6F1080245FA02F0814490402D1A08AAD2
:103E7000C6F1070042F823500541002D79DD0022EC
:103E8000904609F10109974200F3AE80002E05DD4E
:103E9000012E00F0C080022E00F0C780022D68D1F4
:103EA00021464FF07E50FCF775FD0446B8F1000F37
:103EB0005FD031464FF07E5000F0BAFA01462046FE
:103EC000FCF768FD044654E0EF4207D459F825009A
:103ED000FCF716FE4BF82500013573E75046F9E76D
:103EE0000BFB07520693059B52F8040C53F827105E
:103EF000FCF75AFE01464846FCF74EFD8146069BFC
:103F00000137039A9742EBDD43F82890043508F116
:103F1000010864E7D1460027F3E74FF06E512046D1
:103F2000FCF742FEFDF71CF8FCF7EAFD414683462C
:103F3000FCF73AFE01462046FCF72CFDFDF710F891
:103F40000AF1FF3A45F8040F59F82A105846FCF7D1
:103F500023FD04465CE705D17B1E08AA52F82350D6
:103F60002D128AE74FF07C51FCF7D0FF002839D1A1
:103F7000054600212046FCF7ABFF002800F0A0809A
:103F80007C1E2346002202998B4255DA002A7ED0FD
:103F900008AB53F82430083E002B00F08F803146E8
:103FA0004FF07E5000F044FAA04682464FF06E5625
:103FB00044AFB8F1000F80F2B5804FF0000A002343
:103FC000A600354A3744A4EB0A01002980F2DB80C1
:103FD000629B032B00F2FF80DFE813F00201200157
:103FE0002001D90002254AE708AB53F82230B8F186
:103FF000000F09D12BB1C3F5807308A941F8223015
:104000000123013298463EE7C3F1FF0308A941F8B6
:1040100022304346F5E77A1E08AB53F8223003F00E
:104020007F0308A941F8223038E77A1E08AB53F81D
:10403000223003F03F03F4E708A951F82310013BB5
:104040000A43A0E7013352F8041D0029FAD06FF0AB
:104050000308049A7D1CBC181CAA02EB84041F44AC
:104060000DF58879AF42FFF6C8AE069B4FF0000A07
:1040700053F82500FCF744FD4FF0000B2060039B34
:104080009A450BDD49F825B004340135EAE7079A73
:104090000123D8E718520008EC51000808FB0AF386
:1040A000059AE05852F82A10FCF77EFD0146584662
:1040B000FCF772FC0AF1010A8346E0E7013C67E77E
:1040C0007142204600F0B4F94FF087410446FCF7F6
:1040D0001DFFF8B14FF06E512046FCF765FDFCF76F
:1040E0003FFFFCF70DFD4FF087418046FCF75CFD7C
:1040F00001462046FCF74EFCFCF732FF08AB43F8C4
:1041000027004046FCF72CFF7C1C08AB083643F820
:10411000240044E72046FCF723FF08AB43F82700C0
:104120003C463CE708AB53F82800FCF7E9FC514655
:10413000FCF73AFD314647F828005046FCF734FDBD
:1041400008F1FF38824634E752F8280057F8281063
:1041500004930392FCF728FD01465846FCF71CFC2B
:10416000DDE90323834608F101080299884501DC53
:10417000C245E9DA58A901EB8A0141F8A0BC0AF16D
:10418000010A043F1FE79B464FF00008EDE70DF1E1
:10419000C00A56443746A046B8F1000F4ADC27460D
:1041A000012F60DC0020012C74DC309A319B002D43
:1041B00076D101990A600A464B6090600BE056F890
:1041C0002410FCF7E9FB013C002CF8DA0DB100F1FA
:1041D0000040019B186009F0070059B0BDE8F08F5E
:1041E000002030AEF0E757F82610FCF7D5FB013E73
:1041F000002EF8DAB5B100F10043019A58AF01463C
:10420000136057F8A00DFCF7C5FB0126B4420BDA8A
:104210000DB100F10040019B5860DCE7264600200C
:1042200030AFE5E70346E8E757F82610FCF7B4FBA4
:104230000136EBE757F8042D08F1FF387B6810468C
:10424000194603930292FCF7A7FB029A01468346A4
:104250001046FCF79FFB039B1946FCF79DFBC7F834
:1042600000B0786098E756F8043D013FD6F804B0F6
:10427000184659460293FCF78FFB029B0146804685
:104280001846FCF787FB5946FCF786FBC6F800800A
:10429000706085E75AF82410FCF77EFB013C82E74A
:1042A000019902F1004203F100430A604B600A46A3
:1042B00000F1004081E700BF2DE9F84320F0004302
:1042C000B3F1485F04460F46914603DAFCF748FE17
:1042D000002835D021462046FCF766FC05460146FD
:1042E0002046FCF761FC294906462846FCF75CFCA1
:1042F0002749FCF74FFB2946FCF756FC2549FCF7FC
:104300004BFB2946FCF750FC2349FCF743FB2946AD
:10431000FCF74AFC2149FCF73FFB8046B9F1000F4E
:1043200011D101462846FCF73FFC1D49FCF732FB42
:104330003146FCF739FC01462046FCF72DFB0446CC
:104340002046BDE8F8834FF07C513846FCF72CFC42
:10435000414681463046FCF727FC01464846FCF7BB
:1043600019FB2946FCF720FC3946FCF713FB0C49E6
:1043700005463046FCF718FC01462846FCF70CFBC6
:1043800001462046FCF706FBD9E700BFD3C92E2F14
:10439000342FD7321BEF3836010D50398988083C4D
:1043A000ABAA2A3E0020704720F000407047000072
:1043B00070B520F00046F50D7F3D162D01460446F0
:1043C00026DC002D0EDA1749FCF7E6FA0021FCF78F
:1043D000A7FD28B1002C23DA134B002E18BF1C4672
:1043E00021461BE0114E2E41304217D00D49FCF7FB
:1043F000D3FA0021FCF794FD0028F1D0002CBEBFB9
:104400004FF4000343FA05F5641924EA0604E7E7CC
:10441000B6F1FF4F02D3FCF7BFFA0146084670BD64
:104420000024DDE7CAF24971000080BFFFFF7F0072
:1044300030F0004310B502460C46014627D0B3F1D8
:10444000FF4F03D3FCF7A8FA024620E0B3F5000FB4
:1044500015D24FF09841FCF7A7FB184B02469C423F
:1044600022DBC0F3C753193B2344FE2B09DD114661
:10447000134800F029F81249FCF796FBE4E7DB0D3E
:10448000F2E7002B05DD20F0FF4040EAC352104662
:1044900010BD13F1160F09DA4CF250339C4211464D
:1044A000E6DC084800F010F80649E5E7193320F08B
:1044B000FF404FF04C5140EAC350DDE7B03CFFFFF6
:1044C000CAF249716042A20D01F0004120F00040A3
:1044D0000843704708B5062000F0C2FA012000F03A
:1044E00093FC0000014B1868704700BF14000020C7
:1044F00070B500250C4E0D4CA41BA410A54209D18B
:1045000000F084FC00250A4E0A4CA41BA410A5420E
:1045100005D170BD56F8253098470135EEE756F8BD
:10452000253098470135F2E7285200082852000844
:104530002852000834520008024B0146186800F067
:104540000BB800BF14000020024B0146186800F0B1
:1045500029BB00BF140000202DE9F74F01F10B0526
:10456000162D064606D935F0070504D50C23336011
:104570000024A8E110258D42F8D3304600F02AFA35
:10458000B5F5FC7FC04F38D205F108023A445468B3
:10459000A2F108018C424FEAD50302D1D468A242AD
:1045A00010D06368D4E9021223F00303CA602344E5
:1045B00091605A6842F001025A60304600F010FAE9
:1045C000083480E10233B14A3C691146944275D007
:1045D000606820F0030CACEB05000F2848DD631980
:1045E00045F001056560C7E90433C3E9022240F0E4
:1045F00001025A6044F80C00DFE76B0A2AD0042B52
:1046000012D8AB0938335A1C07EBC2025468A2F126
:10461000080C644506D0626822F00302501B0F2884
:104620001CDD013B0133CEE7142B01D85B33EAE7F5
:10463000542B02D82B0B6E33E5E7B3F5AA7F02D8D3
:10464000EB0B7733DFE740F25452934204D8AB0CC4
:104650007C33D8E73F23D6E77E23D4E70028E16800
:1046600004DBA368D9608B60A318A2E70C46D0E7EF
:104670000028C7E9042207DBA444DCF8043043F037
:104680000103CCF8043098E7BCF5007F786880F02F
:10469000998001224FEADC0C4FEAAC0E02FA0EF2CE
:1046A00010430CF1010C786007EBCC0257F83C008A
:1046B000083AC4E9020247F83C40C46001209A105D
:1046C00000FA02F27868904226D3104206D123F015
:1046D00003035200104203F10403FAD007EBC30CAA
:1046E000E1469846D9F80C404C4540F0AF8008F1BF
:1046F000010818F0030F09F10809F3D1980740F0F9
:10470000E8807B6823EA02037B607868520090426D
:1047100002D3002A40F0EB80D7F808A0DAF8044072
:1047200024F00302AA4203D3531B0F2B00F33F8153
:10473000574B08201C68009200F0AEF9554B10341E
:1047400019682C4401311FBF04F1FF342418414281
:104750000C40009A804621463046CDE9002300F007
:1047600045F9B0F1FF3F834600F0FA80009A019BC3
:104770000AEB0201814202D9BA4540F0F180DFF82C
:1047800020915945D9F8000008F1FF3C00EB040ED8
:10479000C9F800E040F0AD8011EA0C0F40F0A980AC
:1047A000BB68144444F001045C603B4AD9F8003013
:1047B00011688B4288BF1360384A11688B4288BFEA
:1047C0001360CDE04FEA5C22042A18D84FEA9C120D
:1047D000383202F1010E57F83EE007EBC208F0450F
:1047E0002BD14FF0010C92100CFA02F210437860BA
:1047F000C4E902E8C8F80840CEF80C405EE7142A85
:1048000001D85B32E5E7542A03D84FEA1C326E32F6
:10481000DFE7B2F5AA7F03D84FEADC327732D8E778
:1048200040F2545E72459ABF4FEA9C427C327E222F
:10483000CFE7DEF808E0F04505D0DEF8042022F0EE
:1048400003026245F5D8DEF80C80D1E76068D4F841
:104850000CE020F00300A0EB050ABAF10F0F21DDF8
:10486000A268631945F001056560C2F80CE0CEF856
:1048700008204AF00102C7E90433C3E902115A6073
:1048800044F800A099E600BF40040020480400203E
:10489000D40A002048080020CC0A0020D00A0020BA
:1048A000A40A0020BAF1000F11DB2044436843F052
:1048B0000103436054F8083F3046C3F80CE0CEF8DB
:1048C000083000F08DF8204603B0BDE8F08F744644
:1048D0000AE7ACF10800DCF800C0013B84453FF476
:1048E0000DAF12E7043352001042FBD0F6E6434608
:1048F000FAE71868009201301BBFABEB010171446D
:10490000C3F800B0C9F800101BF007031CBFC3F1C7
:1049100008039B445C44984404EA0C03A8EB030896
:104920004146304600F062F8431C04BF58464FF041
:104930000008D9F80030A0EB0B004044434440F09D
:104940000100BA45C7F808B0009AC9F80030CBF8A2
:1049500004003FF42AAF0F2A10D80123CBF804300B
:10496000BB685A6822F00302AA42A2EB050301D3F6
:104970000F2B1CDC304600F033F8F9E5A2F10C04F3
:104980000522DAF8043024F0070403F0010323437E
:10499000CAF804300F2C0AEB0403C3E901227FF6A6
:1049A00004AF0AF10801304600F0FCF8FDE6BC68EF
:1049B00045F0010243F0010325446260BD606B6075
:1049C000FBE500BF03460244934200D1704703F861
:1049D000011BF9E7014800F0A1B900BFE40A00207B
:1049E000014800F09CB900BFE40A002038B500235C
:1049F000054C05460846236000F0F8F9431C02D137
:104A0000236803B12B6038BDEC0A00201F2938B59C
:104A100004460D4604D9162303604FF0FF3038BD1D
:104A2000D0F8DC2212B152F821304BB9204600F008
:104A300031F82A4601462046BDE8384000F018B853
:104A4000012B0AD0591C03D1162303600120E6E78D
:104A50000024284642F8254098470020DFE7000060
:104A6000024B01461868FFF7D1BF00BF14000020B9
:104A700038B50023064C054608461146236000F071
:104A8000ADF9431C02D1236803B12B6038BD00BFD0
:104A9000EC0A002000F09AB9082808B506D0FFF704
:104AA00021FD162303604FF0FF3008BD4FF4805006
:104AB000FBE70000024B13B1024800F005B8704755
:104AC00000000000D54A0008002301461A46184697
:104AD00000F026B938B5074D074C641BA4101CB96B
:104AE000BDE8384000F098B9013C55F824309847AB
:104AF000F5E700BF34520008385200082DE9F041B4
:104B0000054608200C46FFF7C7FF8046224F28467F
:104B1000FFF760FFBB685E6826F00306341B113C9C
:104B20004444B4FBF8F4013C08FB04F4A04505DD63
:104B30002846FFF755FF0020BDE8F08100212846F8
:104B4000FFF754FFBB6833449842F1D161422846D5
:104B5000FFF74CFF013010D100212846FFF746FF38
:104B6000BA68831A0F2BE3DD0C4943F0010309688F
:104B70005360401A0A490860DAE7BB68084A361BE6
:104B800046F001065E60136828461C1B1460FFF7A0
:104B900027FF0120D0E700BF400400204808002084
:104BA000A40A00202DE9F04104468846002900F0BF
:104BB000AB80FFF70FFF58F8042C544D22F0010092
:104BC000A8F108031F18A9687E68B94226F00306F9
:104BD00002F001021BD130443AB958F8082C9B1A54
:104BE0001044D3E90212CA60916040F001025A6099
:104BF000AB60474B1B68834204D8464B204619687C
:104C0000FFF77CFF2046BDE8F041FFF7E9BE7E607C
:104C1000002A39D158F8081C05F1080C5B1A084421
:104C20009968614532D0D3F80CC0C1F80CC0CCF8FB
:104C30000810B9194968C9070AD43044B9683ABBA1
:104C4000354EB14224D10122C5E90433C3E9021132
:104C500040F0010159601850002AD3D1B0F5007F0F
:104C60001AD20122C00881108A40696801300A43C3
:104C70006A6055F8301005EBC002083AC3E9021229
:104C800045F83030CB60BDE70022D2E70122D0E703
:104C9000FE68CE60B160DBE7420A042A13D88209BD
:104CA0003832511C55F8311005EBC2068E4224D122
:104CB0000120921000FA02F2686802436A60C3E9B8
:104CC0000216B360DEE7142A01D85B32E9E7542A02
:104CD00002D8020B6E32E4E7B2F5AA7F02D8C20B0B
:104CE0007732DEE740F254518A429ABF820C7C321E
:104CF0007E22D6E789688E4204D04A6822F00302F9
:104D00008242F7D8CE68DAE7BDE8F081400400209F
:104D10004C080020D40A0020480400207047704747
:104D20002DE9F843264C0646206898460F469146E2
:104D3000FFF7F4FF234B1D68D5F8480118B905F5B6
:104D4000A670C5F8480143681F2B19DD1E4B33B907
:104D50002068FFF7E4FF4FF0FF30BDE8F8834FF421
:104D6000C870FFF7E9FB0028F2D00022D5F84831DF
:104D700042600360C5F84801C0F88821C0F88C2162
:104D800043689EB1012200EB8305C5F88890D0F8F6
:104D900088119A401143022EC0F88811C5F8088185
:104DA00002BFD0F88C110A43C0F88C215A1C023380
:104DB000426040F823702068FFF7B1FF0020CCE785
:104DC0005008002024520008394500085822024BA0
:104DD0004FF0FF301A607047EC0A00205822024B57
:104DE0004FF0FF301A607047EC0A0020044B024677
:104DF000196809B903491960186802441A607047B4
:104E0000D80A0020F00A0020FEE70000F8B500BF35
:104E1000F8BC08BC9E467047F8B500BFF8BC08BC9B
:044E20009E467047F3
:104E240002030405060708090A0B0C0D0E0F1010E7
:104E34000000000000000000010203040607080946
:104E44000000000001020304737172746600000024
:104E5400000FC93F000F494000CB9640000FC940E6
:104E64000053FB4000CB164100ED2F41000F494198
:104E74000031624100537B41003A8A4100CB9641A4
:104E8400005CA34100EDAF41007EBC41000FC9416D
:104E940000A0D5410031E24100C2EE410053FB4184
:104EA40000F20342003A0A420083104200CB164249
:104EB40000141D42005C234200A5294200ED2F424C
:104EC40000363642007E3C4200C74242000F49424F
:104ED400A2000000F9000000830000006E00000042
:104EE4004E000000440000001500000029000000EE
:104EF400FC0000002700000057000000D100000063
:104F0400F500000034000000DD000000C0000000D7
:104F1400DB00000062000000950000009900000022
:104F24003C0000004300000090000000410000002D
:104F3400FE0000005100000063000000AB00000010
:104F4400DE000000BB000000C5000000610000009E
:104F5400B7000000240000006E0000003A000000CA
:104F6400420000004D000000D2000000E0000000FC
:104F740006000000490000002E000000EA000000C6
:104F840009000000D1000000920000001C00000095
:104F9400FE0000001D000000EB0000001C000000EB
:104FA400B100000029000000A70000003E0000003E
:104FB400E80000008200000035000000F500000059
:104FC4002E000000BB00000044000000840000002C
:104FD400E90000009C0000007000000026000000B2
:104FE400B40000005F0000007E00000041000000EB
:104FF4003900000091000000D600000039000000D4
:10500400830000005300000039000000F400000099
:105014009C000000840000005F0000008B00000082
:10502400BD000000F9000000280000003B00000063
:105034001F000000F800000097000000FF000000BF
:10504400DE00000005000000980000000F000000D2
:10505400EF0000002F000000110000008B00000092
:105064005A0000000A0000006D0000001F0000004C
:105074006D000000360000007E000000CF0000003C
:1050840027000000CB00000009000000B70000006A
:105094004F000000460000003F00000066000000D2
:1050A4009E0000005F000000EA0000002D000000E8
:1050B4007500000027000000BA000000C7000000CF
:1050C400EB000000E5000000F10000007B000000A0
:1050D4003D0000000700000039000000F700000058
:1050E4008A0000005200000092000000EA00000064
:1050F4006B000000FB0000005F000000B100000036
:105104001F0000008D0000005D000000080000008A
:1051140056000000030000003000000046000000BC
:10512400FC0000007B0000006B000000AB000000EE
:10513400F0000000CF000000BC00000020000000D0
:105144009A000000F4000000360000001D0000007A
:10515400A9000000E30000009100000061000000CD
:105164005E000000E60000001B00000008000000D4
:105174006500000099000000850000005F00000049
:1051840014000000A00000006800000040000000BF
:105194008D000000FF000000D80000008000000027
:1051A4004D000000730000002700000031000000E3
:1051B4000600000006000000150000005600000074
:1051C400CA00000073000000A8000000C90000002D
:1051D40060000000E20000007B000000C00000004E
:1051E4008C0000006B0000000000C93F0000F03993
:1051F4000000DA370000A2330000842E0000502B98
:105204000000C2270000D0220000C41F0000C61BFB
:10521400000044170400000007000000090000001B
:04522400180000204E
:0C522800B54A00083501000809340008F0
:04523400110100085C
:105238000100000010000000D007000000A24A048E
:1052480001000000180000200000000004030020F6
:105258006C030020D40300200000000000000000C0
:105268000000000000000000000000000000000036
:105278000000000000000000000000000000000026
:105288000000000000000000000000000000000016
:105298000000000000000000000000000000000006
:1052A80000000000000000000000000000000000F6
:1052B80000000000000000000000000000000000E6
:1052C80000000000000000000000000000000000D6
:1052D80000000000000000000000000000000000C6
:1052E80000000000000000000000000000000000B6
:1052F80001000000000000000E33CDAB34126DE653
:10530800ECDE05000B0000000000000000000000BB
:105318000000000000000000000000000000000085
:105328000000000000000000000000000000000075
:105338000000000000000000000000000000000065
:105348000000000000000000000000000000000055
:10567800000000000000000040040020400400205A
:105688004804002048040020500400205004002052
:105698005804002058040020600400206004002002
:1056A80068040020680400207004002070040020B2
:1056B8007804002078040020800400208004002062
:1056C8008804002088040020900400209004002012
:1056D8009804002098040020A0040020A0040020C2
:1056E800A8040020A8040020B0040020B004002072
:1056F800B8040020B8040020C0040020C004002022
:10570800C8040020C8040020D0040020D0040020D1
:10571800D8040020D8040020E0040020E004002081
:10572800E8040020E8040020F0040020F004002031
:10573800F8040020F80400200005002000050020DF
:10574800080500200805002010050020100500208D
:10575800180500201805002020050020200500203D
:1057680028050020280500203005002030050020ED
:10577800380500203805002040050020400500209D
:10578800480500204805002050050020500500204D
:1057980058050020580500206005002060050020FD
:1057A80068050020680500207005002070050020AD
:1057B800780500207805002080050020800500205D
:1057C800880500208805002090050020900500200D
:1057D8009805002098050020A0050020A0050020BD
:1057E800A8050020A8050020B0050020B00500206D
:1057F800B8050020B8050020C0050020C00500201D
:10580800C8050020C8050020D0050020D0050020CC
:10581800D8050020D8050020E0050020E00500207C
:10582800E8050020E8050020F0050020F00500202C
:10583800F8050020F80500200006002000060020DA
:105848000806002008060020100600201006002088
:105858001806002018060020200600202006002038
:1058680028060020280600203006002030060020E8
:105878003806002038060020400600204006002098
:105888004806002048060020500600205006002048
:1058980058060020580600206006002060060020F8
:1058A80068060020680600207006002070060020A8
:1058B8007806002078060020800600208006002058
:1058C8008806002088060020900600209006002008
:1058D8009806002098060020A0060020A0060020B8
:1058E800A8060020A8060020B0060020B006002068
:1058F800B8060020B8060020C0060020C006002018
:10590800C8060020C8060020D0060020D0060020C7
:10591800D8060020D8060020E0060020E006002077
:10592800E8060020E8060020F0060020F006002027
:10593800F8060020F80600200007002000070020D5
:105948000807002008070020100700201007002083
:105958001807002018070020200700202007002033
:1059680028070020280700203007002030070020E3
:105978003807002038070020400700204007002093
:105988004807002048070020500700205007002043
:1059980058070020580700206007002060070020F3
:1059A80068070020680700207007002070070020A3
:1059B8007807002078070020800700208007002053
:1059C8008807002088070020900700209007002003
:1059D8009807002098070020A0070020A0070020B3
:1059E800A8070020A8070020B0070020B007002063
:1059F800B8070020B8070020C0070020C007002013
:105A0800C8070020C8070020D0070020D0070020C2
:105A1800D8070020D8070020E0070020E007002072
:105A2800E8070020E8070020F0070020F007002022
:105A3800F8070020F80700200008002000080020D0
:105A4800080800200808002010080020100800207E
:105A5800180800201808002020080020200800202E
:105A680028080020280800203008002030080020DE
:105A78003808002038080020FFFFFFFF0000020060
:045A8800E00A002010
:04000005080037397F
:00000001FF
